:100000000C941F050C9466050C9466050C9466050B
:100010000C9466050C9466050C9466050C946605B4
:100020000C9466050C9466050C94552D0C94292EA1
:100030000C9483240C9466050C9466050C94660558
:100040000C9466050C9466050C9466050C94660584
:100050000C9466050C94CE240C9466050C946605ED
:100060000C9466050C9466050C9466050C94660564
:100070000C9466050C9466050C9466050C94660554
:100080000C9466050C9466050C9466050C94660544
:100090000C9466050C9466050C9466050C94660534
:1000A0000C9466050C9466050C946605076342364D
:1000B000B79BD8A71A39685618AEBAAB558C1D3CF9
:1000C000B7CC5763BD6DEDFD753EF6177231BF00BD
:1000D0000000803F05A84CCDB2D44EB93836A902F5
:1000E0000C50B9918688083CA6AAAA2ABE00000036
:1000F000803F696E69745F6261636B6C6967687485
:100100005F70696E28290A00165C1E001F0020001F
:1001100021002200230024002B0014001A000800F4
:10012000150017001C001800390004001600070015
:1001300009000A000B000D00E10064001D001B0017
:100140000600190005001100E000E300E2008B004A
:1001500000002C002C0000002500260027002D00A8
:100160002E0035002A004B000C00120013002F0057
:100170003000310000004E000E000F00330034004C
:100180003200280000000000100036003700380060
:100190008700E500520000008A000000E6000151DF
:1001A000E400500051004F0035003A003B003C0095
:1001B0003D003E003F004000010001000100010041
:1001C00001000100010001000100010002510100D5
:1001D0000100010001000100010001000100010017
:1001E0000100010001000100010001000100010007
:1001F00000000100010000004100420043004400F3
:10020000450001004C00A9000100AC00AE00AB00AD
:100210000100A8000000AA00010001000100010087
:1002200001000100000000000100010001000100C8
:10023000010001004B00000001000000010001511D
:1002400001004A004E004D00C15CCE5CCF5CD05C2A
:10025000D15CD25CD35CD45C0100010001000100E0
:10026000005C0100010001000100010002510100D9
:100270000100010001000100015101000100010025
:100280000100010001000100010001000100010066
:100290000000C45CC45C0000D55C010001000100EA
:1002A00001000100C35CCA5C010001000100010003
:1002B000010001000000CB5C010001000100010011
:1002C0000100010000000000010001000100010028
:1002D00001000100C85C00000100000001000151A4
:1002E0000100C75CC95CC65C44454255473A20647E
:1002F000697361626C65642E0A0044454255473A51
:1003000020656E61626C65642E0A000A0025303833
:1003100062003A200025303258000A722F632030E4
:10032000313233343536370A007267626C69676878
:10033000742074696D65722064697361626C652EE6
:100340000A007267626C696768742074696D65720F
:1003500020656E61626C65642E0A007267626C696A
:100360006768742073657420687376205B4E4F4510
:100370004550524F4D5D3A2025752C25752C25751D
:100380000A007267626C696768742073657420681C
:100390007376205B454550524F4D5D3A2025752CB4
:1003A00025752C25750A007267626C696768742070
:1003B0007261696E626F7720736574206873763A34
:1003C0002025642C25642C25642C25750A00726771
:1003D000626C696768742064697361626C65205B34
:1003E000454550524F4D5D3A207267626C696768AF
:1003F000745F636F6E6669672E656E61626C6520FF
:100400003D2025750A007267626C69676874206513
:100410006E61626C65205B454550524F4D5D3A20E0
:100420007267626C696768745F636F6E6669672E76
:10043000656E61626C65203D2025750A00726762F9
:100440006C6967687420746F67676C65205B4545ED
:1004500050524F4D5D3A207267626C696768745FF5
:10046000636F6E6669672E656E61626C65203D2004
:1004700025750A007267626C69676874206D6F6425
:1004800065205B4E4F454550524F4D5D3A202575D6
:100490000A007267626C69676874206D6F6465201A
:1004A0005B454550524F4D5D3A2025750A007267F5
:1004B000626C696768745F696E6974207267626CE8
:1004C000696768745F636F6E6669672E6D6F6465D8
:1004D000203D20302E205772697465206465666166
:1004E000756C742076616C75657320746F2045455A
:1004F00050524F4D2E0A007267626C696768745FD4
:10050000696E6974206565636F6E666967206973DB
:10051000206E6F7420656E61626C65642E0A0072D5
:1005200067626C696768745F696E6974207374616F
:100530007274210A007267626C696768745F696E21
:1005400069742063616C6C65642E0A007267626C6A
:10055000696768745F636F6E6669672E737065653F
:1005600064203D2025640A007267626C69676874C4
:100570005F636F6E6669672E76616C203D2025642F
:100580000A007267626C696768745F636F6E6669A0
:10059000672E736174203D2025640A007267626CC7
:1005A000696768745F636F6E6669672E687565203A
:1005B0003D2025640A007267686C696768745F6330
:1005C0006F6E6669672E6D6F6465203D2025640A35
:1005D000007267626C696768745F636F6E666967F3
:1005E0002E656E61626C65203D2025640A0072678D
:1005F000626C696768745F636F6E66696720454502
:1006000050524F4D3A0A0032190A00047F3F1F64CE
:100610003214643214783C1E1E140A05FFAA7F555A
:10062000406261636B6C6967687420737465703ACB
:100630002025750A006261636B6C696768742064C9
:10064000697361626C650A006261636B6C696768FB
:100650007420656E61626C650A006261636B6C692F
:1006600067687420746F67676C653A2025750A00A7
:100670006261636B6C69676874206465637265614D
:1006800073653A2025750A006261636B6C6967685F
:100690007420696E6372656173653A2025750A007E
:1006A0000001010101010101010102020202020235
:1006B0000202020303030303030303040404040408
:1006C00004040505050505060606060607070707CF
:1006D0000708080808090909090A0A0A0B0B0B0C84
:1006E0000C0C0D0D0D0E0E0E0F0F0F101011111121
:1006F00012121313141415151616171718181919A2
:100700001A1A1B1B1C1D1D1E1E1F20202122222306
:100710002424252626272829292A2B2C2D2D2E2F47
:1007200030313232333435363738393A3B3C3D3E5E
:100730003F404142434445464748494A4C4D4E4F4D
:1007400050515354555658595A5B5D5E5F6162640F
:10075000656668696B6C6D6F7072737577787A7B9C
:100760007D7E8082838587888A8C8E8F91939596F3
:10077000989A9C9EA0A2A3A5A7A9ABADAFB1B3B513
:10078000B7BABCBEC0C2C4C6C9CBCDCFD1D4D6D8EF
:10079000DBDDDFE2E4E7E9EBEEF0F3F5F8FAFDFF8D
:1007A0000A002530325820006B6579626F617264EF
:1007B0005F7265706F72743A20000A0025303258FB
:1007C000006B6579626F6172645F7365745F6C65FD
:1007D000643A200064656C5F6B65795F6269743AA6
:1007E0002063616E27742064656C3A20253032588E
:1007F0000A006164645F6B65795F6269743A2063C3
:10080000616E2774206164643A20253032580A00F2
:10081000290A002575002F002575005D2800256434
:1008200000200025640020002564002000256400CD
:100830007C0025303258006D6F7573656B657920CB
:100840005B62746E7C782079207620685D28726502
:10085000702F61636C293A205B005B735D004B6510
:1008600079626F6172642073746172742E0A005B26
:10087000575D005B535D005B525D005B445D005B58
:10088000435D00140343006C007500650062006F57
:10089000006100720064000000140343006C0075E6
:1008A00000650062006F00610072006400000004D7
:1008B00003090409025B00030100A0FA0904000017
:1008C0000103010100092111010001224000070577
:1008D000810308000A090401000103000000092146
:1008E0001101000122BC000705820320000A09044F
:1008F0000200020300000009211101000122220070
:1009000007058303200001070503032000011201EE
:10091000100100000008EDC1702301000102000178
:100920000631FF0974A1010975150026FF00952005
:10093000750881020976150026FF0095207508913B
:1009400002C005010902A10185020901A1000509F2
:1009500019012905150025019505750181029501EB
:10096000750381010501093009311581257F950243
:100970007508810609381581257F9501750881065E
:10098000050C0A38021581257F950175088106C07E
:10099000C005010980A101850319012AB7001501CD
:1009A00026B700950175108100C0050C0901A10151
:1009B000850419012AA002150126A00295017510CF
:1009C0008100C005010906A1018505050719E02977
:1009D000E715002501950875018102050719002911
:1009E000EF1500250195F07501810205081901290F
:1009F00005950575019102950175039101C00501E9
:100A00000906A101050719E029E715002501950848
:100A1000750181029501750881010507190029FFFB
:100A2000150026FF009506750881000508190129A3
:100A300005950575019102950175039101C0112479
:100A40001FBECFEFDAE0DEBFCDBF04B603FE27C086
:100A50008091890390918A03A0918B03B0918C03BC
:100A60008730904BA740B04BD1F41092890310927D
:100A70008A0310928B0310928C0314BE84B7877F75
:100A800084BF0FB6F894A895809160008861809328
:100A90006000109260000FBEE0E0F8E3099511E0FD
:100AA000A0E0B1E0E8E9F9E602C005900D92AA3DA8
:100AB000B107D9F723E0AAEDB1E001C01D92A93832
:100AC000B207E1F70E948C2A0C948E340C9400003B
:100AD000FF93EF93E091DA01F091DB01309709F099
:100AE0000995EF91FF910895FC018591803011F0F7
:100AF000EFDFFBCF0895FF27E0E230E247FF0CC0B5
:100B0000419597FF09C0EDE26095709580959095AD
:100B1000611D711D811D911D27FF02C0219530E3CC
:100B200050E2AA27660F771F881F991FAA1FA417D4
:100B300010F0A41B63955A95A9F7AA3008F0A95F95
:100B4000A05DAF93F395611571058105910541F79E
:100B5000ED3211F4EF93F395F21718F43F93F395F8
:100B6000FBCF8F91B5DFFA95E1F70895E991F991FF
:100B70008591803021F0853219F0AADFF9CF0895F0
:100B800020E0E89455915532C1F3503311F4689444
:100B900055915A3348F4505390F3220F022E220FEE
:100BA000220F200D250FF4CF0EF4219589919991F4
:100BB000533619F3533729F1533559F1BC018827BE
:100BC0009927E8945C3621F489919991689455911C
:100BD000543639F446EF7EF077FF0DC08FEF9FEF6C
:100BE0000AC055374AE039F0583540E121F0523615
:100BF00042E009F00895FF93EF937DDFEF91FF91BD
:100C0000B7CFFF93EF93FC0181918030B9F360DFA0
:100C1000FBCFFF93EF9368DFF1CFDF93CF93CDB797
:100C2000DEB72596A3DFCF91DF91089582EF90E0A4
:100C30000E947405569A279A549A5E982F985C9849
:100C40000895811104C05E9A2F9A5C9A08955E9867
:100C50002F985C98089581E0089581E008950C94A0
:100C60002D0608950C9431061F93CF93DF9300D087
:100C700000D00F92CDB7DEB749835A836B83309192
:100C80005A0289819A8131111DC06623B9F022234D
:100C9000A9F00E943721182F682F89819A810E941C
:100CA000E22069817A81812F0F900F900F900F9031
:100CB0000F90DF91CF911F910C9418070E940F2184
:100CC000182FEFCF0E94372169817A81EDCFFC0187
:100CD000262F408151816281738184810C94340676
:100CE000CF93DF93EC0160E00E946706BE01DF91C5
:100CF000CF910C9432060E949822811102C00E946A
:100D000045230E9409070E9416060C9425090C949D
:100D1000280908950E94491C0E9489062FEF84E348
:100D20009CE0215080409040E1F700C000000C940E
:100D3000F2240F931F93CF93DF93EC0161E00E94A5
:100D400067068C01BE010E942F06882371F1BE0147
:100D5000C8010E948B14882341F1BE01C8010E9482
:100D60007215882311F1BE01C8010E94C4158823A1
:100D7000E1F0BE01C8010E94E7168823B1F0BE0170
:100D8000C8010E94EF12882381F08A81882341F1F3
:100D900001308CE5180779F00F3D8CE51807E9F074
:100DA00001151C45E9F40E948A0680E0DF91CF918D
:100DB0001F910F9108959091F202892F8E7F90FFDD
:100DC00081608093F20280FF05C08AEF92E00E946A
:100DD0007405EBCF88EE92E0FACF0E944523E5CF71
:100DE000CE01DF91CF911F910F910C942B060895A6
:100DF0000C94F70681E00895CF93C82F0E94FA065D
:100E0000882319F0C1FF03C02C9ACF9108952C9824
:100E1000FCCF249A2C980895CF93C82F0E94F806EF
:100E20008C2FCF910C94FC0690E080E008950895FB
:100E3000E72FF0E09AE0899FE00DF11D112483E097
:100E4000EE0FFF1F8A95E1F7E60FF11DEE0FFF1F72
:100E5000E85FFE4F859194910895FC01EE0FFF1F0E
:100E6000E55FFC4F859194910895CF93DF930E94A5
:100E700018070E944A08EC01811520E5920708F046
:100E800042C0811530E4930708F0BDC0883E91054B
:100E900028F5803E910508F09DC0883A910588F4B8
:100EA000853A910508F08FC08130910509F492C010
:100EB000009709F48FC0049708F08CC0D0E0C0E020
:100EC00089C08F3B910508F489C0805C9109C03CC2
:100ED000D105A0F30E942D07EC017CC08115904242
:100EE00050F4C11581E0D80708F074C0C03FD105A7
:100EF00028F3D0656FC0C11590E3D90708F079C019
:100F0000CE019F70E7CF811525E5920758F5811531
:100F100034E5930708F0A6C0811542E5940750F424
:100F2000C11581E5D80708F471C0DC2FCC27C16F4B
:100F3000D06A50C0982F969596959E0123703327BE
:100F4000C115D34508F07FC0C1E0D0E002C0CC0F8E
:100F5000DD1F2A95E2F720E2929FC0011124C82BE1
:100F6000D92B6FC0C11589E5D807A8F4C11598E53C
:100F7000D90708F07CC0C11526E5D20708F09ECF3E
:100F80008C2F0E94E108C82FD0E0DC2FCC27CC2783
:100F9000DF71D0621FC0C1153AE5D30708F46CC0F9
:100FA000CE0190568115904208F088CF8D2F8F7119
:100FB0000E94E10890E0982F882788279F719C0164
:100FC0002C2BE901E6CFC55AD0E0C65ADE4FC881C6
:100FD000D0E0D064CE01DF91CF910895C85AD0E01F
:100FE000CC0FDD1FC45DDE4F0990D881C02DD464C5
:100FF000F1CFCE019927D3FF03C0EC01D86CEACF23
:10100000EC01D06CE7CFDF70D06AE4CFCE01E4E032
:1010100096958795EA95E1F783702C2F269526956E
:10102000237090E2299F90011124382B8C2F83701C
:10103000C1E0D0E002C0CC0FDD1F8A95E2F7C22BE1
:10104000D32BDC68C7CFC1E0D0E002C0CC0FDD1FDE
:101050002A95E2F730E2939FC0011124C82BD92BC7
:10106000DA68B8CFD82FCC27C46FD06AB3CFDC2FC3
:10107000CC27C06FD06AAECF8C2F8F700E94E10852
:1010800034E0D695C7953A95E1F7CF709C2FEC01E7
:10109000D069A0CF82389105B1F1B0F481339105C8
:1010A00009F475C048F48932910509F469C08A329F
:1010B000910509F473C008958533910509F459C069
:1010C0008933910501F10895833E9105A9F138F422
:1010D000803E9105F9F0823E910549F10895863EE2
:1010E0009105A9F1873E9105C9F1843E910519F555
:1010F00020917B0321FF1FC080917A0384FD14C0DF
:1011000087EE90E0089520917A032370A1F080EE9D
:1011100090E0089520917A0320FD47C030917B0331
:1011200030FF09C024FF44C090E080E004C020915B
:101130007A0322FDF7CF089520917A0322FD3BC068
:1011400030917B0330FDE3CF24FFF5CFEDCF20912D
:101150007A0323FFF0CF24FDE7CFD2CF20917A038B
:1011600023FD2CC030917B0331FFEECF84EE90E065
:10117000089520917A0325FFDECF89E290E008955B
:1011800020917A0325FFD7CF85E390E00895209141
:101190007A0326FFD0CF8AE290E0089520917A0367
:1011A00026FFC9CF81E390E0089589E390E0089598
:1011B00083EE90E0089582EE90E0089586EE90E050
:1011C000089590917A0392FF06C0282F2871283045
:1011D000F9F4877F846093FF06C0282F2871283197
:1011E000F1F4877E846120917B0320FF06C0382FB5
:1011F00038713830D9F4877F816021FF06C0282FED
:1012000028712831D1F4877E816194FD877E08950D
:10121000282F24712430F9F68B7F8860DCCF282FAB
:101220002471243101F78B7E8861DDCF382F317135
:10123000313019F78E7F8860E0CF282F217121315E
:1012400021F78E7E8861E1CF08950C9424090895DA
:101250000C942709E82FF0E0E05DFC4F80810895B1
:10126000CF92DF92EF92FF920F931F93CF93DF9372
:101270008AE193E00E94740580E3E82E83E0F82E73
:10128000D0E0C0E095E1C92E93E0D92E0DE013E047
:10129000DF93CF93DF92CF920E940D0682E193E01D
:1012A0000E947405F70181917F010E9480221F92A4
:1012B0008F931F930F930E940D068BE093E00E9483
:1012C000740521968DB79EB708960FB6F8949EBF09
:1012D0000FBE8DBFCA30D105D9F6DF91CF911F91D6
:1012E0000F91FF90EF90DF90CF90089580EA8A955C
:1012F000F1F70895F894E82FE295EF70F0E031A14E
:10130000282F2F7081E090E001C0880F2A95EAF71E
:10131000982F9095932391A392A1892B82A37894DF
:101320000895CF93DF93C5E6D1E089910E947A09B1
:1013300081E0CF36D807C9F7CDE5D1E089910E9489
:101340007A0981E0C536D807C9F7E6E2F3E0A0E301
:10135000B3E011921D9283E0E033F807D1F78AE001
:101360000E942B0ADF91CF910C947B06CF92DF92E3
:10137000EF92FF920F931F93CF93DF93C5E6D1E0D7
:1013800006E213E0D12CEE24E394F12C8991F89439
:10139000E82FE295EF70F0E021A18F70A70102C065
:1013A000440F551F8A95E2F7CA01922F982B91A3FB
:1013B00092A18095892382A378940E947609EDE515
:1013C000F1E030E020E0C12C4191A42FA295AF7054
:1013D000B0E090968C9190E04F7002C09595879503
:1013E0004A95E2F780FD33C08E2D022E01C0880F92
:1013F0000A94EAF7C82A2F5F3F4F2830310521F7BA
:10140000FE01319780810E947A09F8018081C81617
:1014100001F1C08281E0D82A0F5F1F4FF1E0CF3683
:10142000DF0709F0B3CF2D2D4AE060E373E086E2D9
:1014300093E00E942C0A0E9487068D2DDF91CF91A8
:101440001F910F91FF90EF90DF90CF90089580E073
:10145000D1CF80E0E0CF0895FF920F931F93CF93F9
:10146000DF93F82E092F162FD72FC42F222349F0F0
:1014700081E08093DE010E94B3249093DD0180938C
:10148000DC018091DE018823A1F08091DC01909144
:10149000DD010E94BF24069760F0EF2DF02FA12FF1
:1014A000BD2FCE0FDF2FD11DEC17FD0741F4109299
:1014B000DE01DF91CF911F910F91FF9008958191EF
:1014C0008D93F2CFEF92FF920F931F93CF93DF9301
:1014D000EB01E82FD11110C0442321F0F0E0E056D9
:1014E000F94FE4916E2F7E2F8E2FDF91CF911F91B8
:1014F0000F91FF90EF9008950D2F10E0282F30E00E
:10150000442329F02056394FF901249130E0F6E0C8
:10151000CF9FC0011124EFEFF0E0BF010E943D33E7
:10152000AB018C2F90E0880F991FA5E5A49FB00117
:10153000A59F700D1124861B970B982F990F980F5C
:10154000BF01601B710B629FD001639FB00D729F42
:10155000B00D11248B2F9D9FB0011124672F772789
:10156000EF01C61BD70BBE01629FE001639FD00D48
:10157000729FD00D11247F01E91AF108E09EB0019D
:10158000E19E700DF09E700D1124672F7727E61BEA
:10159000F70BE29F8001E39F100DF29F100D1124C5
:1015A000E12F722F4230510599F048F44115510551
:1015B00069F04130510581F0EB2F8D2F07C0443089
:1015C000510569F080F046305105B1F76E2F8DCF8F
:1015D000E22F7B2F812FFACFE22F7D2FF7CFEB2F3A
:1015E000822F712FF3CF7B2F822FED2FEFCF41E092
:1015F0000C94620A08950C94F70ACF93DF93762F28
:10160000E901682F842F0E94FB0A798368838A830B
:10161000DF91CF91089580913A03982F9E7F29F40E
:101620008170826080933A0308958635E8F3817073
:101630008465F8CF88E090E00C942F34CF92DF924D
:10164000EF92FF926B017C010E940B0BB701A60188
:1016500088E090E0FF90EF90DF90CF900C944D34B5
:10166000EAE3F3E083E0808311828FEF8283838358
:10167000148260817181828193810C941E0B809110
:10168000F20280FF76C08EEE95E09F938F930E94CA
:101690000D068091F2020F900F9080FF6AC080913A
:1016A0003A0381701F928F9381ED95E09F938F9302
:1016B0000E940D068091F2020F900F900F900F90F4
:1016C00080FF57C080913A0386951F928F9386EBD7
:1016D00095E09F938F930E940D068091F2020F90E8
:1016E0000F900F900F9080FF44C080913B031F929A
:1016F0008F938CE995E09F938F930E940D068091C4
:10170000F2020F900F900F900F9080FF32C08091E7
:101710003C031F928F9382E895E09F938F930E94E2
:101720000D068091F2020F900F900F900F9080FFA6
:1017300020C080913D031F928F9388E695E09F9390
:101740008F930E940D068091F2020F900F900F90E0
:101750000F9080FF0EC080913E031F928F938CE408
:1017600095E09F938F930E940D060F900F900F901E
:101770000F90089580913A0380FF02C086950895E6
:1017800080E0089590913E03933018F49F5F90930A
:101790003E03882351F060913A0370913B0380919E
:1017A0003C0390913D030C941E0B089581E00C9432
:1017B000C20B90913E03992319F0915090933E03F0
:1017C000882351F060913A0370913B0380913C0370
:1017D00090913D030C941E0B089581E00C94D90B5D
:1017E00070E00C94BB146091080180913A0380FF73
:1017F0000AC08091070123E0829FC0011124815C0F
:101800009C4F0C94F00B8091090190910A0123E008
:10181000829FF0011124E15CFC4F891750F711827F
:10182000108212828F5F3396F8CF90913A0390FF27
:1018300014C09091090120910A0133E0939FF001B7
:101840001124E15CFC4F921710F00C94F30B818390
:10185000608342839F5F3396F6CF0895CF93DF93E3
:1018600000D00F92CDB7DEB790913A0390FF0AC037
:101870009E012F5F3F4F0E94FD0A4B8169818A8143
:101880000E94150C0F900F900F90DF91CF9108954B
:10189000CF93DF93EC016C8170E090E080E00E94D8
:1018A000243120E030E04FE753E40E9447302BED35
:1018B0003FE049E450E40E944D320E94BA320E9457
:1018C000C13022EB3AE54CEB5EE30E94DA2F22E0D6
:1018D0003FE24AEA52E40E944D320E94F330462F22
:1018E000EAE3F3E0628181810E942E0C8C818F5F9C
:1018F0008C83DF91CF910895CF93DF93EC01EAE3DE
:10190000F3E0438162818C810E942E0C8C818F5F79
:101910008C83DF91CF9108950F931F93CF93DF9323
:1019200000D00F92CDB7DEB78C018091DF0181111D
:101930000AC09E012F5F3F4F4FEF6FEF0E94FD0ADD
:101940008A818093DF01F8016481613069F08091C0
:10195000DF0140E0662361F040E0623011F4409125
:10196000DF0180E060E004C06091DF0140E080E0E2
:101970000E94150CF801848190E0019663E070E00C
:101980000E94513384830F900F900F90DF91CF917D
:101990001F910F9108954F925F926F927F928F9255
:1019A0009F92AF92BF92CF92DF92EF92FF920F93EE
:1019B0001F93CF93DF9300D00F92CDB7DEB7182FD0
:1019C000D62E042F722E90913A0390FF46C0E92F35
:1019D000E695AE2FB0E0A159BE4F8C9180934302A3
:1019E0009E7F923009F04DC09E012F5F3F4F812FA7
:1019F0000E94FD0A4B8169818A810E94150C109317
:101A00003B03D0923C0300933D03772009F49CC034
:101A100060913A0370913B0380913C0390913D03A8
:101A20000E941E0B8091F20280FF17C080913D033F
:101A30001F928F9380913C031F928F9380913B0361
:101A40001F928F9382E893E09F938F930E940D06DD
:101A50000FB6F894DEBF0FBECDBF0F900F900F9062
:101A6000DF91CF911F910F91FF90EF90DF90CF907A
:101A7000BF90AF909F908F907F906F905F904F90AE
:101A80000895823019F400913D03B9CF863019F4DE
:101A900010913B03B4CF8930D9F3893109F0AFCF2E
:101AA000E9518E2F8170682E8E2F80958170C82EFF
:101AB000E695F0E0E45EF94FE590F490412CFF24C8
:101AC00097EAA92E93E0B92E60910B01461618F003
:101AD0000E94F30B94CF842C912C8E9CC0018F9C80
:101AE000900D9E9C900D112470E00E943D33512E6C
:101AF000611028C0560E8091F20280FF11C0FF9243
:101B0000EF921F92CF921F925F921F924F92BF92BD
:101B1000AF920E940D060FB6F894DEBF0FBECDBF88
:101B200020910901820E911C9401220F331F280D70
:101B3000391D215C3C4F402F6D2D852D0E94FD0AE3
:101B40004394C2CF561AD7CF8091F20280FF85CF3F
:101B50001F920F931F92DF921F921F938BE593E0CA
:101B600073CFEAE3F3E09181282F4381628180E221
:101B7000890F0C94CB0C81E00C94B10DEAE3F3E0F7
:101B80009181282F4381628180EE890F0C94CB0CC8
:101B900081E00C94BE0DEAE3F3E0628121E1620F83
:101BA00008F46FEF282F438181810C94CB0C81E0E6
:101BB0000C94CB0DEAE3F3E0628121E1621B08F4AF
:101BC00060E0282F438181810C94CB0C81E00C9440
:101BD000DA0DEAE3F3E0438121E1420F08F44FEF2D
:101BE000282F628181810C94CB0C81E00C94E90D4B
:101BF000EAE3F3E0438121E1421B08F440E0282FAF
:101C0000628181810C94CB0C81E00C94F80D20E072
:101C10000C94CB0CEF92FF921F93CF93DF93EC01C8
:101C200010E0EE24EA94F12C60910B01161770F08D
:101C30000E94F30B9A818C8190FF27C08F5F8C8369
:101C4000DF91CF911F91FF90EF90089520910901AE
:101C5000422F410F5527551FCA019A01220F331FEA
:101C6000280F391F215C3C4F70E0C7010E9451339F
:101C7000962F8C8140913D0360913C03199F800D0C
:101C800011240E94FD0A1F5FCFCF8150D8CFAF92A1
:101C9000BF92CF92DF92EF92FF920F931F93CF9359
:101CA000DF93FC0182810FEF80FF01E010E042E151
:101CB000A42E80910B011817C8F00E94F30B80919D
:101CC000E101013009F055C0811102C080910B0182
:101CD00081508093E101DF91CF911F910F91FF908F
:101CE000EF90DF90CF90BF90AF900895C091090121
:101CF000C12ED12CCC0DDD2DD11DCE01880F991F09
:101D0000C80FD91FC15CDC4F198218821A8234E0D7
:101D1000E32EF12CB12C8091E1018B0D83311CF16C
:101D20006A2D0E942F33892F082E000C990BC8169C
:101D3000D90691F480913D038E9DA0018F9D500D99
:101D4000112455954795559547959E0160913C0303
:101D500080913B030E94FD0AB00EF1E0EF1AF108FA
:101D6000D1F61F5FA6CF87FFDFCF90910B01890FC0
:101D7000DBCF90E0019660910B0170E00E9451333F
:101D8000A8CF1F93CF93DF938091090190910A010F
:101D900023E0829FF0011124E15CFC4F891708F4D5
:101DA00049C0D0E0C0E013E060910B0170E0CE01CB
:101DB00002960E94513320910901820F482F50E072
:101DC0002091E001022E000C330BC217D307C4F19F
:101DD00020910601022E000C330B2C173D0784F1D5
:101DE000819F90011124215C3C4F40913D03609103
:101DF0003C0380913B030E94FD0A2196C530D1052A
:101E000099F60E94F30B809105019091E001980FE3
:101E10009093E00120910601280F209306011216ED
:101E200014F494301CF0819580930501DF91CF91DB
:101E30001F9108951182108212828F5F3396AECF68
:101E4000FA01EE0FFF1FE40FF51FE15CFC4F11825A
:101E500010821282D2CF8F929F92AF92BF92CF9276
:101E6000DF92EF92FF920F931F93CF93DF93EC01DA
:101E70004C81042F10E09801D8010E9495339B01FA
:101E8000AC010E94AB334B015C01E0E2F0E0E01BEF
:101E9000F10BA5E5B0E0AC019B010E94AB336B01F7
:101EA0007C019F01DF010E948D339B01AC010E94E8
:101EB000B6339B01AC01280D391D4A1D5B1DC701BE
:101EC000B6010E946533F22E822F90E039E23F1571
:101ED00060F143E0249F9001112435952795122F3E
:101EE000109500E085E5E82EEF1880910B010817AA
:101EF00058F10E94F30B9C8181E0992319F09032F4
:101F000019F48FEF8093040180910401890F8C8371
:101F1000DF91CF911F910F91FF90EF90DF90CF90C5
:101F2000BF90AF909F908F90089525E530E0B90164
:101F3000681B790B9B01220F331F260F371F37FFBA
:101F4000CCCF2F5F3F4FC9CF8E2D00FD8F2D20911D
:101F50000901622F600F7727771F9B01220F331F24
:101F6000260F371F215C3C4F412F60913C030E949C
:101F7000FD0A0F5FBACF0F931F93CF93DF93EC014E
:101F800010E000E090910B019017110609F06CF43D
:101F90000E94F30B8C8190E00196817099278C83CD
:101FA000DF91CF911F910F91089520910901A80110
:101FB000420F511D9A01220F331F240F351F215C40
:101FC0003C4F4C8160913C0380913B039695901768
:101FD000110651F04CF0442349F040913D030E941A
:101FE000FD0A0F5F1F4FCECF4423B9F340E0F7CF78
:101FF0008F929F92AF92BF92CF92DF92EF92FF9219
:102000000F931F93CF93DF93FC01B280948081E004
:10201000848300E015E05BE4A52E88248394EE24FD
:10202000EA94F12C7BE4C72ED12C80910B01081788
:1020300070F0DF91CF911F910F91FF90EF90DF90A3
:10204000CF90BF90AF909F908F900C94F30BC02FC8
:10205000D0E01C9FF0011D9FF00D1124EE51FE4FAA
:1020600091101CC01382128220910901CE01820FAF
:10207000911D9C01220F331F280F391F215C3C4FFB
:102080001C9FF0011D9FF00D1124EE51FE4F428167
:10209000618180810E94FD0A0F5FC7CF23812223C7
:1020A00079F12150238334818A2D821B311101C0A3
:1020B000822F1C9FF0011D9FF00D1124EE51FE4F49
:1020C00090913D03899FC0011124B6010E943D33C8
:1020D0006283211104C0332311F01482A38222E011
:1020E0002B1510F21C9FF0011D9FF00D1124EE51D5
:1020F000FE4F80913B03808380913C038183B4CF6A
:102100000E940A34823091400CF0AECF82E08B15F1
:1021100030F50E940A34B7010E9451331C9FF00130
:102120001D9FF00D1124EE51FE4F808322E02B15F0
:10213000C8F40E940A3420913C032695622F70E077
:102140000E945133280F1C9FF0011D9FF00D112498
:10215000EE51FE4F21831282A382848285CF80912B
:102160003B03DCCF20913C03EECF60913A036695B0
:1021700070E04BE050E08CE091E00E941A34892B33
:1021800019F481E0809344020E94B32490933D02AD
:1021900080933C028091F20280FF08C082E493E0C9
:1021A0009F938F930E940D060F900F9008951092A9
:1021B00044028091F20280FF08C089E293E09F937D
:1021C0008F930E940D060F900F90089590913A03FF
:1021D00090FF54C0917081113BC0926090933A037C
:1021E0006623E9F160913A0370913B0380913C03CF
:1021F00090913D030E941E0B8091F20280FF0FC060
:1022000080913A0386951F928F9382E994E09F9381
:102210008F930E940D060F900F900F900F9060917A
:102220003A03669570E04BE050E08CE091E00E944C
:102230001A34892B01F10E94D71081E080933F026C
:1022400040913D0360913C0380913B030C94070E49
:102250008B3210F09465C2CF880F982BBFCF80913E
:10226000F20280FFDCCF80913A0386951F928F9314
:1022700084E794E0CCCF0E94B510DFCF0895682F9B
:1022800090913A03969581E0890F8B3208F081E0B6
:102290000C94E61081E00C943F11682F90913A0362
:1022A00096958FEF890F09F48AE20C94E61081E08D
:1022B0000C944D1161E00C94E61080913A0381601A
:1022C00080933A038091F20280FF0DC01F9281E05B
:1022D0008F9386E094E09F938F930E940D060F905A
:1022E0000F900F900F9080913A0386950C945A119D
:1022F00060E00C94E61080914202811160C08091F0
:10230000F20280FF14C085E395E09F938F930E94B3
:102310000D068091F2020F900F9080FF08C08FE1B0
:1023200095E09F938F930E940D060F900F900E944F
:102330009822811110C08091F20280FF08C087EFBF
:1023400094E09F938F930E940D060F900F900E9430
:1023500045230E94300B0E941A0B60933A0370933E
:102360003B0380933C0390933D036E7FC1F48091C7
:10237000F20280FF08C08EEA94E09F938F930E9440
:102380000D060F900F900E94300B0E941A0B609365
:102390003A0370933B0380933C0390933D030E9468
:1023A0000B0B0E943F0B1092440280913A0380FF76
:1023B00003C086950E94781181E0809342020895BF
:1023C00080913A038E7F80933A0360913A03709133
:1023D0003B0380913C0390913D030E941E0B809132
:1023E000F20280FF0FC080913A0381701F928F9399
:1023F0008EEC93E09F938F930E940D060F900F90A9
:102400000F900F900E94D7102FEF80E792E021509D
:1024100080409040E1F700C000000C94F30B8091E5
:10242000F20280FF10C080913A03809581701F9264
:102430008F938DE394E09F938F930E940D060F90EE
:102440000F900F900F9080913A0380FD0C94E01153
:102450000C945D110F931F93CF93DF9380914402EF
:10246000882309F49DC080914302E0913A03E695E8
:10247000E81BE0933E028230C9F5F0E0E85EF94FD8
:10248000E491CE2FD0E008E41CE080913F02882345
:1024900089F010923F020E94B3249E01209530954E
:1024A000820F931F90933D0280933C021092410251
:1024B0001092400280913C0290913D020E94BF2404
:1024C0008C179D0708F46CC0E0913C02F0913D022E
:1024D000CE0FDF1FD0933D02C0933C028CE392E00D
:1024E000F801DF91CF911F910F910994863049F443
:1024F000F0E0EB5EF94FE491CE2FD0E00CE71CE06A
:10250000C4CF893051F4E695F0E0EE5EF94FE491E6
:10251000CE2FD0E00AE01EE0B8CF8F3051F4E69520
:10252000F0E0E15FF94FE491CE2FD0E007E41EE048
:10253000ACCF853149F4F0E0E45FF94FE491CE2F60
:10254000D0E001EC1EE0A1CFC4E3D5E00BE21FE038
:10255000883109F49ACF833239F4EAE0F6E0C59184
:10256000D4910CE81CE091CFC4EFD1E00BEB1FE05D
:10257000843209F48ACFC0EDD7E00AEF1AE0853241
:1025800009F083CF8E2F63E00E942333E92FF0E020
:10259000E95FF94FE491CE2FD0E008EF1FE075CF4F
:1025A000DF91CF911F910F910895FA01811101C020
:1025B000FB010994CF93DF93C82FD62F0E94BA0B4B
:1025C0008C1740F00E94BA0B8D1720F4DF91CF9149
:1025D0000C944A118C2FDF91CF910C945A110F93C8
:1025E0001F93CF938C01FB01C281CC2309F465C0FA
:1025F0000E94CC218272F801E35CFC45E431F105D4
:1026000038F4E057FB4C0C9487330E940F12C0E063
:102610008C2FCF911F910F91089547E551E16AE406
:1026200071E10E94D512F3CF4AE451E167E571E10F
:10263000F8CF48EC5DE06BEB7DE0F3CF4BEB5DE07A
:1026400068EC7DE0EECF46EE5DE067ED7DE0E9CF42
:1026500047ED5DE066EE7DE0E4CF44E05EE065EFEF
:102660007DE0DFCF45EF5DE064E07EE0DACF4DEE68
:102670005BE066ED7BE0D5CF46ED5BE06DEE7BE0A9
:10268000D0CF81E00E945A11C2CF65E082E00E9463
:10269000DA12BDCF68E086E0FACF6EE089E0F7CFCE
:1026A00064E18FE0F4CF67E185E1F1CF88E1EACF23
:1026B00062E289E1ECCF83E2E5CFC1E0A9CF0E94DD
:1026C0009822811102C00E9445230E94C622809355
:1026D0007503803120F08770886080937503909136
:1026E0007503892F817090FF04C0892F8695869588
:1026F00086950C94210680917503982F987F19F484
:10270000885F809375038091750381608093750362
:102710000E94CA228091F20280FF11C0809175034D
:102720008695869586951F928F9388E896E09F936D
:102730008F930E940D060F900F900F900F90809135
:1027400075038695869586950C9421068091750370
:10275000982F987F79F0885080937503887F91E057
:1027600009F490E08091750390FB80F980937503E4
:102770000E94CA228091F20280FF11C080917503ED
:102780008695869586951F928F9380E796E09F9316
:102790008F930E940D060F900F900F900F908091D5
:1027A00075038695869586950C9421068091750310
:1027B00080FD1FC0816080937503813019F489E02A
:1027C00080937503809175030E94CA228091F20262
:1027D00080FF08C088E496E09F938F930E940D06C7
:1027E0000F900F90809175038695869586950C9431
:1027F000210608958091750380FF14C08E7F809319
:1028000075030E94CA228091F20280FF08C085E30E
:1028100096E09F938F930E940D060F900F9080E09B
:102820000C9421060895CF93C0917503C1708091D7
:10283000F20280FF0CC01F92CF938AE596E09F932F
:102840008F930E940D060F900F900F900F90CC2346
:1028500019F0CF910C94FA13CF910C94D613909158
:102860007503892F8695869586958F5F8F719770F2
:10287000823080F5880F880F880F892B809375032D
:1028800080917503887F91E009F490E08091750351
:1028900090FB80F9809375030E94CA228091F20216
:1028A00080FF11C0809175038695869586951F924D
:1028B0008F9381E296E09F938F930E940D060F9075
:1028C0000F900F900F908091750386958695869551
:1028D0000C94210690937503D3CF811181E09091E0
:1028E00075039770282F220F220F220F922B90939F
:1028F0007503987F21E009F420E09091750320FB97
:1029000090F9909375030C9421060E946D148091A8
:1029100075030C94CA229C01FB018281882349F132
:102920002E3BFCE53F07C9F040F42C3BECE53E07AD
:1029300069F02D3B3C4579F00895203C9CE5390732
:1029400091F070F0213C3C4589F0089581E00E94AF
:10295000851480E0089580E0FACF0E94A613F9CF95
:102960000E947B13F6CF0E941314F3CF0E942F1402
:10297000F0CF81E00895579A4BB14F775BB1506823
:10298000EFB7F8949B01220F331F260F371F280F34
:10299000391F2817390741F4EFBF8FE594E00197FD
:1029A000F1F700C000000895DC016D91CD0178E0E1
:1029B0005BB9000000C067FF4BB9660F000000C0A4
:1029C00000C000C04BB900C07A9591F7E2CFAF923A
:1029D000BF92CF92DF92EF92FF920F931F93CF930C
:1029E000DF937C015B01C42FD22FFC0182818823FD
:1029F000F9F0409347020E94B324909346028093DB
:102A0000450280E28C0F883008F061C0C77081E019
:102A100001C0880FCA95EAF7DF91CF911F910F91FE
:102A2000FF90EF90DF90CF90BF90AF900C94CD19B6
:102A300010914702141340C08091450290914602C4
:102A40000E94BF246C01B701C5010E94BF1EC816B9
:102A5000D90690F5C0E2CD0F1D17B9F080E2810FC5
:102A6000883040F4177081E001C0880F1A95EAF7AA
:102A70000E94D419C83048F481E09D2F977001C09E
:102A8000880F9A95EAF70E94CD19802F0E94BA19F3
:102A9000C830E8F4D77081E001C0880FDA95EAF712
:102AA000DF91CF911F910F91FF90EF90DF90CF902A
:102AB000BF90AF900C94D41980E28C0F883038F41A
:102AC000C77081E001C0880FCA95EAF7E9CFDF91AE
:102AD000CF911F910F91FF90EF90DF90CF90BF901B
:102AE000AF9008950F939C01CB01243F4CE5340730
:102AF00059F1A8F4293DFCE53F0701F12A3D4CE5D9
:102B00003407D1F1283D3C4591F406E221EE41EE37
:102B100068ED7CE50E94E71480E00F910895263F60
:102B2000FCE53F07E9F0B0F0273F3C45F9F0FC0138
:102B30008281882339F110924702EFCF07E225EE18
:102B400045EE69ED7CE5E6CF06E221EE40EE64EF6E
:102B50007CE5E0CF07E225EE44EE65EF7CE5DACFD9
:102B600006E221EE42EE66EF7CE5D4CF07E225EEE9
:102B700046EE67EF7CE5CECF08E221E045EE6AED58
:102B80007CE5C8CF81E0C9CFCF93DF93EC01FB0197
:102B90008281882309F419C1C230FCE5DF07C0F146
:102BA000C6319CE5D90730F09E012B5F3C452930AA
:102BB000310570F50E94AB2290937B0380937A03DA
:102BC000C031ECE5DE0709F4CFC008F05BC0C830C7
:102BD0008CE5D80709F4B6C088F5C430ECE5DE070B
:102BE00009F4A8C0C0F4C2308CE5D80709F49CC031
:102BF00080917A038260C330DC4509F498C08091EB
:102C00007A0390917B030E94B9220E94491C80E0C4
:102C1000DF91CF91089580917A038061C630ECE511
:102C2000DE0709F484C080917A038860C730DC45F0
:102C300008F47DC080917A03806279C0CC308CE545
:102C4000D80709F489C070F480917A038C60CA3087
:102C5000ECE5DE0709F46BC008F478C080917A03D4
:102C60008E7F65C0CE308CE5D80709F479C080919D
:102C70007A038B7FCF30DC4508F459C080917A030A
:102C80008F7E55C0CC3FECE5DE0709F457C030F528
:102C9000C3318CE5D80709F46FC078F4C131ECE595
:102CA000DE0709F465C0C231DC4509F0A8CF0E94F7
:102CB000491C80917A038F773AC0C5318CE5D807DB
:102CC00009F462C008F476C080917B038160CB3F39
:102CD000DC4509F094CF80937B0391CFC115FDE5CE
:102CE000DF0709F44DC088F480917B038D7FCE3FD0
:102CF0009CE5D90781F380917B038E7FCF3FDC4534
:102D000050F380917B038360E6CFC230FDE5DF079F
:102D100009F459C008F444C080E0C330DD4509F02F
:102D20006ECF0E9447236BCF80917A03816080939E
:102D30007A0365CF80917A038460F9CF80917B0319
:102D40008260C9CF80917A038064F1CF0E94491CD0
:102D500080917A038068EBCF80917A038D7FE7CFF3
:102D600080917A03877FE3CF80917A038F7DDFCFD5
:102D700080917A038F7BDBCF80917A03837FD7CFDB
:102D800080917B038C7FA7CF80917A0382FB992768
:102D900090F921E0922790FB82F990FB83F9C7CF4D
:102DA00080917B03982F909591708E7F892B90FB5B
:102DB00081F991CF0E94491C90917A03892F97FB4A
:102DC00087F98058B4CF81E0ACCF81E021CFCF9399
:102DD000DF93EB0186319C4511F50E94CC219A814D
:102DE000992399F08A7A91E009F490E0909348024F
:102DF000811109C089E20E94A7210E94182280E067
:102E0000DF91CF91089585E3F6CF8091480281113B
:102E100004C089E20E94AE21F0CF85E3FBCF81E0C0
:102E2000EFCF90934E0280934D020895E0914D02B2
:102E3000F0914E02309721F00190F081E02D09943D
:102E400080E00895EF92FF920F931F93CF93DF934B
:102E5000EC01E0914D02F0914E02309709F446C02A
:102E600080912B01882341F080917A0387FF04C071
:102E70008881898385E088830280F381E02DCE01FB
:102E800009958091F20282FF31C080FF04C088EA78
:102E900097E00E94740510E000E082EAE82E87E0E7
:102EA000F82E8091F20280FF0EC0FE01E00FF11FAC
:102EB00080811F928F93FF92EF920E940D060F90D8
:102EC0000F900F900F900F5F1F4F0830110549F7BB
:102ED0008091F20280FF0AC080EA97E0DF91CF91F3
:102EE0001F910F91FF90EF900C947405DF91CF919B
:102EF0001F910F91FF90EF900895E0914D02F09196
:102F00004E02309739F022E0DC012C930480F581E9
:102F1000E02D0994089520914B0230914C0228171E
:102F2000390771F090934C0280934B02E0914D026F
:102F3000F0914E02309721F00680F781E02D099440
:102F400008952091490230914A022817390771F0FB
:102F500090934A0280934902E0914D02F0914E0213
:102F6000309721F00084F185E02D0994089585B70C
:102F7000806885BF85B7806885BF089508950895E6
:102F80000C94BE1708950C94C2170E94B7170E94A4
:102F9000BF170C94C01781E008950C94CB170895C7
:102FA00008950E94AA240E9491090E9416250E9459
:102FB0005F130E947B110C94C317CF93C82F80918D
:102FC000F20282FF1EC080FF1CC081EC97E00E94CD
:102FD00074058091F20280FF14C01F92CF938CEB96
:102FE00097E09F938F930E940D068091F2020F90BD
:102FF0000F900F900F9080FF04C08AEB97E00E9423
:1030000074058C2FCF910C940C07BF92CF92DF9256
:10301000EF92FF920F931F93CF93DF93CDB7DEB75D
:103020002A970FB6F894DEBF0FBECDBF0E94CF1710
:103030000E94D0170E94B6090E94CD17882309F478
:1030400061C080E5C82E82E0D82E10E000E0B02EEE
:10305000802F0E942A09E82EF601F1906F01F816E0
:1030600009F44AC08091F20281FD0E9430099F2D2F
:103070009E2580E0FF24F394292F2F21C1F18E8318
:10308000BF82EF2081E009F480E088870E94B324AA
:103090008160782F9A8789874E815F8168858A85CC
:1030A0000E94A318F801E05BFD4F8081F826F082B2
:1030B0000E942A120E9443270E94161790914F02E5
:1030C000891789F10E94161780934F022A960FB62E
:1030D000F894DEBF0FBECDBFDF91CF911F910F914E
:1030E000FF90EF90DF90CF90BF900C94DD178F5F33
:1030F000FF0C883009F0C0CF0F5F1F4F0A30110559
:1031000009F0A5CF8FEF89838A831B820E94B324A5
:103110008160782F9D838C8349815A816B818D8159
:103120000E94A318C5CF2A960FB6F894DEBF0FBE33
:10313000CDBFDF91CF911F910F91FF90EF90DF9066
:10314000CF90BF900895CF93DF93CDB7DEB72B9785
:103150000FB6F894DEBF0FBECDBF4F835887698787
:103160007A878B871E821D8285E0FE013796DE01FD
:10317000119601900D928A95E1F749815A816B81F0
:103180007C818D819E812B960FB6F894DEBF0FBE99
:10319000CDBFDF91CF910C94C21EFC018081918143
:1031A0000C947921CF93C82F882309F48BC08238DF
:1031B000C1F40E94161781FD85C089E30E94A721F2
:1031C0000E9418222FEF81EE94E021508040904021
:1031D000E1F700C0000089E30E94AE21CF910C947A
:1031E00018228338A1F40E94161780FD6BC083E576
:1031F0000E94A7210E9418222FEF81EE94E0215017
:1032000080409040E1F700C0000083E5E5CF8438BE
:10321000A1F40E94161782FD55C087E40E94A721E1
:103220000E9418222FEF81EE94E0215080409040C0
:10323000E1F700C0000087E4CFCF8CEF8C0F813A1C
:1032400090F46C2F80911701909118010E946023D7
:10325000882329F08C2F0E94AE210E9418228C2FE7
:103260000E94A721BBCF80E28C0F883048F4C77042
:1032700081E001C0880FCA95EAF70E94CF21AECF46
:10328000EBE5EC0FE33040F4F0E0E853FE4F8081D3
:1032900090E0CF910C948B17E8E5EC0FE73150F4F8
:1032A000F0E0EE0FFF1FE656FE4F80819181CF9137
:1032B0000C94A117C03F30F08C2F0E94BB25CF91FA
:1032C0000C94A626CF910895882309F452C0823821
:1032D00071F40E94161781FF4CC089E30E94A72158
:1032E0000E94182289E30E94AE210C941822833890
:1032F00059F40E94161780FF3CC083E50E94A72165
:103300000E94182283E5EFCF843859F40E941617E3
:1033100082FF2FC087E40E94A7210E94182287E421
:10332000E2CF9CEF980F913AF0F290E2980F98302C
:1033300050F4877091E001C0990F8A95EAF7892FC0
:103340000E94D521D2CF9BE5980F933020F490E0D6
:1033500080E00C948B1798E5980F973120F490E05B
:1033600080E00C94A117803F20F00E9423260C944B
:10337000A6260895CF93C82F0E94D218C93349F4C6
:103380002FEF87EE93E0215080409040E1F700C09E
:1033900000008C2FCF910C946419882321F00E9497
:1033A000CF210C9418220895882321F00E94D52162
:1033B0000C9418220895BF92CF92DF92EF92FF9261
:1033C0000F931F93CF93DF936C01D62FC72FFC0170
:1033D000058102950F70128111110E94EC210E944B
:1033E000C521E82E882391F01123D1F08C2F807F06
:1033F000803421F080E28D0F883090F082E00E94CE
:1034000063220E94C52191E0E82EE926BC2EB294E9
:103410009FE0B922EB2DF0E0EC55FB4C0C94873388
:10342000E12CF4CF0C2F0F70C07F11F00295007FBC
:103430001123A9F0002359F080E28D0F883010F09D
:10344000D11109C0802F0E94CF210E9418228D2FF8
:103450000E94D21814C0802F0E94DF21F6CF8D2F3A
:103460000E946419002359F080E28D0F883010F01B
:10347000D1112CC0802F0E94D5210E9418222B2D03
:103480002850330B2430310520F40E9416170E9477
:103490000C07EE2009F49EC10E94C12180FD9AC153
:1034A000F60112820E94BB210E944620C6010E94A2
:1034B0000B1C0E94BB21DF91CF911F910F91FF90B8
:1034C000EF90DF90CF90BF900C946720802F0E94E8
:1034D000E521D3CFFC2FFF70FF2EC07FC03219F043
:1034E000F29480EFF822DD2369F0D13049F1112305
:1034F00091F1002351F1F601858180FFA8CF8F70F3
:10350000858323C0112381F0011106C00E94FF2191
:103510008F290E94CD19B3CF0130C1F70E94FF213E
:103520008F290E940522ABCF011106C00E940E22F6
:103530008F2D0E94D419A3CF013009F4A0CFF6CF6C
:10354000112329F0063008F09ACF8F2DE2CF0530F5
:1035500008F095CFEDCF002359F3D93349F4FFEFAD
:1035600027EE33E0F15020403040E1F700C000008A
:103570008D2F0E94641983CF8C2F8695869583703A
:1035800069F0813009F07BCF8D2F9C2F9370111142
:1035900002C090E080E00E94A11771CF8D2F9C2F78
:1035A0009370111102C090E080E00E948B1767CFEA
:1035B0008D2F112329F00E94BB250E94A6265FCFE4
:1035C0000E942326FACF8C2F837009F041C011117D
:1035D00056CF4D2F429546954770440F440F0D2FFF
:1035E0000F7010E030E020E0042E04C0000F111F27
:1035F000221F331F0A94D2F760E070E0CB01D4FFA2
:103600000FC06FE070E080E090E004C0660F771FAD
:10361000881F991F4A95D2F760957095809590956F
:10362000C695C695C370602B712B822B932BC2302D
:1036300049F058F4C13019F00E94F81F20CF0E94C1
:10364000E61F1DCF0E940A201ACF0E94E41F17CF49
:103650008695112311F08C2F8170882309F40FCFE8
:103660004D2F429546954770440F440F0D2F0F7014
:1036700010E030E020E0042E04C0000F111F221FD4
:10368000331F0A94D2F760E070E0CB01D4FF0FC083
:103690006FE070E080E090E004C0660F771F881F45
:1036A000991F4A95D2F76095709580959095C6952B
:1036B000C695C370602B712B822B932BC23049F0BF
:1036C00058F4C13019F00E94BD20D9CE0E94AB2021
:1036D000D6CE0E94CF20D3CE0E942020D0CECF7055
:1036E000112329F08C2F0E9446208D2F12CF8D2F71
:1036F0000E94D4198C2F0E946720C1CED23F89F13D
:1037000060F4D03FC9F0D13F29F1112309F442C040
:1037100001119DCE8C2F8F7121C0D33F39F1D43F41
:10372000A1F7112369F1CF718C2F0E94462063E02D
:103730008C2F0E944E22A3CE112341F0053008F0B9
:103740009ECE8C2F8F710E948A2099CE063008F071
:1037500096CEF7CF8C2F8F71112369F20E944620ED
:103760008ECE8C2F8F711123C9F3C5CF112329F071
:103770008C2F8F710E94312082CE0E942C207FCE10
:1037800081E00E946322023008F479CE82E00E9438
:10379000632275CE002359F0D93309F0E9CE8FEFBB
:1037A00097EEE3E081509040E040E1F7DFCE8C2FD0
:1037B0008F71A1CF4C2F4F706D2FC6010E9414073F
:1037C0000E945C1F5CCE4C2F4F706D2FC6010E9473
:1037D000170755CEDF91CF911F910F91FF90EF907A
:1037E000DF90CF90BF9008950F931F93CF93DF93F7
:1037F000EC01688179818A810E9483218C010E9479
:10380000E1200E94E31FB801CE01DF91CF911F910B
:103810000F910C94DB19CF93DF93EC018B819C818A
:10382000892B29F08881998189238F3F59F4DF9171
:10383000CF910895CE010E94F41BCE01DF91CF916C
:103840000C947006CE010E9499068111F3CF0E945C
:10385000C521882361F38A81882349F382E0DF91BF
:10386000CF910C9463220E94EC210E94FC210E94C3
:1038700018220E944F280E94A62690E080E00E9415
:103880008B1790E080E00C94A1170E94B5210C9456
:10389000331C0E94DC210C94451CE92FE295EF704B
:1038A000E250EE3070F4F0E0EC54FB4C0C948733B3
:1038B000803F19F020F4883E20F481E00895843F91
:1038C000E1F380E00895883EC0F3813FD1F7F5CF62
:1038D00093FB882780F908950E9479210C944D1C50
:1038E000CF93DF9300D000D00F92CDB7DEB70F900B
:1038F0000F900F900F900F90DF91CF910895CF937D
:10390000DF9300D000D000D0CDB7DEB726960FB63B
:10391000F894DEBF0FBECDBFDF91CF9108951F9306
:10392000CF93DF93C0915B0216E080915C028C1311
:1039300004C0DF91CF911F910895D0E01C9FF0014A
:103940001D9FF00D1124E35AFD4F4081518162818A
:103950007381848195810E947F1C2196C770E5CF79
:1039600040918D0250918E0260918F027091900271
:1039700080919102909192020C947F1C1F93CF939F
:10398000DF9380919202807FA9F480918F02882337
:1039900089F080915B02C0915C0260918D02709110
:1039A0008E02A0919002B0919102D62FD72316E0FB
:1039B000C81304C0DF91CF911F91089590E0109734
:1039C00011F0DF3F19F401968770F2CF189F900134
:1039D000199F300D1124F901E35AFD4F418147131E
:1039E000F2CF40814613EFCF42814111ECCF4381AA
:1039F00054814A1B5B0B483C510528F78091920289
:103A00008F70806180939202F901EE59FD4F8081A1
:103A10008F70806180838DE892E00E940B1CDF91A3
:103A2000CF911F910C948F1CAF92BF92CF92DF92D7
:103A3000EF92FF920F931F93CF93DF93CDB7DEB733
:103A400061970FB6F894DEBF0FBECDBF8C0185E045
:103A5000F801DE011D9601900D928A95E1F7F801BB
:103A600040815181E2808DE8C82E82E0D82E60919D
:103A70009002709191026115710509F461C19091F4
:103A80008D0220918E02892F82238F3F09F458C125
:103A9000A380B480F0908F02F501E61BF70BFF20A6
:103AA00009F4FCC080919202382F307FE83CF10588
:103AB00008F0B2C0311179C0FE2C251323C0941335
:103AC00021C0E1101FC08F708061809392020E941C
:103AD000B01CC6010E940B1C80919202F8018583E4
:103AE0008F2D61960FB6F894DEBF0FBECDBFDF916C
:103AF000CF911F910F91FF90EF90DF90CF90BF90EB
:103B0000AF900895AB2829F0842F85238F3F09F0CB
:103B100033C180E0F82FF170DF2E80FF3CC0809130
:103B20005B0220915C0236E0821315C04D875E87F0
:103B30008D859E850E947921292F22952F70223014
:103B4000F0F0243018F59F70F1F0F8019581907F26
:103B5000D1F4D12C1EC090E0389FF001399FF00DB8
:103B60001124E35AFD4F6181651306C0608164131F
:103B700003C062816E110FC001968770D5CF9F7010
:103B800011F0882331F3805E883018F3C8010E9459
:103B90000B1CFD2CA5CFEE2009F4A2CF8091920240
:103BA000816080939202F12C9BCF251306C0941361
:103BB00004C0F801EE2009F48DC04D875E878D8525
:103BC0009E850E946C1C882319F1EE2009F18091DA
:103BD0009202803270F020918D0230918E023887EF
:103BE0002F831986BB86AA868C87CE0107960E94F2
:103BF0000B1C86E0F801ADE8B2E001900D928A95C9
:103C0000E1F70E94BE1C0E94B01CFF24F39468CF11
:103C1000C8010E940B1CF9CF311113C07A2DB98A4B
:103C2000A88A6E2D89890E94701C8DE892E00E94FE
:103C30000B1C86E0F60111928A95E9F70E94B01CF0
:103C4000B2CF25130FC094130DC0E1100BC0F801C3
:103C50008583C8010E940B1C86E0F60111928A95AB
:103C6000E9F73ECF4D875E878D859E850E946C1C4F
:103C7000882371F2EE2061F280919202803208F482
:103C8000B8CF20918D0230918E023A8329831B8216
:103C9000BD82AC828E83CE010196A9CFE83CF105AE
:103CA00008F041C0FE2CEE2009F4B2CF25132AC043
:103CB000941328C08091920280FD1BC0982F907FA2
:103CC000C1F0F8018583903F31F0982F907F905F8D
:103CD0008F70892B8583C8010E940B1C86E0F80138
:103CE000ADE8B2E001900D928A95E1F70E94B01C18
:103CF000F7CE86E0F801ADE8B2E001900D928A952A
:103D0000E1F7EECE4D875E878D859E850E946C1C07
:103D100081116FCF80919202816080939202C801DD
:103D20000E940B1CDDCE7A2DB98AA88A6E2D898956
:103D30000E94701C86E0F60111928A95E9F7D6CFB1
:103D4000EE2009F465CF4D875E878D859E850E94A4
:103D50006C1CF82E882309F45BCF86E0F801ADE8EF
:103D6000B2E001900D928A95E1F78DE892E00E9411
:103D7000CD180E94BE1CBACF81E08E25CBCE88EC38
:103D800090E008951F93CF93DF93CDB7DEB72C97C4
:103D90000FB6F894DEBF0FBECDBF4F83588769873B
:103DA0007A878B879C87CE0107960E94141D8823F3
:103DB00069F08A859B85892B39F04F815885842F3E
:103DC00085238F3F09F071C016E05FC086E0FE01D9
:103DD0003796DE01119601900D928A95E1F78A855A
:103DE0009B85892B89F38F81988589238F3F61F388
:103DF00020915C0230E0C9010196877099274091BB
:103E00005B024817190671F40E94491C10925C026B
:103E100010925B0286E0EDE8F2E0DF011D928A95E8
:103E2000E9F7D2CF96E0929FD001939FB00D112475
:103E3000A35ABD4FFE01319601900D929A95E1F77C
:103E400080935C020E948F1CBFCF819FC001112410
:103E5000835A9D4F0E94141D8823E9F0E0915B0274
:103E60001E9FF0011124E35AFD4F40815181628170
:103E70007381848195810E947F1C80915B0290E018
:103E800001968770992780935B0280915B029091E5
:103E90005C028913DACF2C960FB6F894DEBF0FBE02
:103EA000CDBFDF91CF911F91089569857A858B856C
:103EB0009C850E947F1C88CFEF92FF920F931F93E7
:103EC000CF93DF938C01892B81F0F12CEE24E394C6
:103ED000E8012196F8018491843770F4843008F069
:103EE0005FC08130B1F08230A1F1DF91CF911F919D
:103EF0000F91FF90EF900895853709F44CC008F4B6
:103F00003DC09CE7980F903780F78F770E94641927
:103F100049C00E5F1F4FFE01849190E2980F9830C8
:103F200060F48770FE2D01C0FF0F8A95EAF78F2F8E
:103F30000E94EF210E94182202C00E94D2188F2DE9
:103F4000815030F2EFE9FFE03197F1F700C0000057
:103F5000F7CF0E5F1F4FFE01849190E2980F9830CB
:103F600050F48770FE2D01C0FF0F8A95EAF78F2F5E
:103F70000E94F521DFCF0E946419E1CF0E5F1F4F31
:103F8000FE01C491C150D8F28FE99FE00197F1F78B
:103F900000C00000F7CF0E5F1F4FFE01F490CFCF9F
:103FA0000E94D2188E01CBCF08950C94D41F0E948A
:103FB000D51F6093C9027093CA028093CB0290937D
:103FC000CC020C94331C08950C94D71F0F931F93AD
:103FD0000091C9021091CA022091CB023091CC020B
:103FE000602B712B822B932B1F910F910C94D71F59
:103FF0000F931F930091C9021091CA022091CB0226
:104000003091CC0260237123822393231F910F915F
:104010000C94D71F0F931F930091C9021091CA02ED
:104020002091CB023091CC02602771278227932701
:104030001F910F910C94D71F0C94D41F0C941C202B
:104040000E941E206093C5027093C6028093C7022F
:104050009093C8020C94331C60E070E0CB010C9488
:1040600020200F931F9341E050E060E070E08A0150
:104070009B0104C0000F111F221F331F8A95D2F726
:10408000C901B8011F910F910C9420200F931F9329
:1040900041E050E060E070E004C0440F551F661F2F
:1040A000771F8A95D2F78091C5029091C602A091A0
:1040B000C702B091C8028A019B01082B192B2A2B39
:1040C0003B2BC901B8011F910F910C9420200F9335
:1040D0001F9341E050E060E070E004C0440F551FC2
:1040E000661F771F8A95D2F7CB01BA01609570954C
:1040F000809590950091C5021091C6022091C7024B
:104100003091C80260237123822393231F910F9162
:104110000C9420200F931F9341E050E060E070E08A
:1041200004C0440F551F661F771F8A95D2F78091F0
:10413000C5029091C602A091C702B091C8028A013F
:104140009B01082719272A273B27C901B8011F917E
:104150000F910C9420200F931F930091C502109192
:10416000C6022091C7023091C802602B712B822BAE
:10417000932B1F910F910C9420200F931F9300916C
:10418000C5021091C6022091C7023091C802602377
:104190007123822393231F910F910C9420200F935E
:1041A0001F930091C5021091C6022091C702309161
:1041B000C80260277127822793271F910F910C94C3
:1041C00020200895990F990F990F890F982F9770B4
:1041D00041E001C0440F9A95EAF786958695869549
:1041E00095E0899FF0011124ED56FD4F30E020E06D
:1041F00070E05191DF011197CB01022E02C096951C
:1042000087950A94E2F78170819585278423852715
:104210008C932F5F3F4F2530310559F70895990F43
:10422000990F990F890F982F977086958695869587
:1042300025E0829FF0011124ED56FD4F50E040E053
:1042400080E0219130E0092E02C0369527950A942E
:10425000E2F721703327042E01C0220F0A94EAF7F7
:10426000822B4F5F5F4F4530510559F70895BF923C
:10427000CF92DF92EF92FF920F931F93CF93DF9332
:104280008C01C090C502D090C602E090C702F090A9
:10429000C8028091C9029091CA02A091CB02B0914C
:1042A000CC02C82AD92AEA2AFB2ACFE1D0E0BC2EC8
:1042B000D701C6010C2E04C0B695A7959795879592
:1042C0000A94D2F780FD0EC0219788F7B12C8B2D70
:1042D000DF91CF911F910F91FF90EF90DF90CF90E2
:1042E000BF900895B8018C2F0E943507019761F3A4
:1042F000EECFCF93DF93EC010E943721BE01DF9117
:10430000CF910C9435071F93CF93DF93EB019091DE
:104310005A02992331F0CB01DF91CF911F910C9478
:104320007921882379F0CB010E943721182F682F3B
:10433000CE010E94E220BE01812FDF91CF911F911B
:104340000C943507CB010E940F21182FF4CF682F52
:1043500080911701909118010C940224682F80918C
:104360001701909118010C940D24809117019091E0
:1043700018010C9418248091CD028595859585951A
:1043800008958091CD02877008959091CD02977025
:1043900081E009F480E008958091F1020895909100
:1043A000F102892B8093F102089580959091F1029A
:1043B00098239093F10208951092F102089590913C
:1043C000F002892B8093F002089580959091F0027D
:1043D00098239093F00208951092F002089590911E
:1043E000EF02892B8093EF02089580959091EF0260
:1043F00098239093EF0208951092EF020895809110
:10440000CE02089508950C9402229091CE0298173E
:1044100021F08093CE020C94032208958091CE0265
:10442000882329F01092CE0280E00C940322089594
:10443000E0911701F09118018091F1028083E091E1
:104440001701F091180180819091F002892B8083EF
:10445000E0911701F091180180819091EF02892B72
:1044600080839091CE02992381F0E0911701F09121
:1044700018018081892B8083809117019091180108
:104480000E944C2381110E940E228091170190916D
:1044900018010C94221708950C944B2298E0899FE0
:1044A00090011124622B6093CD020E9446208091DE
:1044B000CD028595859585950C944C221092CD0260
:1044C00080E00C944C229091CD02809589238093BA
:1044D000CD02282F277071F4282F082E000C330BE3
:1044E0009217130639F08595859585950E9467206A
:1044F0000C945E2208959093DB018093DA01089575
:10450000829590E09C01220F331F220F331F2C7CD9
:1045100095958795959587958373282B30E0C901EC
:10452000880F991F8A7A359527952575822B0895CE
:1045300090E080E00E94353421E08C3E9E4F09F0EF
:1045400020E0822F089582E090E00C94273483E0ED
:1045500090E00C942734CF9384E090E00E942734BD
:10456000C82F81E290E00E942734982F8C2FCF91A2
:104570000895CF93C92F682F84E090E00E943B34C8
:104580006C2F81E290E0CF910C943B3486E090E078
:104590000C942734682F86E090E00C943B34AB01F8
:1045A000BC018FE090E00C944D34AB01BC0183E181
:1045B00090E00C944D3460E070E0CB010C94D52277
:1045C00060E070E0CB010E94CF220C94DB226CEE05
:1045D0007EEF90E080E00E94593460E082E090E05D
:1045E0000E943B3460E083E090E00E943B341092F4
:1045F000C9021092CA021092CB021092CC0260E063
:1046000084E090E00E943B3460E081E290E00E9410
:104610003B3460E085E090E00E943B3460E086E05F
:1046200090E00E943B346FEF87E090E00E943B34C3
:1046300040E050E0BA0188E090E00E944D3460E034
:104640008DE090E00E943B3440E050E0BA0188E108
:1046500090E00E944D3460E087E190E00E943B349E
:1046600040E050E0BA018CE190E00E944D3460E0FF
:1046700080E290E00E943B3440E050E0BA0188E1E3
:1046800090E00E944D340C94E0220C94E722682FB5
:104690008EE090E00C943B34FC01329680912B012B
:1046A000882321F080917A039EE187FF96E080E0E5
:1046B000915008F4089521912223D1F38F5FF8CF10
:1046C000662301F120912B012223F1F020917A033E
:1046D00027FF1AC0462F4695469546954E3190F4D1
:1046E000677021E030E002C0220F331F6A95E2F7C5
:1046F000840F911DFC01828190E02823392381E001
:10470000232B69F480E00895FC01329608962191EC
:10471000261721F0E817F907D1F7F4CF81E00895C3
:104720009C01FC0132969FEF80E04191461751F0C9
:104730009F3F19F4411101C0982F8F5F8630A9F770
:104740009F3F09F40895290F311D97FD3A95F9010E
:1047500062830895FC01329608962191261303C0C6
:10476000DF0111971C92E817F907B9F70895E62FB2
:10477000E695E695E695EE3170F4E80FF92FF11D18
:10478000677021E030E001C0220F6A95EAF782816C
:10479000822B828308958091F20280FF0CC01F92C9
:1047A0006F9382EF97E09F938F930E940D060F9077
:1047B0000F900F900F900895E62FE695E695E695F9
:1047C000EE3178F4E80FF92FF11D677021E030E049
:1047D00001C0220F6A95EAF720958281282322835F
:1047E00008958091F20280FF0CC01F926F9384EDB8
:1047F00097E09F938F930E940D060F900F900F905C
:104800000F90089520912B01222329F020917A0303
:1048100027FD0C94B7230C94902320912B01222385
:1048200029F020917A0327FD0C94DC230C94AA2311
:10483000FC01329680912B01882351F080917A03FC
:1048400087FF06C08EE1DF011D928A95E9F7089582
:1048500086E0F9CF089508950C942B240E942C240F
:1048600080918003843061F11092F30288E190E03E
:1048700020E40FB6F894A895809360000FBE2093B3
:10488000600080E00E94210680E00E940C070E94E8
:104890002C2483B7817F846083BF83B7816083BF0B
:1048A0007894889583B78E7F83BF0FB6F894A895C8
:1048B00080916000886180936000109260000FBE5C
:1048C00008950895CF930E942A240E94B6090E9459
:1048D0006124C0E08C2F0E942A09811105C0CF5F9E
:1048E000CA30C1F7CF91089581E0FCCF08950C94B0
:1048F00076240E94491C0E945F130E9416170E9492
:104900000C070C9477241F921FB61F9211248F93CB
:104910009F93AF93BF938091F302811113C0809155
:10492000760390917703A0917803B0917903419633
:10493000A11DB11D8093760390937703A093780314
:10494000B0937903BF91AF919F918F911F901FBE3C
:104950001F90189582E084BD93E095BD9AEF97BDB6
:1049600080936E0008952FB7F8948091760390910C
:104970007703A0917803B09179032FBF08959C012C
:104980004FB7F8948091760390917703A0917803C4
:10499000B09179034FBF821B930B089578941F92B7
:1049A0001FB61F9211248F939F93AF93BF93809153
:1049B000760390917703A0917803B09179030196E3
:1049C000A11DB11D8093760390937703A093780384
:1049D000B0937903BF91AF919F918F911F901FBEAC
:1049E0001F90189581E08093E00080E28093D800CA
:1049F0001092C9008FE19EE40197F1F700C000001A
:104A000087E090EBDC018093890390938A03A09365
:104A10008B03B0938C0388E19CE00FB6F894A895C3
:104A2000809360000FBE90936000FFCF0E94982299
:104A3000811102C00E9445230E94A3228093F202AA
:104A40000E94AB2290937B0380937A030E94A7225B
:104A5000682F70E090E080E00E94E41F6091C50242
:104A60007091C6028091C7029091C8020C941E20DA
:104A70008091FA0280FF12C060911E0185E0689F5C
:104A8000B001112475956795759567956038710526
:104A9000A8F561157105A1F1862F089581FF09C060
:104AA00060911E0185E0689FB0011124759567959E
:104AB000EDCF60911E0182FD0AC08091F90288232A
:104AC000D1F090911D0160911E01891728F085E0B9
:104AD000689FB0011124DACF869FB001112485E0D0
:104AE000869F9001879F300D1124692F70E0C901C6
:104AF0000E945133CBCF65E070E0CECF8FE70895B1
:104B000081E008958091FA0280FF0CC060911A0143
:104B100070E075956795759567956115710549F113
:104B2000862F089581FF06C060911A0170E0759587
:104B30006795F3CF60911A0182FD0BC09091F80246
:104B40009923A1F06091190180911A01961738F00C
:104B5000682F70E06038710500F38FE70895899F32
:104B6000C001112470E00E945133F4CF61E070E085
:104B7000D7CF81E00895803F31F40E943825819598
:104B80008093FE020895813F19F40E943825F8CFE2
:104B9000823F31F40E94382581958093FD0208956B
:104BA000833F19F40E943825F8CF893F29F40E94E9
:104BB00082258093FF0208958A3F21F40E94822576
:104BC0008195F7CF8B3F31F40E94822581958093A8
:104BD000000308958C3F19F40E948225F8CF843F8A
:104BE00031F48091FC0281608093FC020895853F3E
:104BF00021F48091FC028260F7CF863F21F48091FE
:104C0000FC028460F1CF873F21F48091FC02886030
:104C1000EBCF883F21F48091FC028061E5CF8D3F8E
:104C200031F48091FA0281608093FA0208958E3FF8
:104C300021F48091FA028260F7CF8F3FB9F780911B
:104C4000FA028460F1CF9091FD02803F59F4809187
:104C5000FE0287FF0DC01092FE0291110BC0109250
:104C6000F90208C0813F81F48091FE0218169CF37E
:104C7000992381F08091FF0290910003892B09F024
:104C800064C01092F8020895823F49F497FFF0CF74
:104C90001092FD028091FE028111ECCFE0CF833FA4
:104CA00019F41916ACF3E4CF2091FF02893F29F4DF
:104CB0001216F4F61092FF02DBCF8A3F19F427FF99
:104CC000D7CFF8CF209100038B3F29F427FFD0CF17
:104CD00010920003CDCF8C3F19F41216CCF3C8CF3D
:104CE000843F31F48091FC028E7F8093FC02C0CF20
:104CF000853F21F48091FC028D7FF7CF863F21F420
:104D00008091FC028B7FF1CF873F21F48091FC02E0
:104D1000877FEBCF883F21F48091FC028F7EE5CF27
:104D20008D3F31F48091FA028E7F8093FA02A0CFFA
:104D30008E3F21F48091FA028D7FF7CF8F3F09F0EB
:104D400097CF8091FA028B7FF0CF08958091F20285
:104D500083FF7EC087E398E00E9474058091FC0287
:104D60001F928F9382E398E09F938F930E940D068A
:104D700080E398E00E9474058091FD02282F082EA0
:104D8000000C330B3F938F938DE298E09F938F93AA
:104D90000E940D068BE298E00E9474058091FE024D
:104DA000282F082E000C330B3F938F9388E298E056
:104DB0009F938F930E940D0686E298E00E947405EF
:104DC0008091FF02282F082E000C330B3F938F9306
:104DD00083E298E09F938F930E940D0681E298E012
:104DE0000E94740580910003282F082E000C330BBD
:104DF0003F938F938EE198E09F938F930E940D06CF
:104E00008BE198E00E9474058091F9021F928F93C4
:104E100088E198E09F938F930E940D0686E198E0C9
:104E20000E9474058091FA021F928F9383E198E0AB
:104E30009F938F930E940D0680E198E00E94740575
:104E40008DB79EB74C960FB6F8949EBF0FBE8DBF20
:104E50000E94B3249C019091FD028091FE02982B48
:104E600021F03093F7022093F6029091FF02809197
:104E70000003982B21F03093F5022093F4028BEF7E
:104E800092E00C947D17EF92FF920F931F93CF93B4
:104E9000DF9300D000D000D0CDB7DEB786E0EBEFD7
:104EA000F2E0DE01119601900D928A95E1F7E09013
:104EB000FD02F090FE020091FF021091000310929B
:104EC000FD021092FE021092FF02109200038E2D3E
:104ED0008F2991F08091F6029091F7020E94BF24F1
:104EE000AC019091F902992309F43FC080911F0110
:104EF0008417150608F447C0802F812B91F080910C
:104F0000F4029091F5020E94BF24AC019091F80246
:104F1000992309F477C080911B018417150608F4C2
:104F20007FC08091FD029091FE02892B9091FF023B
:104F3000892B90910003892B11F00E94A62686E010
:104F4000FE013196ABEFB2E001900D928A95E1F748
:104F500026960FB6F894DEBF0FBECDBFDF91CF917E
:104F60001F910F91FF90EF900895209120018AE00A
:104F7000289F900111242417350708F0BDCF9F5FAB
:104F80009093F90202C09F3FD1F7EE2059F00E94A2
:104F900038259FEF1E140CF491E0899F802D112479
:104FA0008093FD02FF2059F00E9438259FEF1F14C7
:104FB0000CF491E0899F802D11248093FE023091A2
:104FC000FD02332309F498CF2091FE02222309F435
:104FD00093CF45EB3403C0011124992359F09093EA
:104FE000FD0245EB240390011124332339F0309363
:104FF000FE0282CF81E08093FD02F3CF81E08093B7
:10500000FE027ACF20911C018AE0289F9001112492
:105010002417350708F085CF9F5F9093F80202C0F0
:105020009F3FD1F7002359F00E9482259FEF101671
:105030000CF491E0899F802D11248093FF021123AD
:1050400059F00E9482259FEF11160CF491E0899F80
:10505000802D1124809300033091FF02332309F443
:1050600060CF20910003222309F45BCF45EB34038A
:10507000C0011124992359F09093FF0245EB2403BA
:1050800090011124332339F0309300034ACF81E09B
:105090008093FF02F3CF81E08093000342CF86E04C
:1050A000EBEFF2E0DF011D928A95E9F71092F90229
:1050B0001092F8021092FA02089580912403089544
:1050C0009FB7F894109203039FBF90918003943090
:1050D00009F048C02091E9002F703091EC00932F27
:1050E000917030FD90E8922B23E02093E90020910D
:1050F000EB0020FF34C02091EE0027FF30C020914C
:105100000103222321F02091E80025FF28C01092FE
:10511000010326E03091E80035FF14C08093F100D0
:105120008091E80085FD27C08091E80080FFFCCFDA
:105130008091E8008E778093E8009F709093E9005B
:1051400080E0089530918003343049F43091EB00D1
:1051500035FD05C0215041F481E0809301039F702B
:105160009093E9008FEF0895EFE9FFE03197F1F7B1
:1051700000C00000CFCF8FB7F89421E02093030345
:105180008FBFDBCFCF93DF9300D00F92CDB7DEB7C9
:1051900090918003943019F589837B836A8382E040
:1051A0008093E9008FEF9091E800815095FD06C053
:1051B00095ED9A95F1F700008111F5CF8091E80007
:1051C00085FF0DC050E040E063E070E0CE01019645
:1051D0000E944A2B8091E8008E778093E8000F9020
:1051E0000F900F90DF91CF910895BC0184E00C9453
:1051F000C228BC0183E00C94C2289C0182E0809309
:10520000E9009FEF8091E800915085FD06C085ED93
:105210008A95F1F700009111F5CF8091E80085FFA4
:105220000CC050E040E066E070E0C9010E944A2BEB
:105230008091E8008E778093E8000895CF93DF9304
:10524000EC0180912B018823B1F180917A0387FFD3
:1052500032C060E282E08093E9008FEF9091E80035
:10526000815095FD06C095ED9A95F1F700008111EA
:10527000F5CF8091E80085FF1BC080912B0170E085
:1052800050E040E0811104C050E040E068E070E090
:10529000CE010E944A2B8091E8008E778093E8002F
:1052A00080E2FE01A4E0B3E001900D928A95E1F75F
:1052B000DF91CF91089568E081E0CDCF8FE798E04E
:1052C0000E94740580917F03811109C00E94DA2C2D
:1052D0000E94372D8091E20084608093E20008955F
:1052E0008BE798E00E94740510927F03089587E78A
:1052F00098E00C94740583E798E00C9474058FE6AD
:1053000098E00E9474050C947924209102032F5F89
:10531000822F62E30E942333992319F02093020322
:10532000089510920203809103038823F1F0809185
:1053300080038430C1F49091E9009F702091EC00CB
:10534000822F817020FD80E8892B93E09093E90003
:105350009091EB0090FF04C09091EE0097FD08C083
:105360008F708093E9001092030308951092F1006A
:105370009091E80095FDFACF9091E80090FFF0CF72
:105380009091E8009E779093E800EACF42E061ECCC
:1053900081E00E94562C42E261EC82E00E94562C91
:1053A00042E261EC83E00C94562C809182038330BE
:1053B00009F45FC030F48130C1F1823009F49BC040
:1053C00008958A3009F487C08B3009F46DC08930A4
:1053D00009F04EC080918103813209F049C080916B
:1053E000850390918603029708F042C08091E800FF
:1053F000877F8093E8008091E80082FF35C090911C
:10540000F3008091F200029729F48091F1008B7FE4
:10541000813021F48091F100809324038091E80091
:105420008B778093E8000C948A2C80918103813AD9
:10543000F9F48091E800877F8093E80080918503EC
:1054400090918603892B61F460E284E093E070E040
:105450000E94992B8091E8008B778093E800089553
:1054600060E090E080E0F3CF809180038111C3CFB2
:10547000089580918103813AD9F7809185039091B5
:105480008603892BA9F78091E800877F8093E80045
:105490008091E80080FFFCCF80912B018093F10088
:1054A0008091E8008E77BDCF80918103813201F732
:1054B0008091850390918603892BD1F68091E80035
:1054C000877F8093E8000E948A2C809183038093D9
:1054D0002B010C94491C80918103813249F6809103
:1054E000E800877F8093E8000E948A2C80918403E3
:1054F00080932503089580918103813A09F0B8CF04
:105500008091E800877F8093E8008091E80080FF29
:10551000FCCF80912503C2CF84B7877F84BF0FB6AD
:10552000F894A89580916000886180936000109243
:1055300060000FBE80E890E00FB6F89480936100A1
:10554000909361000FBE0E94C5170E94DA2C0E9442
:10555000372D8091E20084608093E20080E698E23B
:105560000E947B2278940E94BF2F0E94D11781E273
:1055700091E00E9411178EE598E00E9474058091D9
:105580008003853039F00E9405180E94CF170E94D1
:10559000D017F5CF8AE598E00E9474050E942E246A
:1055A00080917E03882359F30E946224882339F373
:1055B0000E94342BE4CF0C94DD2A292F332723308B
:1055C000310521F168F42130310509F443C022305E
:1055D000310509F444C090E080E030E020E026C0CE
:1055E0002132310551F122323105A9F763307105BD
:1055F00090F7FB01EE0FFF1FE253FE4F2081318138
:1056000065537E4FFB01808190E010C09927813067
:10561000910581F0009729F00297E9F6E3E8F8E0B8
:1056200002C0EFEAF8E0849190E09F01FA01318333
:1056300020830895E9E9F8E0F6CF6330710558F664
:10564000660F771FFB01EC52FE4F2081318189E00C
:1056500090E0ECCF82E190E02EE039E0E7CF8BE5FF
:1056600090E023EB38E0E2CF80E189BD82E189BDA3
:1056700009B400FEFDCF8091D8008F7D8093D800C3
:105680008091E00082608093E0008091E00081FDE5
:10569000FCCF0895AF92BF92CF92DF92FF920F930B
:1056A0001F93CF93DF936C01EB018A010E94A92C19
:1056B000F82E811123C00115110539F0F801808100
:1056C0009181C81BD90BC80ED91EB12CA12C2097D3
:1056D000A9F08091E80085FD22C08091E8008E77D6
:1056E0008093E80001151105A1F0F80180819181F6
:1056F000A80EB91EB182A08285E0F82E8F2DDF9111
:10570000CF911F910F91FF90DF90CF90BF90AF90FE
:1057100008950E94A92C8823D1F2F82EEFCFF6012C
:1057200081916F018093F1002197FFEFAF1ABF0ABB
:10573000CECFFC018091870390918803861797074D
:10574000A0F06115710529F49091E8009E7790937F
:10575000E80090E06115710551F4911108C0809145
:10576000E80082FF34C080E00895BC01F2CF809150
:1057700080038823C1F18530C1F18091E80083FD69
:1057800030C08091E80082FDEACF8091E80080FF80
:10579000E1CF8091F3002091F200382F611571055F
:1057A00019F02830310558F091E02830310509F022
:1057B00090E02091E8002E772093E800CBCF8191F4
:1057C0008093F100615071092F5F3F4FE7CF8091C7
:1057D0008003882341F0853041F08091E80083FF09
:1057E000BECF81E0089582E0089583E00895FC0132
:1057F000809187039091880386179707A0F0611521
:10580000710529F48091E8008E778093E80090E09C
:105810006115710551F4911108C08091E80082FF73
:1058200035C080E00895BC01F2CF809180038823C9
:10583000C9F18530C9F18091E80083FD31C08091C4
:10584000E80082FDEACF8091E80080FFE1CF8091FF
:10585000F3002091F200382F6115710519F02830FE
:10586000310558F091E02830310509F090E0809141
:10587000E8008E778093E800CBCF84918093F1008D
:105880003196615071092F5F3F4FE6CF80918003C1
:10589000882341F0853041F08091E80083FFBDCF3F
:1058A00081E0089582E0089583E00895982F97306D
:1058B00028F08F708093E90081E008959093E900CB
:1058C000242F762F50E0981731F07091EC00209142
:1058D000ED005091F00021FD02C09F5FE8CF3091B4
:1058E000EB003E7F3093EB003091ED003D7F309335
:1058F000ED003091EB0031603093EB007093EC00E1
:105900002093ED005093F0002091EE0027FDE5CFAD
:1059100080E008958091810387FF13C08091E800A3
:1059200082FF06C08091E8008B778093E80004C076
:10593000809180038111F2CF0895809180038823A4
:10594000D9F38091E80080FFF8CF8091E8008E774E
:10595000ECCF2091E4003091E50095E6A90120917B
:10596000EC00822F817020FF06C08091E80080FF4C
:1059700006C080E008952091E80022FD1AC08091C1
:105980008003882389F0853089F08091EB0085FDC4
:105990000FC02091E4003091E50042175307F9F25F
:1059A0009150E1F684E0089582E0089583E008953F
:1059B00081E008950E94482D0E94502DE0EEF0E015
:1059C000808181608083E8EDF0E080818F77808343
:1059D00019BCA7EDB0E08C918E7F8C9380818F7E77
:1059E000808310927F0308950F931F93CF93DF93CB
:1059F0000E94482D0E94502DC8EDD0E088818F77FD
:105A0000888388818068888388818F7D888319BC9A
:105A10001092800310927C0310927E0310927D03FB
:105A200000EE10E0F80180818B7F808388818160A7
:105A3000888342E060E080E00E94562CE1EEF0E0D6
:105A400080818E7F8083E2EEF0E0808181608083C0
:105A5000808188608083F80180818E7F8083888147
:105A600080618883DF91CF911F910F910895E8EDB8
:105A7000F0E080818F7E8083E7EDF0E080818160BF
:105A8000808384E082BF81E080937F030C94F42CB8
:105A9000E8EDF0E080818E7F80831092E20008952F
:105AA0001092DA001092E10008951F920F920FB643
:105AB0000F9211242F933F934F935F936F937F9394
:105AC0008F939F93AF93BF93EF93FF938091E100E8
:105AD00082FF0BC08091E20082FF07C08091E1004D
