:100000000C9449050C9490050C9490050C94D52BF8
:100010000C9490050C9490050C9490050C9490050C
:100020000C9490050C9490050C94261C0C94E21BE7
:100030000C94F82A0C9490050C9490050C9490055F
:100040000C9490050C9490050C9490050C949005DC
:100050000C9490050C94011D0C9490050C94900543
:100060000C9490050C9490050C9490050C949005BC
:100070000C9490050C9490050C9490050C949005AC
:100080000C9490050C9490050C9490050C9490059C
:100090000C9490050C9490050C9490050C9490058C
:1000A0000C9490050C9490050C949005636F726EFF
:1000B00065008081828384A0A1A2A3A4C0C1C2C321
:1000C000C400209495962020B4B5B62020D4D5D66F
:1000D0002000209798992020B7B8B92020D7D8D9E8
:1000E0002000209A9B9C2020BABBBC2020DADBDCBD
:1000F0002000209D9E9F2020BDBEBF2020DDDEDF92
:100100002000202020202000A7A800AFB000C600BB
:10011000CA00C800A5A600ADAE008788008F900079
:10012000C500C900C700CB008586008D8E00ABAC32
:1001300000CFD000C600CA00C800A9AA00B1B20012
:100140008B8C00CDCE00C500C900C700CB00898ACA
:10015000009192000001010101010101010102026F
:100160000202020202020203030303030303030465
:100170000404040404040505050505060606060630
:10018000070707070708080808090909090A0A0AEA
:100190000B0B0B0C0C0C0D0D0D0E0E0E0F0F0F108C
:1001A0001011111112121313141415151616171716
:1001B000181819191A1A1B1B1C1D1D1E1E1F202082
:1001C000212222232424252626272829292A2B2CCC
:1001D0002D2D2E2F30313232333435363738393AEF
:1001E0003B3C3D3E3F404142434445464748494AE7
:1001F0004C4D4E4F50515354555658595A5B5D5EB5
:100200005F616264656668696B6C6D6F707273754F
:1002100077787A7B7D7E8082838587888A8C8E8FB3
:1002200091939596989A9C9EA0A2A3A5A7A9ABADE1
:10023000AFB1B3B5B7BABCBEC0C2C4C6C9CBCDCFCF
:10024000D1D4D6D8DBDDDFE2E4E7E9EBEEF0F3F57D
:10025000F8FAFDFF00AF00AE2B0014001A000800F2
:1002600015001700E00004001600070009000A004E
:1002700003571D001B0006001900050000000000C8
:10028000000029682B5D2C002A00130012000C00CE
:1002900018001C00340033000F000E000D000B008E
:1002A000D95C025737003600100011000000000032
:1002B00000002E5D2A5D287129001E001F0020000D
:1002C00021002200E000360037001E141F14350400
:1002D000E1000000F500FA002402380000000000F0
:1002E0000000E30000002C004C0027002600250041
:1002F00024002300350235004F0052005100500009
:10030000E50000004D004B004E004A0000000000D8
:100310000000E6000000280029001E021F02200243
:1003200021022202E0001E141F1431002F14301489
:10033000E1003000400041002402380000000000CD
:100340000000E30000002C002A00270226022502FC
:10035000240223023500310230022F022E002D002C
:100360003502310030002F002E022D020000000067
:100370000000E60000002800005C2D5D0000000089
:1003800000000000C35CC65CC85CCA5CCC5C0000BA
:10039000C45CC75CC95CCB5CCD5C000000000000A5
:1003A0000000E30000002C0000000000000000003E
:1003B0007F000000000000000000000080004800F6
:1003C000C55C000000000000810047000000000044
:1003D0000000E6000000280000DA0281FFD9F1DB0E
:1003E00020A4A62EAF00A0C000A1C800AED580A852
:1003F0001FD300408D14200005010980A101850351
:1004000019012AB700150126B70095017510810062
:10041000C0050C0901A101850419012AA0021501DA
:1004200026A002950175108100C005010906A101F1
:100430008505050719E029E71500250195087501CF
:1004400081020507190029EF1500250195F07501B6
:10045000810205081901290595057501910295018B
:1004600075039101C005010906A101050719E029DD
:10047000E715002501950875018102950175088130
:10048000010507190029FF150026FF0095067508CC
:10049000810005081901290595057501910295014D
:1004A00075039101C009023B00020100A0FA090492
:1004B0000000010301010009211101000122400097
:1004C0000705810308000A09040100010300000078
:1004D000092111010001226D000705820320000A95
:1004E0001201100100000008534601000100010242
:1004F0000001480343006F0072006E006500200099
:100500004B006500790062006F00610072006400BA
:1005100020005200650076002E00310020002800E7
:100520004C00650067006100630079002000530003
:1005300070006C0069007400290000001003660060
:100540006F006F007300740061006E000000040310
:1005500009040000000000003E5B4F5B3E003E6B64
:100560004F6B3E001C3E7C3E1C00183C7E3C18003D
:100570001C577D571C001C5E7F5E1C0000183C1839
:100580000000FFE7C3E7FF00001824180000FFE7A2
:10059000DBE7FF0030483A060E00262979292600BD
:1005A000407F05050700407F05253F005A3CE73C9A
:1005B0005A007F3E1C1C0800081C1C3E7F001422B1
:1005C0007F2214005F5F005F5F0006097F017F00EC
:1005D000006689956A0060606060600094A2FFA276
:1005E000940008047E04080010207E2010000808F3
:1005F0002A1C0800081C2A0808001E1010101000F1
:100600000C1E0C1E0C0030383E383000060E3E0E1C
:10061000060000000000000000005F00000000076E
:1006200000070000147F147F1400242A7F2A120080
:10063000231308646200364956205000000807035F
:100640000000001C224100000041221C00002A1C66
:100650007F1C2A0008083E08080000807030000057
:100660000808080808000000606000002010080466
:1006700002003E5149453E0000427F400000724961
:10068000494946002141494D33001814127F10009A
:100690002745454539003C4A494931004121110966
:1006A0000700364949493600464949291E000000DD
:1006B0001400000000403400000000081422410033
:1006C00014141414140000412214080002015909E2
:1006D00006003E415D594E007C1211127C007F499C
:1006E000494936003E41414122007F4141413E009F
:1006F0007F49494941007F09090901003E414151B3
:1007000073007F0808087F0000417F4100002040FF
:10071000413F01007F08142241007F4040404000DB
:100720007F021C027F007F0408107F003E41414190
:100730003E007F09090906003E4151215E007F0904
:100740001929460026494949320003017F01030067
:100750003F4040403F001F2040201F003F403840A6
:100760003F00631408146300030478040300615914
:10077000494D4300007F4141410002040810200020
:10078000004141417F00040201020400404040401A
:1007900040000003070800002054547840007F28E0
:1007A00044443800384444442800384444287F00F6
:1007B00038545454180000087E0902001824241CE0
:1007C00078007F080404780000447D400000204049
:1007D000403D00007F102844000000417F400000A1
:1007E0007C04780478007C0804047800384444448D
:1007F00038007C1824241800182424187C007C0855
:100800000404080048545454240004043F442400C1
:100810003C4040207C001C2040201C003C403040DC
:100820003C004428102844004C9090907C00446484
:10083000544C4400000836410000000077000000DE
:100840000041360800000201020402003C26232673
:100850003C000000000000000000C0E0F0F8F818C4
:1008600000C0F0FCFEFFFFFFFFFFFFFF7E00000067
:1008700000F8042252E2424242E252222222428202
:10088000020222220204F80000F80402028242223C
:100890004282020202824222122242820204F800B2
:1008A00000F8FCDEAE1EBEBEBE1EAEDEDEDEBE7ECE
:1008B000FEFEDEDEFEFCF80000F8FCFEFE7EBEDE84
:1008C000BE7EFEFE00000000000080804040202030
:1008D0001010080810102020404080808080C0C088
:1008E000E0E0F0F0F8F8F0F0E0E0C0C08080808058
:1008F0004040202010100808101020204040808028
:10090000808040C060A050B058A850B060A040C0E7
:10091000808000F8FCFEFFE000FFFFFFFFFFFF808C
:10092000FFFFFFFFFFFFFFFFFF1F070100000000A9
:10093000001F20444A47424242474A444040404008
:100940004142444440201F00001F2040414040409D
:100950004040414041414F4848484F4141201F00DD
:10096000001F3F7B75787D7D7D78757B7F7F7F7FE6
:100970007E7D7B7B7F3F1F00001F3F7F7E7F7F7FD1
:100980007F7F7E7F00000000000088885D5D3E3E26
:100990007C7CF8F87C7C3E3E5D5D88888888555577
:1009A000232347478F8F47472323555588888888B7
:1009B000D5D5E2E2C4C48888C4C4E2E2D5D588882B
:1009C00088885DD56BB66DD6ADDA6DD66BB65DD564
:1009D000888800030F1F3F3F3F3F1F1F3F3F7F7F20
:1009E0007F3F3F1F3F7F7F7F7F7C7878381C0F00E1
:1009F00004F80000F804201F00001F20FCF800008D
:100A0000F8043F1F00001F2004F80000F8FC201F1E
:100A100000001F3FFCF80000F8FC3F1F00001F3FD4
:100A2000FE7EBEDEEEDEBE7EFEFCF8007E7E7077D1
:100A30007777707E7E3F1F000000000000000000FE
:100A400000000000000000000000000001010202A0
:100A5000040408080404020201010000000001016E
:100A6000020204040808040402020101000000005C
:100A70000101030307070F0F07070303010100002C
:100A800000000101030205060D0A0506030201012B
:100A9000000011241FBECFEFDAE0DEBFCDBF04B6E9
:100AA00003FE27C08091ED079091EE07A091EF071C
:100AB000B091F0078730904BA740B04BD1F4109223
:100AC000ED071092EE071092EF071092F00714BE98
:100AD00084B7877F84BF0FB6F894A8958091600093
:100AE000886180936000109260000FBEE0E0F8E340
:100AF000099527E0A0E9B3E001C01D92AD3EB20721
:100B0000E1F713E0A0E0B1E0E4EFFEE502C00590FC
:100B10000D92A039B107D9F70E94A9270C94352F5F
:100B20000C940000E8EDF0E080818E7F80831092CD
:100B3000E2001092DA001092E100A0EEB0E08C9199
:100B400081608C9380818F77808319BCA7EDB0E0A2
:100B50008C918E7F8C9380818F7E808310927E0516
:100B600008952091E4003091E50095E6A9012091D7
:100B7000EC00822F817020FF06C08091E80080FF8A
:100B800006C080E008952091E80022FD1AC08091FF
:100B9000A305882389F0853089F08091EB0085FDDD
:100BA0000FC02091E4003091E50042175307F9F29D
:100BB0009150E1F684E0089582E0089583E008957D
:100BC00081E00895EF92FF920F931F93CF937C01E2
:100BD0008B010E94B105C82F811117C08091E800D8
:100BE00085FD0BC08091E8008E778093E8000E941D
:100BF000B105882399F3C82F08C0F70181917F01BF
:100C00008093F1000150110949F78C2FCF911F916A
:100C10000F91FF90EF9008958091A50587FF13C075
:100C20008091E80082FF06C08091E8008B77809376
:100C3000E80004C08091A3058111F2CF089580914E
:100C4000A3058823D9F38091E80080FFF8CF809135
:100C5000E8008E77ECCF982F9093E900242F762F21
:100C600050E0891731F07091EC002091ED00509127
:100C7000F00021FD07C09F5F973071F78093E90076
:100C800081E008953091EB003E7F3093EB0030918E
:100C9000ED003D7F3093ED003091EB0031603093FB
:100CA000EB007093EC002093ED005093F000209146
:100CB000EE0027FDE0CF80E00895CF92DF92EF9223
:100CC000FF920F931F93CF93DF93C8EDD0E08881FD
:100CD0008F7E8883E7EDF0E080818160808384E00F
:100CE00082BF81E080937E0588818E7F888302EEBB
:100CF00010E0F80110821092DA0081EEC82ED12C9B
:100D0000F601108288818F77888388818068888344
:100D100088818F7D888319BC1092A3051092A40549
:100D20001092A2051092A10590EEE92EF12CF70188
:100D300080818B7F808388818160888342E060E04E
:100D400080E00E942B06F60180818E7F8083F8016F
:100D5000808181608083808188608083F7018081C9
:100D60008E7F8083888180618883DF91CF911F91FE
:100D70000F91FF90EF90DF90CF900895FC0180914C
:100D8000AB059091AC0586179707A0F0611571052A
:100D900029F49091E8009E779093E80090E0611527
:100DA000710551F4911108C08091E80082FF34C0B0
:100DB00080E00895BC01F2CF8091A3058823C1F1A2
:100DC0008530C1F18091E80083FD30C08091E8005A
:100DD00082FDEACF8091E80080FFE1CF8091F300AF
:100DE0002091F200382F6115710519F02830310576
:100DF00058F091E02830310509F090E02091E800AA
:100E00002E772093E800CBCF81918093F100615041
:100E100071092F5F3F4FE7CF8091A305882341F0F1
:100E2000853041F08091E80083FFBECF81E00895D6
:100E300082E0089583E008950895809180050895E3
:100E40002FB7F89460914305709144058091450552
:100E5000909146052FBF089520919C012223C9F04F
:100E60002091360527FF15C0E62FE695E695E69515
:100E7000EE31D8F4E80FF92FF11D677021E030E072
:100E800001C0220F6A95EAF72095828128232283E8
:100E90000895FC01329608962191621303C0DF0188
:100EA00011971C92E817F907B9F7089520919C0152
:100EB0002223C1F02091360527FF14C0E62FE695C6
:100EC000E695E695EE31F8F4E80FF92FF11D67701D
:100ED00021E030E001C0220F6A95EAF78281822B7F
:100EE00082830895FC0132962FEF30E04191641720
:100EF00051F02F3F19F4411101C0232F3F5F3630CD
:100F0000A9F72F3F09F40895820F911D27FD9A95A7
:100F1000FC01628308958091FC0481111092FC040D
:100F2000089580959091FB0498239093FB04089575
:100F30008091FB049091FA04892B9091F904892BFC
:100F4000809390039091FC049923A1F0892B8093C6
:100F5000900380919C01882341F18091360587FFA1
:100F600024C08EE1E2E9F3E090E0815000F59111B8
:100F70000E948B07E0913805F09139053097E1F038
:100F800080919C01882359F08091360587FF07C026
:100F9000809190038093910385E080939003028079
:100FA000F381E02D80E993E0099486E0DBCF219185
:100FB0002223D9F29F5FD9CF0895E92FEE0FE90FD1
:100FC000EE0F8E0F982F977086958695869525E063
:100FD000829FF0011124E652FB4F50E040E080E098
:100FE000219130E0092E02C0369527950A94E2F748
:100FF00021703327042E01C0220F0A94EAF7822BB6
:101000004F5F5F4F4530510559F70895E92FEE0FB7
:10101000E90FEE0F8E0F982F977041E001C0440F3B
:101020009A95EAF786958695869595E0899FF001D1
:101030001124E652FB4F30E020E070E05191DF01D7
:101040001197CB01022E02C0969587950A94E2F77C
:10105000817081958527842385278C932F5F3F4F4F
:101060002530310559F70895282F80913205909148
:101070003305A0913405B09135050097A105B10560
:1010800049F004C0B695A795979587952A95D2F70C
:101090008170089580E008958091D9049091A8040A
:1010A000981301C008958F5F8770FACFE92FE295FA
:1010B000EF70E250EE3070F4F0E0E95CF04D0C942B
:1010C000FF2D803F19F020F4883E20F481E0089540
:1010D000843FE1F380E00895883EC0F3813FD1F77B
:1010E000F5CF93FB882780F90895882341F08095F8
:1010F0009091FA0489238093FA040C949807089538
:10110000882339F09091FA04982B9093FA040C9468
:1011100098070895882321F00E9491070C9498075E
:101120000895882339F09091FB04982B9093FB0449
:101130000C949807089520916A0430916B04281745
:10114000390771F090936B0480936A04E09138053D
:10115000F0913905309721F00084F185E02D099454
:10116000089520916804309169042817390771F0B7
:101170009093690480936804E0913805F0913905F3
:10118000309721F00680F781E02D099408951092A0
:10119000FA041092F9040E94980790E080E00E94FF
:1011A000B10890E080E00C949B0860933205709346
:1011B000330580933405909335050C94C7080F933D
:1011C0001F9341E050E060E070E004C0440F551F01
:1011D000661F771F8A95D2F7CB01BA01609570958B
:1011E000809590950091320510913305209134053A
:1011F0003091350560237123822393231F910F9132
:101200000C94D5089091F804809589238093F80474
:10121000282F277071F4282F082E000C330B9217FB
:10122000130639F08595859585950E94DF08109203
:10123000F80408950F931F9341E050E060E070E0E0
:1012400004C0440F551F661F771F8A95D2F78091FF
:10125000320590913305A0913405B09135058A018E
:101260009B01082B192B2A2B3B2BC901B8011F917D
:101270000F910C94D50881E00E943408882341F036
:1012800082E00E943408882319F083E00C941A0944
:1012900083E00C94DF086093FD047093FE04809358
:1012A000FF04909300050C94C708882341F19CEF3C
:1012B000980F913A38F4682F80E993E00E942C0748
:1012C0000C94980790E2980F983050F4877091E052
:1012D00001C0990F8A95EAF7892F0E949107F0CFF4
:1012E0009BE5980F933020F490E080E00C94B108D7
:1012F000885A873120F490E080E00C949B08089590
:10130000CF93C82F882309F467C08CEF8C0F813AE4
:10131000C0F580919C01882311F18091360587FFEB
:101320001EC0EC2FE695E695E695F0E0E057FC4F01
:10133000828190E04C2F477021E030E002C0220F04
:10134000331F4A95E2F782239323892B91F06C2F68
:1013500080E993E00E942C070E9498070AC0E2E906
:10136000F3E088E993E02191C21789F38E179F0774
:10137000D1F76C2F80E993E00E945607CF910C942F
:10138000980780E28C0F883068F4C77021E030E065
:1013900001C0220FCA95EAF78091FB04822B80934B
:1013A000FB04ECCFEBE5EC0FE33040F4F0E0E05B66
:1013B000FC4F808190E0CF910C94B108C85AC7319E
:1013C00058F4EC2FF0E0EE0FFF1FED5AFC4F808138
:1013D0009181CF910C949B08CF910895E0913805AD
:1013E000F0913905309721F00190F081E02D0994BA
:1013F00080E00895CF93DF93EC0181E0898B8091A9
:10140000FB049F81892B8093FB048091FA049885CB
:10141000892B8093FA040E949807EA81FB81309718
:1014200039F06C897D89CE010696DF91CF910994C0
:10143000DF91CF910895EF92FF920F931F93CF9377
:10144000DF93EC018A85811139C0EB80FC8087E550
:10145000F81A26E12E9DC0012F9D900D1124DC016C
:10146000A75EBE4F1496ED91FC911597309731F021
:1014700054966D917C91815E9E4F099586E18E9D7B
:1014800080018F9D100D1124075E1E4FF80187818A
:101490000E949107F8018085982F90958091FA0419
:1014A00089238093FA040E949807188219861B8664
:1014B0001E821D8210929D0410929C04DF91CF9198
:1014C0001F910F91FF90EF900895FA01811101C0D3
:1014D000FB010994E4ECF3E081836083428333965B
:1014E00094E0E636F907C1F70895FC01EE0FFF1FFF
:1014F000E80FF91FEC53FC4F61834083228308956A
:101500000C946A0A0C94750AEF92FF920F9397015C
:10151000201B31092F3F310519F010F02FEF30E07B
:10152000322F3095482F430F08F44FEF842F620F6E
:101530000F91FF90EF900895EF92FF920F93970114
:1015400095E0099F200D311D11242F3F310519F021
:1015500010F02FEF30E02095382F320F08F43FEFD6
:10156000832F0F91FF90EF900895322F50E0FA01F2
:10157000EE0FFF1FEF55FE4F91A9905297FD9195E9
:10158000440F551FFA01EF52FE4F2081231B330BEE
:10159000290F311D97FD3A95620F0895E42FF0E071
:1015A000EE0FFF1FEF52FE4F408134EE439F412D5F
:1015B0001124E72FF0E050E0445E5F4FDA01A21BF8
:1015C000B1099D01B7FF03C031952195310993E021
:1015D000220F331F9A95E1F7AF01421B530B9A017B
:1015E00057FD20E0279F212D1124722F0895AF92DF
:1015F000BF92CF92DF92FF920F931F93CF93DF930F
:10160000362F472FE82FF0E0EC5AFE4F71110FC034
:10161000E4918E2F2E2F6E2F722FDF91CF911F917D
:101620000F91FF90DF90CF90BF90AF900895C72F9C
:10163000D0E02491F22E022F10E056E0659FC00109
:101640001124EFEFF0E0BF010E94D72D832F90E02F
:10165000880F991F35E5369FD001379FB00D1124B3
:101660008A1B9B0B982F990F980F6F01CC1ADD0ADC
:10167000C09ED001C19EB00DD09EB00D11248B2F05
:10168000499FA0011124452F55276F01C41AD50A7F
:10169000C09EA001C19E500DD09E500D11245F012F
:1016A000A91AB108AC9E6001AD9ED00CBC9ED00CB6
:1016B0001124CD2CDD24EC19FD09E09FE001E19F10
:1016C000D00DF09FD00D1124ED2F62307105A1F0E7
:1016D00050F46115710509F49ECF6130710581F0F8
:1016E000EB2F852F98CF6430710569F080F066305C
:1016F000710509F490CFF4CFE22F2B2F8D2F8BCFD4
:10170000E22F252F88CFEB2F822F2D2F84CF2B2F49
:101710008F2DE52F80CF2F923F925F926F927F9215
:101720008F929F92AF92BF92CF92DF92EF92FF92F1
:101730000F931F93CF93DF9300D000D0CDB7DEB7C8
:101740001C01E0909E018BE0E89E802D112489838E
:10175000182F155F912E173310F046E3942E8090CA
:10176000C1073981232F30E03C832B83C901880FC7
:10177000991FDC01AF55BE4F6D01712C612CAB81FF
:10178000A915D0F081E0163308F080E00F900F909B
:101790000F900F90DF91CF911F910F91FF90EF90DD
:1017A000DF90CF90BF90AF909F908F907F906F9081
:1017B0005F903F902F900895EB81FC81E35CFD4F9B
:1017C000808190919F01892329F16091BD077091DB
:1017D000BE07EAEDF7E0FA83E98321ECA22E27E0C9
:1017E000B22E80E09A2D21ECE22E27E0F22E9E19F7
:1017F0009815C8F02091BF07382F329F312D112442
:10180000832F0E94F70A462F282F672F8B819C81F8
:101810000E94820A8B819C8101969C838B8392E03B
:10182000C90ED11CACCFD601D0964C91D097F50102
:101830009181491B550BD1962C919185291B330B16
:10184000449FD001459FB00DB00D1124229FF0019F
:10185000239FF00DF00D1124EA0FFB1F0E2FE23035
:10186000F10534F1E13E9EE1F9070CF036C0DF01ED
:1018700095E0B695A7959A95E1F798E09A0F5524CB
:101880005394E52CE90EFF24FF1CD701B595A795CD
:101890000A2FAA9F7001AB9FF00CF00C1124EE15DB
:1018A000FF05E8F49FEF9A0F951558F70FEF050D18
:1018B000A981BA81ED91FD91BA83A9839091C00766
:1018C0007301E99FE12CF99FE00CF11C1124F10157
:1018D0000995FFEFAF1ABF0A85CF9FEFD0CFAF3F7B
:1018E00039F3552453945A0EDFCFDF92EF92FF92D3
:1018F0000F931F93CF93DF938C01C0919E018BE0D8
:10190000C89FC02D11249BE0E92EEC0EDE2C86E34F
:101910008E1510F486E3D82E4091B8075091B90780
:101920008091C0078695869530E020E0489F212D64
:10193000589F200D311D1124F22ED0E0CD1568F0F6
:1019400081E095E39E1508F480E0DF91CF911F912F
:101950000F91FF90EF90DF900895FE01E35CFD4F43
:10196000808190919F01892391F06091BD077091D2
:10197000BE078091BF072F2D4C2FF80109950E94BB
:10198000F70A462F282F672FCE010E94820A219640
:10199000D5CF9091360592FF06C0282F28712830A8
:1019A000F9F4877F846093FF06C0282F28712831BF
:1019B000F1F4877E84612091370520FF06C0382F1F
:1019C00038713830D9F4877F816021FF06C0282F15
:1019D00028712831D1F4877E816194FD877E089536
:1019E000282F24712430F9F68B7F8860DCCF282FD4
:1019F0002471243101F78B7E8861DDCF382F31715E
:101A0000313019F78E7F8860E0CF282F2171213186
:101A100021F78E7E8861E1CFCF93DF93972F70E01F
:101A200026E0929F600D711D1124FB0130E3839F1E
:101A3000E00DF11D1124EE0FFF1FE85AFD4FC59177
:101A4000D491CE01C238D105B9F1E8F5C133D10541
:101A500009F499C050F5C932D10509F48DC0CA32D4
:101A6000D10509F497C0C11542E5D40708F0B6C006
:101A7000C11521E5D20708F024C1C83ED10508F000
:101A80009DC0C03ED10568F5C83AD10508F089C0AF
:101A9000C53AD10508F0EDC0C130D10511F120974C
:101AA00009F443C02497E8F440C0C533D10509F4D4
:101AB0005CC0C933D105B9F620913605237089F091
:101AC00080EE90E00EC0C33ED10591F168F4C03EB7
:101AD000D105F9F0C23ED10531F62091360522FD3F
:101AE00020C0DF91CF910895C63ED10561F1C73E78
:101AF000D10581F1C43ED10509F0B5CF209137055C
:101B000021FFEFCF8091360584FD0FC087EE90E076
:101B1000E8CF2091360520FD01C13091370530FF17
:101B2000E0CF83EE90E024FFDCCF90E080E0D9CFDF
:101B30002091360522FDF5C03091370530FDC0CF2C
:101B400024FFCFCFF2CF2091360523FFCACF24FD4B
:101B5000ECCFDCCF2091360523FDE6C03091370570
:101B600031FFEECF84EE90E0BCCF2091360525FF0B
:101B7000B8CF89E290E0B5CF2091360525FFB1CFEF
:101B800085E390E0AECF2091360526FFAACF8AE20A
:101B900090E0A7CF2091360526FFA3CF81E390E008
:101BA000A0CFCF3BD10508F6C85AD0E0CC0FDD1F3F
:101BB000CD5ADC4F88819981946493CFC11530E56B
:101BC000D30708F062C0C11540E4D40708F059C03B
:101BD000DA95C115DF4108F484CFA7CFC11536E5EA
:101BE000D30718F5C11545E5D40708F080C0C11525
:101BF00084E5D80708F076C09C2F96959695AE019F
:101C000043705527C115D34508F460C021E030E08A
:101C100002C0220F331F4A95E2F740E2949FC001B1
:101C20001124822B932B9A685CCFC1153AE5D30718
:101C300078F4C11549E5D40708F063C0C11588E5FB
:101C4000D80708F472CF9C2F8827806F906A49CFFD
:101C5000CE0190568115904208F067CF8D2F8F717D
:101C60000E94C90C90E0982F882788279F718C2BA1
:101C700046C0C55AD0E0C05BDC4F888190E09064DC
:101C800030CFCE019F70906A2CCF9E01E4E0369554
:101C90002795EA95E1F723708C2F869586958370BA
:101CA00030E2839FC0011124922BC37021E030E009
:101CB00002C0220F331FCA95E2F7822B932B9C6838
:101CC00010CF9C2F8827816F906A0BCF21E030E0E6
:101CD00002C0220F331F4A95E2F740E2949FC001F1
:101CE0001124EBCF9C2F8827846F906AFACE8C2F1B
:101CF0000E94C90C90E0982F882788279F719062D6
:101D0000F0CE8C2F8F700E94C90C34E0D695C79509
:101D10003A95E1F7CF709C2F9069E3CE89E390E08C
:101D2000E0CE82EE90E0DDCE86EE90E0DACEBF929D
:101D3000CF92DF92EF92FF920F931F93CF93DF9397
:101D40008C01C0903205D0903305E0903405F090BE
:101D500035058091FD049091FE04A091FF04B0919F
:101D60000005C82AD92AEA2AFB2ACFE1D0E0BC2EF6
:101D7000D701C6010C2E04C0B695A79597958795F7
:101D80000A94D2F780FD0EC0219788F7B12C8B2DD5
:101D9000DF91CF911F910F91FF90EF90DF90CF9047
:101DA000BF900895B8018C2F0E940C0D019761F32C
:101DB000EECFCF93DF93EC010E94970EBE01DF912F
:101DC000CF910C940C0D0E94D90E0C945608CF9311
:101DD000DF939C013A9521153F4168F5EC01CC2732
:101DE000D170DC01AA27B270AC01442754709C0169
:101DF0002227387094FF11C080E1CD2B09F480E0D8
:101E0000AB2B09F08062452B09F08064232B09F08D
:101E10008068FB01DF91CF91099481E0CD2B09F41B
:101E200080E0AB2B09F08260452B09F08460232B06
:101E300081F38860EECFDF91CF910895CF93DF9348
:101E4000EC010E945509CE01805E9109089720F0AF
:101E500065E778E0209711F46AE878E0CE01DF9139
:101E6000CF910C94E70EFC018081813029F4FB01B5
:101E7000808191810C941E0F823021F4FB018281BC
:101E80009381F8CF0895CF93DF93EC01805E9109A1
:101E9000089720F060E878E0209711F461E978E095
:101EA000CE010E94E70E8C2FDF91CF910C94800918
:101EB000FC018081813029F4FB01808191810C94A7
:101EC000430F823021F4FB0182819381F8CF089582
:101ED000CF93DF93EC018881823039F4FB0182815A
:101EE00093810E94430F81E08B87DF91CF9108950A
:101EF000CF93DF93A8E4B3E04CE453E0C1E0D0E03B
:101F00008D91E82FE295EF70F0E061A18F709E0156
:101F100001C0220F8A95EAF7922F9095962391A3FC
:101F200082A1822B82A34A175B0751F7DF91CF91E1
:101F300008951092FB0480919C01E2E9F3E088236C
:101F400059F08091360587FF07C08EE1DF011D92B1
:101F50008A95E9F70C94C70886E0F8CF1F93CF93D2
:101F6000DF93CDB7DEB7AA970FB6F894DEBF0FBEEA
:101F7000CDBF85EA95E02091F100FC012193CF01CE
:101F8000F5E08D3A9F07B9F78091A605833009F4F3
:101F90006FC0B8F4813009F446C0823009F4B0C093
:101FA0008091E80083FF7BC28091A5059091A605F2
:101FB0009A3008F074C2E92FF0E0EB5BF04D0C941E
:101FC000FF2D8A3009F48BC08B3009F46EC0893044
:101FD00039F78091A505813219F78091A905909173
:101FE000AA050297E8F68091E800877F8093E800D1
:101FF0008091E80082FF37C09091F3008091F20059
:10200000029729F48091F1008B7F813021F4809137
:10201000F100809380058091E8008B778093E80041
:102020000E940C06BDCF8091A505813A09F0B8CF7A
:102030008091E800877F8093E8008091A9059091C6
:10204000AA05892B61F460E281E895E070E00E94C6
:10205000BE068091E8008B778093E800A1CF60E016
:1020600090E080E0F3CF8091A3058111C1CF98CF9C
:102070008091A505813A09F093CF8091A9059091AF
:10208000AA05892B09F08CCF8091E800877F809387
:10209000E8008091E80080FFFCCF80919C01809354
:1020A000F1008091E8008E77B9CF8091A50581324B
:1020B00009F076CF8091A9059091AA05892B09F0A6
:1020C0006FCF8091E800877F8093E8000E940C0624
:1020D0008091A70580939C010E94990F61CF809108
:1020E000A505813209F05CCF8091E800877F80935D
:1020F000E8000E940C068091A80580937F0550CFD0
:102100008091A505813A09F04BCF8091E800877F47
:102110008093E8008091E80080FFFCCF80917F05EC
:10212000BECF803899F0823809F0B9C18091A905F5
:102130008F70873008F0B3C18093E9008091EB0085
:1021400085FB882780F91092E90006C08091A105DF
:102150009091A205911182609091E800977F9093F1
:10216000E8008093F1001092F1008091E8008E77F2
:1021700092C1882309F480C1823009F090C1809116
:10218000A705811183C18091A9058F702FEF280FBA
:10219000263008F084C18093E9002091EB0020FFF5
:1021A00075C1933031F48091EB0080628093EB0035
:1021B0006DC19091EB0090619093EB0021E030E0D5
:1021C00001C0220F8A95EAF72093EA001092EA00F4
:1021D0008091EB008860EACF811161C11091A70561
:1021E0001F778091E3008078812B8093E3008091BA
:1021F000E800877F8093E8000E940C068091E80049
:1022000080FFFCCF8091E30080688093E30082E050
:10221000111183E08093A30542C18058823008F0F9
:102220003EC18091A7059091A8058C3D23E09207BF
:10223000A1F583E08A838AE289834FB7F894DE01AF
:10224000139620E03EE051E2E32FF0E05093570078
:10225000E49120FF03C0E295EF703F5FEF708E2F97
:1022600090E0EA30C0F0C7968D939D932F5F2431A4
:1022700059F74FBF8091E800877F8093E8006AE2BA
:1022800070E0CE0101960E94BE068091E8008B7737
:102290008093E80004C1C096E7CF4091A905509112
:1022A000AA05292F33272330310509F444C078F5D6
:1022B0002130310509F46FC08BE390E0E5EAF4E0EA
:1022C0002230310509F0EBC02091E800277F2093F0
:1022D000E8002091AB053091AC058217930708F414
:1022E0009C0140E02115310509F064C0411162C034
:1022F0008091E80082FDC9CF8091A305882329F24F
:10230000853019F28091E80083FFF2CFBECF2132F1
:102310003105A9F12232310509F0C1C0411551053D
:1023200009F443C04130510509F0B9C08DE690E091
:10233000E8EFF3E0C9CF992781309105C1F000970C
:1023400059F0029709F0ABC0E2EFF4E0E4918E2F70
:1023500090E0E2EFF4E007C0EEE4F5E0E4918E2FC8
:1023600090E0EEE4F5E0009709F499C0ADCFECE31E
:10237000F5E0E4918E2F90E0ECE3F5E0F4CF411529
:10238000510571F04130510509F089C089E090E0B4
:10239000E0EDF4E099CF82E190E0E0EEF4E094CF5C
:1023A00089E090E0E7EBF4E08FCF80E490E0E5E6B1
:1023B000F4E08ACF8091A305882309F466CF8530A5
:1023C00009F463CF8091E80083FD5FCF8091E8003E
:1023D00082FD8ECF8091E80080FF84CF9091F30042
:1023E0008091F2002115310519F08830910550F0E7
:1023F00041E0089709F040E08091E8008E778093F3
:10240000E80070CF44914093F1003196215031099A
:102410000196E8CF803809F042C08091E800877FBC
:102420008093E8008091A4058093F1009ECE8111F5
:1024300036C01091A705123090F58091E800877F93
:102440008093E8001093A4050E940C06112311F05C
:1024500084E005C08091E30087FDFACF81E080939E
:10246000A30542E061EC81E00E942B0642E261ECB0
:1024700082E00E942B0613C08091A705813079F479
:1024800081E0933009F080E08093A2051092E9008A
:102490008091E800877F8093E8000E940C0680917D
:1024A000E80083FF0AC08091E800877F8093E800FE
:1024B0008091EB0080628093EB00AA960FB6F894AF
:1024C000DEBF0FBECDBFDF91CF911F910895CF9397
:1024D000DF93C091B607D091B7078A30C1F420913D
:1024E000AD05CE01805B9540622F70E00E94D72D34
:1024F000281B822F66E00E94CB2DC82FC15018F4F4
:10250000DF91CF91089580E20E946712F7CF8D305E
:10251000E9F4C05BD5402091AD05622F70E0CE019B
:102520000E94D72D281B822F9E01280F311D2115B7
:10253000324018F080E0D0E0C0E0C80FD11DC05597
:10254000DA4FD093B707C093B607DACF96E0FE0113
:10255000A0EBB7E001900D929A95E1F7803E08F468
:1025600058C086E0FE0111928A95E9F7C091B6073E
:10257000D091B70746E050E0BE0180EB97E00E94A3
:102580006A2E9E01205B3540892B41F1C90145E04F
:10259000969587954A95E1F741E050E0BA0102C06F
:1025A000660F771F8A95E2F7CB016091AE057091B7
:1025B000AF05862B972BB9016B5F7F4FE5E07695D2
:1025C0006795EA95E1F702C0440F551F6A95E2F757
:1025D000842B952B9093AF058093AE052A5F3F4FD8
:1025E0004091AD05642F70E0C9010E94D72D481BB2
:1025F000463010F4240F311D211572E0370710F01A
:1026000030E020E020553A4F3093B7072093B607CB
:1026100077CFF6E08F9FB00111246E5A7A4F46E0D3
:1026200050E0CE010E94612EA1CFCF93DF93EC0149
:10263000FE018491811103C0DF91CF9108950E9422
:1026400067122196F5CFCF93DF9382EB90E00E9443
:1026500015138CEA90E00E94151382E091E00E942D
:10266000151383E00E9434088823A9F182EF90E0DB
:102670000E94151382E091E00E941513C091FC04A2
:102680008091FB04C82BDC2FD878C474DD23B1F112
:102690008BE291E00E94151384E291E0CC23B1F12A
:1026A00086E291E00E9415138DE191E0C11102C014
:1026B0008AE191E00E941513DD2371F187E191E039
:1026C0000E94151382E191E00E941513C1112EC0E2
:1026D00088E091E02DC081E00E943408882319F041
:1026E00082EE90E0C5CF82E00E943408882319F082
:1026F00082ED90E0BDCF82EC90E0BACF88E291E02D
:102700000E941513C11105C080E291E00E941513CB
:10271000CFCF82E291E0C6CF84E191E00E94151311
:10272000CC2389F180E191E00E9415138BE091E0C8
:102730000E941513C091FC048091FB04C82BDC2F70
:10274000D171C272DD2321F181E591E00E94151360
:102750008AE491E0CC2321F18CE491E00E941513EE
:1027600083E491E00E941513DD2311F18DE391E0E4
:102770000E94151388E391E00E941513C11122C035
:102780008EE291E021C08EE091E00E941513A0CF6F
:102790008EE491E00E941513C11107C086E491E018
:1027A0000E94151380E491E0DDCF88E491E0D6CF5C
:1027B0008AE391E00E941513CC2351F086E391E067
:1027C0000E94151381E391E0DF91CF910C941513D2
:1027D00084E391E00E941513D3CFCF92DF92EF9262
:1027E000FF920F931F93CF93DF936C017B0164E6FD
:1027F00070E088E70E94E82CEC0197FD12C010E021
:1028000000E0F601E00FF11F849164E670E00E94A1
:10281000442DEC01892B29F40F5F1F4F0E151F0566
:1028200081F70E94C72DCE01DF91CF911F910F91AB
:10283000FF90EF90DF90CF900895809172058823EC
:1028400069F062E070E086E592E00E94ED13892B6A
:1028500019F08091720508951092720580917205A9
:1028600091E0892708950E942007605A75418F4F93
:102870009F4F60936E0570936F05809370059093E2
:10288000710580917205811108C062E070E084E5F5
:1028900092E00E94ED13892B19F080917205089542
:1028A00081E080937205F9CFCF9384E090E00E949D
:1028B000902EC82F81E290E00E94902E982F8C2FAE
:1028C000CF910895CF93DF9300D00F92CDB7DEB7AD
:1028D0009091A305943019F589837B836A8382E004
:1028E0008093E9008FEF9091E800815095FD06C03C
:1028F00095ED9A95F1F700008111F5CF8091E800F0
:1029000085FF0DC050E040E063E070E0CE0101962D
:102910000E94E2058091E8008E778093E8000F9096
:102920000F900F90DF91CF910895BC0184E00C943B
:102930006214BC0183E00C946214CF93DF93EC012A
:1029400080919C018823B1F18091360587FF32C0C8
:1029500060E282E08093E9008FEF9091E80081507F
:1029600095FD06C095ED9A95F1F700008111F5CF20
:102970008091E80085FF1BC080919C0170E050E0D1
:1029800040E0811104C050E040E068E070E0CE011A
:102990000E94E2058091E8008E778093E80080E253
:1029A000FE01A1E8B5E001900D928A95E1F7DF9173
:1029B000CF91089568E081E0CDCFCF93C82F0E94DA
:1029C0008009C93349F42FEF87EE93E0215080400E
:1029D0009040E1F700C000008C2FCF910C94550976
:1029E000539A3BB1377F2BB128604FB7F89484ECF2
:1029F00093E0FC015191CF0168E02BB9000000C0C9
:102A000057FF3BB9550F000000C000C000C03BB9E4
:102A100000C06A9591F7F4E086369F0751F74FBFE3
:102A20008FE594E00197F1F700C0000008958091D0
:102A3000BE03811111C08091D80080618093D800BD
:102A40008AE18A95F1F700C09091D900892F8170B1
:102A500090FF82E08093BE0381E09091BE039130AD
:102A600009F080E008958F929F92AF92BF92CF922B
:102A7000DF92EF92FF920F931F93CF93DF9380919A
:102A80008A01C4E0D0E0882311F0D0E0C0E088E4FF
:102A9000C82E83E0D82EAE01465D5A4F7A018A01D6
:102AA000912CAA24A394B12C25E0822EF6018191C9
:102AB0006F01E82FE295EF70F0E021A18F70A50182
:102AC00002C0440F551F8A95E2F7CA01922F982B36
:102AD00091A392A18095892382A350EA5A95F1F798
:102AE000E1E8F3E020E050E040E03191A32FA2952F
:102AF000AF70B0E090968C9190E03F7002C09595D9
:102B000087953A95E2F780FD3CC0C501042E01C0CF
:102B1000880F0A94EAF7282B4F5F5F4F4630510524
:102B200021F7F8018081821729F020838092140117
:102B3000992493940E94780F0F5F1F4FFCE4CF16E7
:102B4000F3E0DF0609F0B2CF80911401882359F039
:102B50008150809314018823B1F08FE99FE00197A1
:102B6000F1F700C00000892DDF91CF911F910F91E7
:102B7000FF90EF90DF90CF90BF90AF909F908F909D
:102B8000089580E0C8CFC55CDA4F84E0F7019191E9
:102B90007F0199938150D1F7E6CF6CEE7EEF90E004
:102BA00080E00E94CC2E60E082E090E00E94AE2E99
:102BB00060E083E090E00E94AE2E1092FD0410923F
:102BC000FE041092FF041092000560E084E090E0A3
:102BD0000E94AE2E60E081E290E00E94AE2E60E0A6
:102BE00085E090E00E94AE2E60E086E090E00E94DA
:102BF000AE2E6FEF87E090E00E94AE2E40E050E0F6
:102C0000BA0188E090E00E94C02E60E08DE090E084
:102C10000E94AE2E40E050E0BA0188E190E00E94B0
:102C2000C02E60E087E190E00E94AE2E40E050E0D0
:102C3000BA018CE190E00E94C02E60E080E290E05A
:102C40000E94AE2E40E050E0BA0188E190E00E9480
:102C5000C02E40E050E0BA018FE090E00E94C02E0C
:102C600040E050E0BA0183E190E00C94C02EDF9286
:102C7000EF92FF920F931F93CF93DF938C01FC0190
:102C8000E35CFD4F8081682381F1D090BE07D09135
:102C9000BF07C091BD07EC2EF12C0E94512E282FAA
:102CA000C7018C549F4F68E671E00E94EB2D8E198E
:102CB0009F0997FD03969595879595958795237020
:102CC0006C2F289F600D11247D2D8D2F0E94F70AF7
:102CD000462F282F672FC801DF91CF911F910F91A9
:102CE000FF90EF90DF900C94820ADF91CF911F91BB
:102CF0000F91FF90EF90DF9008954F925F926F9247
:102D00007F928F929F92AF92BF92CF92DF92EF927B
:102D1000FF920F931F93CF93DF9380917101C0E0D7
:102D2000D6E18F3F09F098C0C090BF03D090C00398
:102D3000E090C103F090C2038FB7F8944090430530
:102D40005090440560904505709046058FBF530133
:102D500042018C189D08AE08BF080E9420076093AE
:102D6000BF037093C0038093C1039093C203A091EB
:102D70000105E1E0F5E02A2F30E04FEFC40ED41E4C
:102D8000E11CF11CC418D508E608F708A31370C0AD
:102D9000209301053091BC07132F137019F0132FE6
:102DA0001695169520919D01213009F48BC02223A0
:102DB00009F471C0223009F451C3233009F458C317
:102DC000DF91CF911F910F91FF90EF90DF90CF9007
:102DD000BF90AF909F908F907F906F905F904F903B
:102DE0000895D29FF001D39FF00D1124E75EFE4FAE
:102DF000428953894115510511F444E650E0D29FB0
:102E0000F001D39FF00D1124E75EFE4F86818823E9
:102E100011F1258536856FB7F8948091430590911F
:102E20004405A0914505B09146056FBF821B930BE9
:102E30004817590780F4CD9F8001112481898111A1
:102E400005C0C801875E9E4F0E94FA09C801815ED5
:102E50009E4F0E941B0ACF5F2C2F30E080917101A2
:102E6000082E000C990B821793070CF0BACF5CCF99
:102E7000418D528D2A01712C612CC414D504E604B5
:102E8000F70420F421503F5F329680CF480D591D42
:102E9000528F418FF8CF10929E016093B8077093C4
:102EA000B9078093BA079093BB0789E2E1E0F5E0A8
:102EB000A1ECB7E001900D928A95E1F781E0809353
:102EC0009D017ECF90911801C1E019130AC0832F94
:102ED00083702091170130E0C1E08217130609F4D6
:102EE000C0E0C170C093A0011B3040F4E12FF0E0BE
:102EF000E15BF04D0C94FF2DC11102C0C0E0E4C0B5
:102F000040E060E080E00E94800AF8CFC0919E011E
:102F10008BE0C89FC02D11240BE00C0FF02E07335F
:102F200010F0D6E3FD2E6091BD077091BE07809131
:102F3000BF070E94F70AE62ED72EC82ED0E0CF1585
:102F400028F0C1E0063308F4BFC0D8CFFE01E35C2F
:102F5000FD4F808190919F01892331F02C2D4E2DC2
:102F60006D2DCE010E94820A2196E9CFC0919E016B
:102F70008BE0C89FC02D11240BE00C0FF02E0733FF
:102F800010F0B6E3FB2ED090BE07E090BF07D091C3
:102F9000BD076D2F7D2D8E2D0E94F70AC62EB72EF0
:102FA000A82E6091C0076D0F7D2D8E2D0E94F70A0F
:102FB000E62ED72E982ED0E0CF1518F6FE01E35C52
:102FC000FD4F908180919F01892359F0292D4E2D2D
:102FD0006D2D90FD03C02A2D4C2D6B2DCE010E942E
:102FE000820A2196E9CFC0919E018BE0C89FC02D37
:102FF00011240BE00C0FE02E073310F0A6E3EA2EAD
:10300000D090BE07C090BF072091C007F0E4FF2E0C
:103010003F2D329F312D1124F32ED0E0CE1508F034
:1030200090CFFE01E35CFD4F808190919F01892349
:10303000D9F0FE01EE0FFF1FEF55FE4F60A9F69E7F
:10304000B0011124E5E075956795EA95E1F7809167
:10305000BD07680F7D2D8C2D0E94F70A462F282F63
:10306000672FCE010E94820A2196D8CF8EEC9AE07B
:103070000E94750CC82F28C085EB9AE0F9CFC111CA
:1030800093C02091C00730E1230F08F42FEF409147
:10309000B8075091B90790E080E0429F812D529F80
:1030A000800D911D11246AE070E00E94D72D892BBC
:1030B00009F024CF0E94512E66E370E00E94EB2DB0
:1030C00060919F010E94371680919E018F5F8093CF
:1030D0009E01C1110CC082E080939D018091A001EE
:1030E000811105C0111103C083E080939D014091BF
:1030F0003205509133056091340570913505CB014F
:10310000AA27BB270097A105B10509F487C1AC0127
:10311000BD0180E1052F162F272F3327011511053B
:103120002105310519F0885FB901A8018A019B01C9
:10313000F4E03695279517950795FA95D1F701157F
:1031400011052105310519F08C5FB901A8018A012B
:103150009B01E2E03695279517950795EA95D1F7FB
:10316000011511052105310519F08E5FB901A8017E
:103170007695679557954795452B462B472B09F034
:103180008F5F813009F44CC1823009F056C1D0E024
:10319000C0E020E040E06FEFCE010E94820A21965D
:1031A000C633D105B1F70CCEC0919E018BE0C89F0C
:1031B000C02D11240BE00C0F802F073308F086E39D
:1031C000D0E0E82EF12CCE15DF050CF0BACE6091E0
:1031D0009F01CE010E9437162196F5CFD0919E0116
:1031E0008BE0D89FD02D11245BE0752E7D0E072D2E
:1031F00080E3871508F400E3CC2361F040E060E051
:1032000080E00E94800AECE6F4E080E3DF011D929A
:103210008A95E9F7CD2FD0E0C02ED12C36E0632E71
:103220004AEA542ECC15DD0534F0C1E0BFE2B715F3
:1032300008F04ACF63CE4E01B7E08B2299245E019D
:1032400023E0B594A7942A95E1F7689CC001699C96
:10325000900D1124FC01E459FB4FEA0DFB1D008188
:103260008F559E4FFC01EA0DFB1D80818F3F51F170
:10327000E82EF12CF701E35CFD4F808190919F01D6
:10328000892301F1302F25E5321B08F430E07091DD
:10329000BE07252D200F08F42FEF4091BF07822F86
:1032A000880F820F8E5F282F249F212D1124822FBB
:1032B000652D631B0E94F70A462F282F672FC70131
:1032C0000E94820A31E0031B08F400E0689CC00100
:1032D000699C900D112484599B4FA80EB91ED501ED
:1032E0000C9321969FCFCC2371F040E060E080E00A
:1032F0000E94800AECE6F4E080E3DF011D928A95EB
:10330000E9F71092C303D0E0C0E077247A9400ED8F
:10331000A02EB12C80EC682E9FE2892E912C7E018C
:1033200000E09E0124593B4F69018091C303802B2B
:10333000A9F50E94512E8535954084F5F6017082DD
:10334000F701EF55FE4FE081EF3FB1F0D701A459EF
:10335000BB4F2C91F0E0213D50F1205D330B629E7C
:10336000C001639E900D1124B4010E94D72D262F19
:103370004FEFCF010E94820A0F5FF6E0EF0EF11CC3
:10338000083099F62196C630D10549F68091C303DD
:103390008F5F8D31B0F48093C303B0CDF701E45952
:1033A000FB4F808181508E3F58F68083C9CF279D87
:1033B000C0011124B5010E94D72D462F20E060E006
:1033C000D8CF1092C30320E934E087E062E774E0CD
:1033D0009EEFACE6B4E0F901873041F49A964C9147
:1033E0009A974F3F19F49A969C939A9740814F3F32
:1033F00011F490834683119631966A177B0761F723
:103400008150265031098111E4CF78CD8CE99AE0C2
:103410000E948B0B2FCE84E89AE0FACF80E07ACE20
:10342000D0E0C0E02FEF40E060E0CE010E94820AD1
:103430002196C633D105B1F7C3CC0E94EE0981FFB6
:10344000BFCCD0E0C0E020E04FEF60E0CE010E94B2
:10345000820A2196C633D105B1F7B2CC1093180178
:10346000832F8370809317010E94F01483E027CD8F
:103470004091B8075091B9076091BA077091BB07A6
:103480002FB7F8948091430590914405A09145058C
:10349000B09146052FBF841B950BA60BB70B409729
:1034A000A105B10508F48CCC10929D0189CC45E0B2
:1034B00050E06CE170E08CEB97E00C949E2E9091C4
:1034C000BC07937089F0811107C094609093BC078A
:1034D00010929D010C94571A8B3010F09862F6CF21
:1034E000880F880F982BF2CF08958091BC0786959E
:1034F0008695815009F48AE00C945F1A8091BC078C
:10350000869586958F5F8B3008F081E00C945F1A6A
:103510009091BC07937059F08093BD076093BE07EC
:10352000473908F046E94093BF070C94571A0895AD
:10353000ECEBF7E0438128E0421B08F440E0818196
:10354000628190E00C94881AECEBF7E0438128E06C
:10355000420F08F44FEF8181628190E00C94881A49
:10356000ECEBF7E0628128E0621B08F460E0818107
:10357000438190E00C94881AECEBF7E0628128E03C
:10358000620F08F46FEF8181438190E00C94881AF8
:10359000ECEBF7E08181438162818850990B0C94B8
:1035A000881AECEBF7E0818190E043816281089614
:1035B0000C94881AECEBF7E024813AE0230F08F42E
:1035C0002FEF24830C94571AECEBF7E024813AE0B8
:1035D000231B08F420E024830C94571AECEBF7E04B
:1035E00085E080838091730290917402A0917502AE
:1035F00081839283A3838FE784830C94571ACF929D
:10360000DF92FF920F931F93CF93DF938091470533
:10361000882309F49AC00E943315F82E80918A01FC
:10362000C4E0D0E0882311F0D0E0C0E0C55CDA4F00
:1036300044E050E0BE018AEB93E00E946A2E6C01E8
:1036400088819981AA81BB818093BA039093BB033F
:10365000A093BC03B093BD0380918A01D0E0C0E089
:10366000882311F0C4E0D0E09091160180911501FB
:1036700010E000E0981759F082E090E00E94642C7E
:103680008C01892B21F48091150180931601809182
:10369000B2039091B303C82AD92A90E080E0CD28E4
:1036A00011F081E090E00E94642C892B31F580912B
:1036B000B503809315011092B3031092B203011564
:1036C000110511F10230110509F428985D988091D7
:1036D000B4038F5F8093B403863040F180918A01F8
:1036E000F0E0E0E0882311F0E4E0F0E0E55CFA4F80
:1036F000108211821282138219C081E090E09093AF
:10370000B3038093B203DBCF289AC55CDA4F809174
:10371000B6039091B703A091B803B091B903888321
:103720009983AA83BB835D9A1092B4030E947D168D
:10373000C1E0F11001C0C0E08C2FDF91CF911F914B
:103740000F91FF90DF90CF9008950E9433159091D4
:103750008A01E4E0F0E0992311F0F0E0E0E0E55CBC
:10376000FA4F40E030E020E0D901AA54BC4F5C9110
:103770009191591341E09C932F5F3F4F24303105C5
:1037800099F79091B503940F9093B503C1E081111F
:1037900001C0C0E080918A01811102C030E020E0C8
:1037A000255C3A4F8091BA039091BB03A091BC0372
:1037B000B091BD03F90180839183A283B3830E94FA
:1037C0007D16BACF1F920F920FB60F9211242F932E
:1037D0003F934F935F936F937F938F939F93AF9399
:1037E000BF93CF93DF93EF93FF93D091E900DF7006
:1037F0008091EC00C82FC17080FDC0E81092E900F4
:103800008091F000877F8093F00078940E94AE0F43
:103810001092E9008091F00088608093F000CD2B39
:10382000CF70C093E900FF91EF91DF91CF91BF91ED
:10383000AF919F918F917F916F915F914F913F9148
:103840002F910F900FBE0F901F9018951F920F92FF
:103850000FB60F9211242F933F934F935F936F9363
:103860007F938F939F93AF93BF93EF93FF93809139
:10387000E10082FF09C08091E20082FF05C08091D3
:10388000E1008B7F8093E1008091DA0080FF24C00B
:103890008091D80080FF20C08091DA008E7F8093D5
:1038A000DA008091D90080FF9FC080E189BD82E16C
:1038B00089BD09B400FEFDCF81E08093A30580910E
:1038C0007E05811109C00E9492050E945D068091CB
:1038D000E20084608093E2008091E10080FF17C0E5
:1038E0008091E20080FF13C08091E2008E7F809380
:1038F000E2008091E20080618093E2008091D80034
:1039000080628093D80019BC85E08093A3058091E4
:10391000E10084FF2DC08091E20084FF29C080E196
:1039200089BD82E189BD89B5982F917080FFFBCF59
:103930008091D8008F7D8093D8008091E1008F7EA8
:103940008093E1008091E2008F7E8093E20080917D
:10395000E20081608093E2008091A405882309F44D
:1039600049C084E08093A3050E94990F0E94EE094C
:103970008091E10083FF27C08091E20083FF23C094
:103980008091E100877F8093E10082E08093A3052E
:103990001092A4058091E1008E7F8093E1008091D8
:1039A000E2008E7F8093E2008091E200806180934C
:1039B000E20042E060E080E00E942B068091F0008F
:1039C00088608093F000FF91EF91BF91AF919F913C
:1039D0008F917F916F915F914F913F912F910F90B8
:1039E0000FBE0F901F90189519BC1092A30510924E
:1039F0007E0572CF8091E30087FD93E09093A3054D
:103A0000B3CF78941F921FB61F9211248F939F9368
:103A1000AF93BF938091430590914405A0914505D4
:103A2000B09146050196A11DB11D80934305909369
:103A30004405A0934505B0934605BF91AF919F9172
:103A40008F911F901FBE1F9018952FB7F8948091EB
:103A5000430590914405A0914505B09146052FBFBF
:103A600008950F93CF93DF93C42FD22FFC0182814F
:103A7000882399F040939E040E94251D909367042B
:103A800080936604C77081E001C0880FCA95EAF789
:103A9000DF91CF910F910C94910880919E04841333
:103AA00040C020916604309167049FB7F89440911C
:103AB00043055091440560914505709146059FBFAF
:103AC000421B530B4436510560F5C0E2CD0F8D17F4
:103AD000C1F090E2980F983048F4877091E001C0EF
:103AE000990F8A95EAF7892F0E948A08C83048F40E
:103AF00081E09D2F977001C0880F9A95EAF70E9488
:103B00009108802F0E94DD14C83090F4D77081E0B6
:103B100001C0880FDA95EAF7DF91CF910F910C94ED
:103B20008A08C77081E001C0880FCA95EAF7F4CF10
:103B3000DF91CF910F9108954F925F926F927F9294
:103B40008F929F92AF92BF92CF92DF92EF92FF92AD
:103B50000F931F93CF93DF9300D000D00F92CDB778
:103B6000DEB77C01DC0113968D919C911497892B13
:103B700041F01C911196CC90812F8C218F3F09F040
:103B80004EC70F900F900F900F900F90DF91CF9135
:103B90001F910F91FF90EF90DF90CF90BF90AF906B
:103BA0009F908F907F906F905F904F9008950E94AC
:103BB000970E082F682F89819A810E940608E12FAD
:103BC000F0E0B6E0CB9EE00DF11D112420E3029F52
:103BD000E00DF11D1124EE0FFF1FE85AFD4F059176
:103BE0001491D70112968C91882361F18091710113
:103BF0008F3FB1F089E1A82E81E0B82E912C812C65
:103C0000CC24C39480917101082E000C990B881567
:103C100099050CF0D4C0D70112968C91882391F0AD
:103C2000F70181812081F6E08F9FC00111248F551B
:103C30009E4F820F911DDC01DC90BFEFCC24C3941A
:103C4000DB1201C0C12C70900105AC2CB12CC50158
:103C5000870D911D09976CF188E090E04C018A185E
:103C60009B08B5016E5F7A4FA40182E095E00E9447
:103C7000772EB501665F7A4FA4018AE095E00E9435
:103C8000772EA401440F551FB501660F771F665E9E
:103C90007A4F8AE195E00E94772EB5016E5E7A4FE9
:103CA000A40182E195E00E94772E8FEF870D80932B
:103CB00001058091010590E02D2D30E0D901AA0F7A
:103CC000BB1FBD016F527E4F9D012E523E4F41E002
:103CD000480F9C1508F49DC0809301058091BC0796
:103CE0008C7F8C3109F0E2C0F70171812081992429
:103CF0009A94970EF1E0F70F88248A94820EE1E0FF
:103D0000E20FA72EB12C821688F446E04A9DC0012E
:103D10004B9D900D112484599B4F880D911DDC0102
:103D20004C9150E1450F08F44FEF4C93422F50E077
:103D300066E06A9DC0016B9D900D112484599B4FD4
:103D40005C01A40EB51ED5016C91B0E23B2F630F50
:103D500008F46FEFD5016C93E63058F48E0F911D87
:103D6000DC016C91B0E13B2F630F08F46FEFDC01D5
:103D70006C93F83008F462C0692D70E0821608F484
:103D800051C126E0269FC001279F900D1124845920
:103D90009B4FDC01A40FB51F2C9130E1230F08F4D9
:103DA0002FEF2C93E63008F081C0E80FF92FF11DBA
:103DB00020813DE0230F08F42FEF208377C0F50129
:103DC00086818823F9F0818592858017910739F4DF
:103DD00080919C0490919D048017910799F0D501E2
:103DE0001F96CC921F971C961C930E931B9751966F
:103DF0008C91811103C0C5010E94FA09C501069684
:103E00000E941B0ABFEF8B1A9B0AE6E1AE0EB11CA3
:103E1000F9CE90E0FC01EF5FFA4FDB015C9151833A
:103E2000D9015C915187D18A880F991FFC01EF5FFE
:103E3000FA4F128E118E91E0842F49CFCF2ED12CC4
:103E4000821690F466E06C9DC0016D9D900D11246A
:103E500084599B4F880D911DDC016C91FDE03F2F33
:103E6000630F08F46FEF6C9366E06C9DC0016D9D6D
:103E7000900D112484599B4F6C01C40ED51ED601A0
:103E80006C91F0E13F2F630F08F46FEF6C93E63015
:103E900050F48E0F911DDC016C91FDE03F2F630FFC
:103EA00008F46FEF6C93971608F466CFF7018281E0
:103EB000882351F00E9420076093480570934905BC
:103EC00080934A0590934B050C32FDE51F0709F4DA
:103ED00007C108F0B9C00A323DE5130709F4C8C0AC
:103EE0000B328DE5180709F4F2C0C80197558F3FD2
:103EF000910511F008F027C120917101022E000CEC
:103F0000330B2817390714F480937101D7011296E7
:103F10002C91129736E1389F5001399FB00C112433
:103F2000F501E75EFE4F6F01208B12969C91868112
:103F3000992309F4FBC0128701878F5F86830E9453
:103F4000251DD6011E969C938E931D978091FC048F
:103F500017968C9317978091FA049091FB04892B04
:103F600018968C931897ED91FC911197309739F032
:103F700054966D917C91C501815E9E4F0995109379
:103F80009D0400939C04D70112969C91992309F4F7
:103F900059C510929E040230BCE51B0708F4F7C116
:103FA0000631ECE51E0738F098012B5F3C452930BF
:103FB000310508F0ECC10E945414909337058093AA
:103FC00036050031FCE51F0709F4B0C108F041C116
:103FD00008303CE5130709F49BC108F010C1043018
:103FE0009CE5190709F48CC108F0F6C00230BCE565
:103FF0001B0709F47FC180913605826003301C45A0
:1040000009F47BC1609136051091370584E090E09A
:104010000E94AE2E612F81E290E00E94AE2E0E949F
:10402000990F33C026E0269FC001279F900D1124D1
:1040300084599B4FDC01A80DB11D2C913DE0230F4D
:1040400008F42FEF2C939DCE0D329DE5190709F44E
:1040500057C00E32ADE51A0709F047CFD7011296C7
:104060008C91882309F448C086EE0E9480090DC017
:10407000F7018281882321F081E00E941A0903C0A0
:1040800081E00E94DF080E943B098091F80487705C
:1040900009F477CDF7018281882309F472CD82E09B
:1040A0000F900F900F900F900F90DF91CF911F9175
:1040B0000F91FF90EF90DF90CF90BF90AF909F90C7
:1040C0008F907F906F905F904F900C940209D70172
:1040D00012968C91882311F082E0CFCF82E0D1CF6D
:1040E000F7018281882321F083E00E941A09CDCF55
:1040F00083E00E94DF08C9CF86EE0E945509C5CF34
:10410000F7018281882309F4F0CE0E94EE1A809193
:10411000BC07837011F410929D018091BC078C7FC5
:1041200081608093BC070E94571ADFCE882309F470
:104130002ACF8189882309F426CFC501815E9E4F4D
:104140000E941B0A20CF043FFCE51F0769F1B0F471
:10415000093D3CE5130711F10A3D8CE51807B1F163
:10416000083D9CE5190709F00ECF06E221EE41EE6D
:1041700068ED7CE5C7010E94311D87CF063FACE5A5
:104180001A07F1F0B8F0073FECE51E0709F0FBCE87
:1041900007E225EE46EE67EF7CE5ECCF07E225EE81
:1041A00045EE69ED7CE5E6CF06E221EE40EE64EFF8
:1041B0007CE5E0CF07E225EE44EE65EF7CE5DACF63
:1041C00006E221EE42EE66EF7CE5D4CF08E221E084
:1041D00045EE6AED7CE5CECF8091360580610630F4
:1041E000FCE51F0709F489C0809136058860073017
:1041F0001C4508F482C08091360580627EC08091A3
:1042000036058D7F0C303CE5130709F476C070F459
:10421000809136058C600A309CE5190709F46DC061
:1042200008F47AC0809136058E7F67C0809136058C
:10423000877F0E30BCE51B0709F45FC0809136050F
:104240008B7F0F301C4508F458C0809136058F7E57
:1042500054C00C3FFCE51F0709F456C030F503318C
:104260003CE5130709F46AC078F401319CE51907AD
:1042700009F460C002311C4509F0C4CE0E94990FB8
:10428000809136058F7739C00531BCE51B0709F4ED
:104290005DC008F471C08091370581600B3F1C45FB
:1042A00009F0B0CE80933705ADCE01152DE512078C
:1042B00009F448C070F40E3F8CE5180799F180911D
:1042C00037058E7F0F3F1C4568F38091370583606B
:1042D000E9CF0230ADE51A0709F457C008F442C02F
:1042E00060E003301D4509F08DCE8EE090E00E9425
:1042F000AE2E88CE8091360581608093360582CEC1
:10430000809136058460F9CF809137058260CACFED
:10431000809136058064F1CF0E94990F8091360517
:104320008068EBCF809137058D7FBCCF80913605BB
:104330008F7DE3CF809136058F7BDFCF809136056F
:10434000837FDBCF809137058C7FACCF80913605A2
:1043500082FB992790F921E0922790FB82F990FB4C
:1043600083F9CBCF80913705982F909591708E7FF0
:10437000892B90FB81F996CF0E94990F9091360579
:10438000892F97FB87F98058B8CF61E0AECF809135
:10439000FB040631FCE51F0709F062C38A7A91E04D
:1043A00009F490E090939F0469E2811165E380E94C
:1043B00093E00E9456070E94980767CE8091BC0741
:1043C00091E089278093BC0710929D010E94571AA3
:1043D0005CCE45E75AE16EE77AE10E94650A55CE68
:1043E0004EE75AE165E77AE1F8CF48EC5AE161ED32
:1043F0007AE1F3CF41ED5AE168EC7AE1EECF40EBA0
:104400005AE16CEB7AE1E9CF4CEB5AE160EB7AE1EF
:10441000E4CF48E95AE164EA7AE1DFCF44EA5AE1BD
:1044200068E97AE1DACF44EE5AE16AED7AE1D5CF74
:104430004AED5AE164EE7AE1D0CF81E00E945F1A42
:1044400024CE01152CE5120709F448C00F3D1C4588
:1044500009F460C0D7010D911C91992309F45DC046
:10446000C8010E94970ED82E682FC8010E94060826
:10447000B8018D2D0E940C0D182F092F882EF701E1
:10448000C580C2946FE0C622D280D1101092FA0487
:104490008091F804877099F0DD2089F0802F807F6B
:1044A000803421F080E2810F883048F082E00E9461
:1044B00002098091F8048770BB24B3948111B12C58
:1044C000A02EA2945FE0A522FBE0FA1508F45EC0DE
:1044D000EA2DF0E0E65AF04D0C94FF2D0E94990F62
:1044E0008FEF94E3ACE081509040A040E1F700C032
:1044F000000087E797E7909301088093000888E120
:104500009AE00FB6F894A895809360000FBE909340
:104510006000FFCF0E94CD15B8CDC8010E94DD0715
:10452000D82EA6CF202F2F70922E802F807F19F0AB
:10453000929440EF9422DD20C9F0992069F080E246
:10454000810F883010F081100BC08091FB04982AF5
:104550009092FB040E949807812F0E94800916C048
:104560008091FA04982A9092FA04F4CF812F0E9445
:104570005509992059F080E2810F883010F08110A0
:104580004EC0892D0E9491070E949807EA2DE8509D
:10459000FF0B349710F40E94EE09812F902F0E9498
:1045A000560881112AC21092A1041092A004BB20C7
:1045B000B1F08091F80480FD12C0D70112961C92D0
:1045C0008595859585950E941A09C7010E949C1DB5
:1045D0008091F8048595859585950E94DF0885E092
:1045E000F701DE01119601900D928A95E1F789811C
:1045F0009A810E94DD079A81E981F0E0B6E09B9FF5
:10460000E00DF11D112420E3829FE00DF11D112426
:10461000EE0FFF1FE85AFD4F85919491B2CA909416
:104620008091FA0498229092FA04AECF302F3F7016
:10463000932E802F807F803219F0929430EF932256
:10464000882041F081E0881631F1DD2089F1CC200D
:1046500041F182CFDD2091F09091FC04892D892BCE
:10466000C11003C00E94910891CFA1E0CA12FACFF5
:10467000981709F48BCF8093FC0488CFC11006C033
:104680000E948B07892D0E948A0880CFB1E0CB164B
:1046900009F47CCFF5CFDD2031F0E5E0EC1508F42E
:1046A00075CF892DDFCFF4E0FC1508F46FCFEACF8A
:1046B000CC2041F329E3622E861009C02FEF37EE9C
:1046C00083E0215030408040E1F700C00000812F9E
:1046D0000E9455095BCF802F86958695837069F07F
:1046E000813009F053CF812F902F9370D11002C0E9
:1046F00090E080E00E949B0849CF812F902F93701B
:10470000D11002C090E080E00E94B1083FCF802F1E
:10471000837009F067C0D11039CF212F22952695DB
:104720002770220F220F412F4F7050E070E060E0A1
:10473000022E04C0440F551F661F771F0A94D2F73C
:1047400080E090E0DC0114FF0FC08FE090E0A0E07B
:10475000B0E004C0880F991FAA1FBB1F2A95D2F78B
:1047600080959095A095B095202F2695269523703D
:10477000223029F1D8F44090FD045090FE0460905E
:10478000FF0470900005213069F0842B952BA62B37
:10479000B72BBC01CD0164217521862197210E9490
:1047A0004B09F4CE44295529662977293A014B0152
:1047B000682A792A8A2A9B2AC401B301F0CF842B64
:1047C000952BA62BB72B4090FD045090FE046090D3
:1047D000FF0470900005BC01CD0164257525862578
:1047E0009725DDCF8695DD2011F0802F81708823FD
:1047F00009F4CCCE212F229526952770220F220F67
:10480000412F4F7050E070E060E0022E04C0440F72
:10481000551F661F771F0A94D2F780E090E0DC01F5
:1048200014FF0FC08FE090E0A0E0B0E004C0880F5C
:10483000991FAA1FBB1F2A95D2F780959095A09526
:10484000B095202F269526952370223029F1D8F493
:1048500040903205509033056090340570903505D6
:10486000213069F0842B952BA62BB72BBC01CD01F1
:1048700064217521862197210E94D50887CE44297D
:104880005529662977293A014B01682A792A8A2A0B
:104890009B2AC401B301F0CF842B952BA62BB72BF9
:1048A0004090320550903305609034057090350586
:1048B000BC01CD016425752586259725DDCF202FE8
:1048C0002F70922EDD2029F0822F0E941A09812F4D
:1048D000C9CE812F0E948A08892D0E94DF0856CEFA
:1048E000812F32EF831609F454C0381578F090EF19
:1048F000891629F1A1EF8A1609F443C0DD2009F4D5
:104900006CC0C11029CE802F8F7140C0B3EF8B16C1
:1049100009F444C0E4EF8E12F1CFDD2009F452C057
:10492000202F2F71922E822F0E941A0938E0939E19
:10493000C001112483608093F804892D27C0DD20F5
:10494000D1F0F4E0FC1508F421CE202F2F7161E0A6
:1049500070E080E090E004C0660F771F881F991F09
:104960002A95D2F740903205509033056090340577
:10497000709035059FCF95E0692E6C1408F406CE33
:10498000E4CF802F8F71DD2009F4A7CF0E941A0990
:10499000FDCD802F8F71DD20C9F39FCF60E070E0E7
:1049A000CB01DD2009F468CF202F2F7161E070E08A
:1049B00080E090E004C0660F771F881F991F2A953A
:1049C000D2F75ACF81E00E94020981E08C1508F0ED
:1049D000DDCD82E00E940209D9CDCC2059F0893387
:1049E00009F075CE9FEFA7EEB3E09150A040B04024
:1049F000E1F76BCE802F8F7170CFDD2019F0C110E1
:104A0000D2CDD5CDC110CFCD8091A0049091A1047D
:104A1000029709F0C8CD812F0E94DD14C4CD85E036
:104A2000F701DE01119601900D928A95E1F7D70109
:104A300012962C9189819A812111B9C80E94DD07B3
:104A4000082FBDC806311C4509F004CD80919F0494
:104A500069E2811165E380E993E00E942C07ABCC09
:104A60008272F801E35CFC45E431F10508F0E9CC21
:104A7000EA59F04D0C94FF2D1F93CF93DF93809153
:104A8000A704807FA9F48091A404882389F08091F1
:104A9000D904D091A8046091A2047091A304A091BC
:104AA000A504B091A604C62FC72316E0D81304C0EE
:104AB000DF91CF911F91089590E0109711F0CF3FB3
:104AC00019F401968770F2CF189F9001199F300D4D
:104AD0001124F901E755FB4F41814713F2CF408183
:104AE0004613EFCF42814111ECCF438154814A1BE1
:104AF0005B0B4436510528F78091A7048F708061C5
:104B00008093A704F901E255FB4F80818F7080618B
:104B1000808382EA94E00E949C1DDF91CF911F91D7
:104B20000C944C08AF92BF92CF92DF92EF92FF921B
:104B30000F931F93CF93DF93CDB7DEB761970FB677
:104B4000F894DEBF0FBECDBF8C0185E0F801DE0119
:104B50001D9601900D928A95E1F7F801808191816F
:104B6000E28022EAA22E24E0B22E6091A504709188
:104B7000A6046115710509F42BC13091A20440917E
:104B8000A304232F24232F3F09F422C1C380D48000
:104B9000F090A404F601E61BF70BFF2009F4FBC01C
:104BA0002091A704522F507FE436F10508F0BBC0D6
:104BB000511178C0FE2C491321C038131FC0E110D9
:104BC0001DC02F7020612093A704C5010E949C1D69
:104BD0008091A704F80185838F2D61960FB6F89414
:104BE000DEBF0FBECDBFDF91CF911F910F91FF9020
:104BF000EF90DF90CF90BF90AF900895CD2829F02F
:104C0000282F29232F3F09F001C120E0F22FF17056
:104C1000DF2E20FF3DC02091D9044091A80456E02A
:104C2000241315C08D879E878D859E850E94D90E81
:104C3000292F22952F702230F8F0243020F59F7014
:104C4000F9F0F8019581907FD9F4D12C1FC030E0A4
:104C5000529FF001539FF00D1124E755FB4F6181E6
:104C6000961306C06081861303C06281E61210C0ED
:104C70002F5F3F4F2770D4CF9F7011F0882329F307
:104C8000805E883010F3C8010E949C1DFD2CA4CFCB
:104C9000EE2009F4A1CF8091A70481608093A7043E
:104CA000F12C9ACF491312C0381310C0E1100EC076
:104CB000F8012583C8010E949C1D86E0F801A2EA44
:104CC000B4E001900D928A95E1F786CF8D879E879B
:104CD0008D859E850E94E30E882309F1EE20F9F070
:104CE0008091A704803270F02091A2043091A30437
:104CF00038872F831986DB86CA868C87CE01079674
:104D00000E949C1D86E0F801A2EAB4E001900D9299
:104D10008A95E1F70E943C25FF24F3945DCFC801FA
:104D20000E949C1DF9CF51110AC082EA94E00E94B2
:104D30009C1D86E0F50111928A95E9F7B1CF4913E0
:104D40000FC038130DC0E1100BC0F8012583C80156
:104D50000E949C1D86E0F50111928A95E9F73CCFEF
:104D60008D879E878D859E850E94E30E8823B9F2EC
:104D7000EE20A9F28091A704803220F22091A204B3
:104D80003091A3043A8329831B82DD82CC828E83F7
:104D9000CE010196B5CFE436F105E0F6FE2CEE200B
:104DA00009F4BDCF491303C0381709F486CF8D87A6
:104DB0009E878D859E850E94E30E8111A3CF8091F1
:104DC000A70481608093A704C8010E949C1D04CFA2
:104DD000EE2009F4A4CF8D879E878D859E850E9445
:104DE000E30EF82E882309F49ACF86E0F801A2EAB0
:104DF000B4E001900D928A95E1F78091A204909120
:104E0000A3040E94D90E0E943C25E6CE21E02E2567
:104E1000FDCE1F93CF93DF93CDB7DEB767970FB665
:104E2000F894DEBF0FBECDBF4B8B5C8B6D8B7E8B42
:104E30008F8B8E899F89892B29F0852F84238F3F23
:104E400009F07DC01A8A198A85E0FE017396DE0199
:104E50001D9601900D928A95E1F786E0FE013D9640
:104E6000DE01179601900D928A95E1F7CE01079623
:104E70000E949225882389F016E08091D9049091B0
:104E8000A804891349C067960FB6F894DEBF0FBE19
:104E9000CDBFDF91CF911F91089586E0FE01379637
:104EA000DE01119601900D928A95E1F78A859B8526
:104EB000892B11F388859F8189238F3FE9F2209107
:104EC000A80430E0C9010196877099274091D90460
:104ED0004817190671F40E94990F1092A8041092B5
:104EE000D90486E0E2EAF4E0DF011D928A95E9F751
:104EF000C3CF96E0929FD001939FB00D1124A75588
:104F0000BB4FFE01319601900D929A95E1F7809387
:104F1000A8040E944C08B0CF819FC001112487557E
:104F20009B4F0E949225882309F4ADCF8091D9042C
:104F300090E00196877099278093D9049ECF809145
:104F4000A0049091A10401969093A1048093A004E1
:104F500079CFCDB7DEB72D970FB6F894DEBF0FBE71
:104F6000CDBF84B7877F84BF0FB6F894A895809192
:104F70006000886180936000109260000FBE80E83E
:104F800090E00FB6F89480936100909361000FBE9B
:104F900085B7806885BF85B7806885BF0E94920508
:104FA0000E945D068091E20084608093E200789424
:104FB0008091A3058823A1F01091E9001F709091C2
:104FC000EC00892F817090FD80E8182B1092E90089
:104FD0008091E80083FD0E94AE0F1F701093E900DE
:104FE00082E084BD93E095BD9AEF97BD80936E00FB
:104FF0000E94171580938A010E94171563E070E0E4
:10500000882309F409C282E791E00E94822B7894F8
:105010000E94780FA1E8B3E061E070E08D91E82F85
:10502000E295EF70F0E041A18F709B0101C0220F6B
:105030008A95EAF7922F9095942391A382A1822BCF
:1050400082A323E0A738B20749F7209A559A289AF5
:105050005D9AAAE2B5E0EBE3F5E011921D9235E02E
:10506000E334F307D1F70E9417158093470590E0CA
:1050700080E00E94982E8C3E9E4F11F00E94CD152C
:105080001092C1078FEF9FEF9093DB078093DA07B1
:105090009093DD078093DC079093DF078093DE0712
:1050A0009093E1078093E0079093E3078093E207F2
:1050B0009093E5078093E4079093E7078093E607D2
:1050C0009093E9078093E8071092010590931B05E0
:1050D00080931A0590931D0580931C0590931F05DE
:1050E00080931E05909321058093200590932305BE
:1050F000809322059093250580932405909327059E
:1051000080932605909329058093280590E080E000
:105110000E94982E8C3E9E4F21F00E94CD150E9439
:10512000EE1A45E050E06CE170E08CEB97E00E94F5
:10513000802E8091BC078C7F11F40E94EE1A809122
:105140008A01811109C082EDE6E7F2E0A1EAB1E04F
:1051500001900D928A95E1F783E080936C0580E2DF
:105160008093AD050E94E22C6DE070E08BEE93E041
:105170000E94ED13892BE9F580916C0563E070E0E6
:1051800081FD4FC188EE93E00E94ED13892B89F5D4
:105190006DE070E088ED93E00E94ED13892B49F5F6
:1051A0000E942007605A75418F4F9F4F60936E0594
:1051B00070936F058093700590937105E0EBF5E0B7
:1051C00080E092E0DF019C011D9221503040E1F728
:1051D000F093B707E093B6078FEF9FEF9093AF057B
:1051E0008093AE0581E080937305809372051092E1
:1051F0006D0590E080E00E94982E8C3E9E4F11F04D
:105200000E94CD1582E090E00E94902E809375055B
:105210000E945414909337058093360583E090E004
:105220000E94902E682F70E090E080E00E944B0971
:1052300082E991E0909339058093380520EB222E86
:1052400025E0322E44244394512CDD24DA948091BD
:10525000A305853009F4E8C00E94FF1AC82EE6E7CE
:10526000F5E0ABE3B5E010E000E0302F8D919191D7
:10527000981709F417C1292F282790E0FF24F394E9
:10528000422F4F2109F409C199833A838F2191E07C
:1052900009F490E09B830E94251D8160782F9D83F7
:1052A0008C8349815A816B818D810E940927F80185
:1052B000EA58FA4F8081F826F0828091730588239E
:1052C00009F49BC03092B7072092B6074091480579
:1052D0005091490560914A0570914B052FB7F8949C
:1052E0008091430590914405A0914505B0914605F4
:1052F0002FBF841B950BA60BB70B81339547A105D8
:10530000B10508F4E5C00E941D142091AE0530914E
:10531000AF052115310509F457C080916D05811144
:1053200053C0082F10E07201082E02C0EE0CFF1CC3
:105330000A94E2F7A9014E215F21452B09F4D4C05C
:1053400090916C0590FDD2C08295880F80768093F5
:105350008D019801369527953695279520939001D4
:10536000815E80938E011092910124E630E047E047
:1053700050E06BE871E088E70E94732D892B21F5DE
:10538000A80185E0440F551F8A95E1F780916C05CF
:1053900080FDBAC040555A4F04E610E020E230E0EC
:1053A00060E488E70E949A2D892B71F40E943314DF
:1053B000E094F0948091AE059091AF05E822F92237
:1053C000F092AF05E092AE05809172058823A9F0B6
:1053D0000E94200700916E0510916F0520917005C5
:1053E00030917105601B710B820B930B6F3F7F4FE8
:1053F0008F4F9F4710F40E941D14C1100E94331458
:105400000E94EE0990917405891709F420CF0E943B
:10541000EE09809374051BCF82E791E00E948B2BED
:10542000F6CD85EE93E0B0CE8091A305843021F1D6
:1054300010923A0580E4A8E1B0E00FB6F894A89580
:10544000A09360000FBE8093600083B7817F84606B
:1054500083BF83B7816083BF7894889583B78E7F3D
:1054600083BF0FB6F894A8958091600088618093FF
:105470006000109260000FBE8091A205882309F49D
:10548000E6CE0E94FF1AEBE3F5E0819181119AC00C
:10549000B5E0E334FB07C9F7DACE9F5FFF0C963027
:1054A00009F0EECE0F5F1F4F0830110509F0DDCE79
:1054B000DE82DF8218860E94251D8160782F9A8700
:1054C00089874E815F8168858A850E940927F5CE8C
:1054D0000E94331480914705882319F00E942313FA
:1054E00014CF0E94231311CF8F5F1BCF880F880F1B
:1054F000880F80938D0110929001895F80938E01B7
:10550000F3E0F093910131CFACE4B5E0E0E21D921D
:10551000EA95E9F72BE833E03D872C8707E813E0AD
:10552000AC85BD858D91BD87AC87F80121918F0138
:10553000240F352F311D20553A4FE82FF0E0E45B62
:10554000FA4F90E080E067E0681B6B87942C082E90
:1055500001C0990C0A94EAF73901A12CD301BD903E
:105560003D01B9206B856A196770862E062E000CE6
:10557000770BBB2D01C0BB0F8A94EAF78B2E719578
:10558000619571096770772701C0B6946A95EAF74B
:105590008B28B0808B288082A39468E0A612DECF8F
:1055A000019631968830910571F68C859D858F58CE
:1055B000934009F0B5CF04E610E020E230E04CE47F
:1055C00055E0EECEE0E1E9BDF2E1F9BD09B400FE3F
:1055D000FDCF8091D8008F7D8093D8008091E0002E
:1055E00082608093E0008091E00081FDFCCF2FCEAF
:1055F0001F921FB61F9211248F939F93AF93BF9357
:1056000080913A05811113C0809143059091440522
:10561000A0914505B09146054196A11DB11D80930D
:10562000430590934405A0934505B0934605BF916B
:10563000AF919F918F911F901FBE1F9018958EE183
:105640004A9B02C08150E1F74A9BFECF08955A98C9
:1056500080E28A95F1F75A9A0895FC013BE03A9569
:10566000F1F720E090E080E031E040E14A95F1F789
:10567000880F4A9B02C08160232742E04A95F1F7D8
:10568000000040E14A95F1F79F5F6913EECF90E18A
:105690009A95F1F799B132E03A95F1F7000040E1BF
:1056A0004A95F1F792FB992790F992272081920F62
:1056B00090830895EF92FF920F931F93CF93DF9300
:1056C0000F92CDB7DEB719828C017C01E60EF11C7A
:1056D0000E151F0561F481E09981911180E00F9012
:1056E000DF91CF911F910F91FF90EF9008950E944D
:1056F0001F2B68E0CE0101960E942D2BF8018193AB
:105700008F01E6CF9093EC078093EB076093EA0755
:10571000529A5A9A08959093EC078093EB076093FE
:10572000EA0752985A9AEA9AE9E6F0E080818F7C7B
:10573000808308956150770B91E001C0990F6A95BD
:10574000EAF720E031E0911108C0222391F05A9A43
:1057500080E28A95F1F75A980895492F482339F045
:105760005A9A232740E24A95F1F79695ECCF5A983A
:10577000F9CF5A98EDCFFF920F931F93CF93DF93FA
:10578000EC018C01060F111DC017D10731F4DF9118
:10579000CF911F910F91FF900895F9900E94272BB0
:1057A00068E08F2D0E949A2BEFCF1F920F920FB6B9
:1057B0000F9211240F931F932F933F934F935F9357
:1057C0006F937F938F939F93AF93BF93EF93FF93C9
:1057D000CF93DF930F92CDB7DEB719820E941F2BB4
:1057E00067E0CE0101960E942D2B082F06950695A5
:1057F0000695982F92959570202F2570920F292F3E
:105800002370969596958770920F891344C089816D
:10581000811141C08091EA078017E8F120E12A95C3
:10582000F1F75A9A529A82E08A95F1F700C0A8E0FF
:105830000A9FC00111240091EB071091EC07080F9B
:10584000191F5A98F8016581662321F08681978196
:105850000E94BB2B0E94272BF0E1FA95F1F75A9892
:1058600052985A9A20E12A95F1F7D80112966C9134
:105870001297662331F113968D919C910E945A2BB9
:10588000D801ED91FC91882311F088E001C082E0FD
:1058900080830E941F2B0F90DF91CF91FF91EF919A
:1058A000BF91AF919F918F917F916F915F914F9138
:1058B0003F912F911F910F910F900FBE0F901F904E
:1058C0001895ED91FC91E1CF0F931F93CF93DF9348
:1058D0002091EA07281719060CF471C08C0193E097
:1058E000000F111F9A95E1F7C091EB07D091EC07DB
:1058F000C00FD11FF894529A5A9825E02A95F1F7D3
:105900000000982F969595708570980F892F837059
:1059100096959695980F092B0E94272B00C067E05B
:10592000802F0E949A2B80E18A95F1F752985A9A1B
:105930004A9B17C087E090E04A9915C06D816623A5
:1059400021F18E819F810E945A2B81111EC0529A93
:105950005A9AE881F98182E08083789482E090E02D
:105960000DC000C0E5CF019771F4529A5A9AE881B0
:10597000F98181E08083789481E090E0DF91CF919C
:105980001F910F91089500C0D7CF0E941F2B20E2D6
:105990002A95F1F75A98529A80E18A95F1F76A812F
:1059A000662321F08B819C810E94BB2B0E94272BB8
:1059B000E881F9811082789490E080E0DFCF84E084
:1059C00090E0DCCF1092B9008CE08093B80008958D
:1059D000EF92FF920F931F93CF93DF93182FEB015A
:1059E0001092BC0084EA8093BC000E94251D7C01BB
:1059F0008091BC0087FF27C08091B900887F8830E4
:105A000029F08091B900887F8031D9F51093BB00CF
:105A100084E88093BC000E94251D8C018091BC000D
:105A200087FF24C02091B900287F90E080E02831D2
:105A3000B1F081E090E0203411F490E080E09195A5
:105A4000819591090CC0CF3FDC0791F20E94251D82
:105A50008E199F098C179D0758F28EEF9FEFDF91EB
:105A6000CF911F910F91FF90EF900895CF3FDC07EA
:105A7000A9F20E94251D801B910B8C179D0770F2C7
:105A8000ECCF8FEF9FEFEBCF0F931F93CF93DF936D
:105A9000EB018093BB0084E88093BC000E94251D2D
:105AA0008C018091BC0087FF11C02091B900287F34
:105AB00081E090E0283211F490E080E091958195AA
:105AC0009109DF91CF911F910F910895CF3FDC078E
:105AD00041F30E94251D801B910B8C179D0708F335
