:100000000C9445050C948C050C948C050C9461198A
:100010000C948C050C948C050C948C050C948C051C
:100020000C948C050C948C050C94AC290C94802AAF
:100030000C945A250C948C050C948C050C948C050E
:100040000C948C050C948C050C948C050C948C05EC
:100050000C948C050C94A5250C948C050C948C05A3
:100060000C948C050C948C050C948C050C948C05CC
:100070000C948C050C948C050C948C050C948C05BC
:100080000C948C050C948C050C948C050C948C05AC
:100090000C944C180C948C050C948C050C948C05C9
:1000A0000C948C050C948C050C948C0500000000BD
:1000B00000003E5B4F5B3E003E6B4F6B3E001C3EC4
:1000C0007C3E1C00183C7E3C18001C577D571C00D1
:1000D0001C5E7F5E1C0000183C180000FFE7C3E7B1
:1000E000FF00001824180000FFE7DBE7FF0030489E
:1000F0003A060E00262979292600407F05050700CB
:10010000407F05253F005A3CE73C5A007F3E1C1CBF
:100110000800081C1C3E7F0014227F2214005F5F31
:10012000005F5F0006097F017F00006689956A0015
:1001300060606060600094A2FFA2940008047E04E6
:10014000080010207E20100008082A1C0800081C47
:100150002A0808001E10101010000C1E0C1E0C00A7
:1001600030383E383000060E3E0E0600000000001B
:10017000000000005F000000000700070000147F7F
:10018000147F1400242A7F2A1200231308646200BB
:10019000364956205000000807030000001C224189
:1001A00000000041221C00002A1C7F1C2A000808B5
:1001B0003E080800008070300000080808080800A9
:1001C0000000606000002010080402003E51494514
:1001D0003E0000427F4000007249494946002141EB
:1001E000494D33001814127F10002745454539004A
:1001F0003C4A494931004121110907003649494922
:100200003600464949291E00000014000000004045
:1002100034000000000814224100141414141400C7
:100220000041221408000201590906003E415D59AF
:100230004E007C1211127C007F49494936003E4134
:10024000414122007F4141413E007F4949494100EF
:100250007F09090901003E41415173007F080808E8
:100260007F0000417F4100002040413F01007F08A6
:10027000142241007F40404040007F021C027F006A
:100280007F0408107F003E4141413E007F0909097B
:1002900006003E4151215E007F091929460026498A
:1002A0004949320003017F0103003F4040403F00C5
:1002B0001F2040201F003F4038403F0063140814B7
:1002C00063000304780403006159494D4300007F33
:1002D00041414100020408102000004141417F00DB
:1002E00004020102040040404040400000030708AF
:1002F00000002054547840007F284444380038449B
:1003000044442800384444287F003854545418008A
:1003100000087E0902001824241C78007F080404C9
:10032000780000447D4000002040403D00007F10E8
:100330002844000000417F4000007C0478047800DD
:100340007C08040478003844444438007C18242491
:100350001800182424187C007C0804040800485461
:100360005454240004043F4424003C4040207C00BA
:100370001C2040201C003C4030403C0044281028F9
:1003800044004C9090907C004464544C440000081D
:1003900036410000000077000000004136080000F0
:1003A0000201020402003C2623263C00000000005B
:1003B000000000000000000000000000C0E0F0F8B5
:1003C000F81800C0F0FCFEFFFFFFFFFFFFFF7E00FC
:1003D000000000000000000080C0E0E0E0E0E0E09D
:1003E000E0E0C0800000000080C0E0E0E0E0E0E08D
:1003F000E0E0C080000000E0E0C0C0E0E0E0E0003D
:1004000000E0E0C0C0E0E0E0E0E0C080000000000C
:1004100080C0E0E0E0E0E0E0E0E0C080000000005C
:1004200000000000000000000000E0F0F0F0E0EC50
:10043000EEF7F37020007C7C7C7E007E7E7E7F7FEA
:100440007F000080C0E07E5B4F5BFEC00000C0000C
:10045000DCD7DEDEDED7DC00C000000000000000DC
:10046000000000000000000000000000000000008C
:100470000000000000F8FCFEFFE000FFFFFFFFFFB0
:10048000FF80FFFFFFFFFFFFFFFFFF1F07010000CF
:1004900000000000000000FFFFFF810000000000DE
:1004A0000081C3C3C30000FFFFFF81000000000004
:1004B0000081FFFFFF0000FFFFFF010000000000C0
:1004C00000FFFFFF010000000001FFFFFF0000FF31
:1004D000FFFF9D1C1C1C1C1C1C9DDFDFDF0000009F
:1004E000000000000000000000000F1F3F7F7F7F22
:1004F0007F7F3F1E0C001F1F1F3F003F3F3F7F7F3E
:100500007F00307B7F7830202030787F3B000300F5
:100510000F7F0F0F0F7F0F0003000000000000008F
:1005200000000000000000000000000000000000CB
:100530000000000000030F1F3F3F3F3F1F1F3F3FD2
:100540007F7F7F3F3F1F3F7F7F7F7F7C7878381C96
:100550000F0000000000000001030707070707075E
:10056000070703010000000001030707070707074B
:100570000707030100000007070700000000000054
:100580000007070700000000000007070700000041
:10059000010307070707070707070301000000001B
:1005A000000000000000000000000000000000004B
:1005B000000000000000000000000000000000003B
:1005C000000000000000000000000000000000002B
:1005D000000000000000000000000000000000001B
:1005E0000000000000000000000000002B001400CC
:1005F0001A000800150017002B6104001600070000
:1006000009000A00E1001D001B000600190005009A
:1006100000000000000091682A5D2C002A001300F1
:1006200012000C0018001C00340033000F000E00F4
:100630000D000B00E50038003700360010001100F7
:1006400000000000000090642B5D280029001E00BF
:100650001F002000210022002B61A800AA00A90091
:100660004B004E00E1003A003B003C003D003E00E4
:1006700000000000000091682A5D2C002A0027007D
:1006800026002500240023004D004A004F005200A0
:100690005100500000004300420041004E004B005A
:1006A00000000000000090642B5D280029001E025D
:1006B0001F022002210222022B612E002D00300297
:1006C00031023000E1000000000000002E002D008B
:1006D00000000000000091682A5D2C004C002702F9
:1006E00026022502240223024D004A004F00520038
:1006F000510050003502310030002F002E022D0233
:1007000000000000000090642B5D2800005C2E5D5E
:100710000000000000000000C35CC65CC85CCA5C4E
:1007200000000000C45CC75CC95CCB5C000000003A
:1007300000000000000091682A5D2C00000000000D
:1007400000000000000000000000000000000000A9
:100750000000000000000000000000000000000099
:1007600000000000000090642B5D280032190A0090
:10077000047F3F1F643214643214783C1E1E140A36
:10078000052223252628292A2C2D2F3032333536D1
:10079000383A3B3D3E4042434547494A4C4E505112
:1007A000535557595A5C5E6062646668696B6D6F39
:1007B00071737577797B7D7F81838587898A8C8E3C
:1007C00090929496989A9C9E9FA1A3A5A7A8AAAC44
:1007D000AEAFB1B3B4B6B8B9BBBCBEBFC1C2C3C57E
:1007E000C6C7C9CACBCCCDCED0D1D2D2D3D4D5D620
:1007F000D7D7D8D9D9DADADBDBDBDCDCDCDCDCDD53
:10080000DDDDDDDCDCDCDCDCDBDBDBDADAD9D9D836
:10081000D7D7D6D5D4D3D2D2D1D0CECDCCCBCAC9CE
:10082000C7C6C5C3C2C1BFBEBCBBB9B8B6B4B3B1FD
:10083000AFAEACAAA8A7A5A3A19F9E9C9A98969498
:1008400092908E8C8A89878583817F7D7B7977756D
:1008500073716F6D6B6968666462605E5C5A59574C
:10086000555351504E4C4A4947454342403E3D3B0B
:100870003A3836353332302F2D2C2A292826252395
:1008800022FFAA7F55400001010101010101010180
:100890000202020202020202020303030303030331
:1008A00003040404040404040505050505060606FE
:1008B0000606070707070708080808090909090ABB
:1008C0000A0A0B0B0B0C0C0C0D0D0D0E0E0E0F0F60
:1008D0000F101011111112121313141415151616EE
:1008E0001717181819191A1A1B1B1C1D1D1E1E1F5D
:1008F0002020212222232424252626272829292AAC
:100900002B2C2D2D2E2F30313232333435363738D3
:10091000393A3B3C3D3E3F404142434445464748CF
:10092000494A4C4D4E4F50515354555658595A5BA5
:100930005D5E5F616264656668696B6C6D6F707245
:10094000737577787A7B7D7E8082838587888A8CB1
:100950008E8F91939596989A9C9EA0A2A3A5A7A9E5
:10096000ABADAFB1B3B5B7BABCBEC0C2C4C6C9CBDC
:10097000CDCFD1D4D6D8DBDDDFE2E4E7E9EBEEF092
:10098000F3F5F8FAFDFF22000321007D00220003A9
:1009900021007F00DA02818FD9F1DB40A4A62EAFBF
:1009A000810000A1C800A0C000AED580A81FD30060
:1009B000408D14200000480343006F0072006E0059
:1009C000650020004B006500790062006F00610047
:1009D0007200640020005200650076002E00310095
:1009E000200028004C00650067006100630079006A
:1009F0002000530070006C006900740029000000A2
:100A0000100366006F006F007300740061006E00D9
:100A100000000403090409022200010100A0FA09F0
:100A2000040000010301010009211101000122401D
:100A3000000705810308000A1201100100000008E8
:100A40005346010001000102000105010906A10150
:100A5000050719E029E715002501950875018102B0
:100A60009501750881010507190029FF150026FF6A
:100A70000095067508810005081901290595057579
:100A8000019102950175039101C011241FBECFEFA2
:100A9000DAE0DEBFCDBF04B603FE27C08091B40408
:100AA0009091B504A091B604B091B7048730904BF3
:100AB000A740B04BD1F41092B4041092B504109238
:100AC000B6041092B70414BE84B7877F84BF0FB6F4
:100AD000F894A895809160008861809360001092DE
:100AE00060000FBEE0E0F8E3099512E0A0E0B1E09D
:100AF000E6ECF1E602C005900D92A235B107D9F7F8
:100B000024E0A2E5B2E001C01D92A43BB207E1F7E8
:100B10000E9400270C94A9300C940000CF93DF931F
:100B2000A7E8B1E04BE851E0C1E0D0E08D91E82FBB
:100B3000E295EF70F0E061A18F709E0101C0220F7D
:100B40008A95EAF7922F9095962391A382A1822B02
:100B500082A34A175B0751F7DF91CF9108950C9458
:100B6000A708209A559A289A5D9A08955D98089545
:100B70005D9A089528980895289A08950E94730709
:100B80000E948E05A1E8B1E061E070E08D91E82F50
:100B9000E295EF70F0E041A18F709B0101C0220F40
:100BA0008A95EAF7922F9095942391A382A1822BA4
:100BB00082A381E0A738B80749F70E94B105EAE5AA
:100BC000F2E0A2E5B2E011921D9282E0E236F8076F
:100BD000D1F70E945507809362020C94DE098F9230
:100BE0009F92AF92BF92CF92DF92EF92FF920F93BC
:100BF0001F93CF93DF9380910501C4E0D0E0882359
:100C000011F0D0E0C0E087E8C82E81E0D82EAE0118
:100C10004E5A5D4F7A018A01912CAA24A394B12CDB
:100C200025E0822EF60181916F01E82FE295EF70A9
:100C3000F0E021A18F70A50102C0440F551F8A95D5
:100C4000E2F7CA01922F982B91A392A18095892354
:100C500082A350EA5A95F1F7E1E8F1E020E050E094
:100C600040E03191A32FA295AF70B0E090968C91A7
:100C700090E03F7002C0959587953A95E2F780FD28
:100C80003CC0C501042E01C0880F0A94EAF7282B46
:100C90004F5F5F4F4630510521F7F8018081821781
:100CA00029F0208380920401992493940E948E0558
:100CB0000F5F1F4FFBE8CF16F1E0DF0609F0B2CF60
:100CC00080910401882359F0815080930401882386
:100CD000B1F08FE99FE00197F1F700C00000892D86
:100CE000DF91CF911F910F91FF90EF90DF90CF9008
:100CF000BF90AF909F908F90089580E0C8CFC65A64
:100D0000DD4F84E0F70191917F0199938150D1F7F4
:100D1000E6CF0F931F93CF93DF932091050110E04F
:100D200000E0222311F004E010E00E948E07EC01A5
:100D3000009739F0029711F40E94BA05C1E0D0E0A3
:100D400011C00E94BC05F801E65AFD4F80916E0269
:100D500090916F02A0917002B09171028083918393
:100D6000A283B383CE01DF91CF911F910F9108959C
:100D70000E94EF0590910501E4E0F0E0992311F065
:100D8000F0E0E0E0E65AFD4F30E020E040E0D9013D
:100D9000A259BD4F5C919191591341E09C932F5FF3
:100DA0003F4F2430310599F790916702940F90934B
:100DB000670208951F93CF93DF9380916202882387
:100DC00009F44BC00E94EF05182F80910501C4E083
:100DD000D0E0882311F0D0E0C0E0C65ADD4F44E0F7
:100DE00050E0BE018AE692E00E94362D488159818A
:100DF0006A817B8140936A0250936B0260936C021C
:100E000070936D020E948906892B11F10E94B6052C
:100E1000809163028F5F80936302863070F08091CF
:100E20000501F0E0E0E0882311F0E4E0F0E0E65AAC
:100E3000FD4F10821182128213820E94E609C1E0E6
:100E4000111101C0C0E08C2FDF91CF911F91089547
:100E50000E94B80510926302F0CF0E94B806C1E06C
:100E6000811101C0C0E080910501811114C090E0A2
:100E700080E0865A9D4F40916A0250916B026091CA
:100E80006C0270916D02FC01408351836283738315
:100E90000E94E609D8CF84E090E0EBCFE82FF0E0A5
:100EA000E65AFD4F80810895089580916402811172
:100EB00011C08091D80080618093D8008AE18A9522
:100EC000F1F700C09091D900892F817090FF82E0E6
:100ED0008093640281E090916402913009F080E097
:100EE00008950C9455070E947107809305010E9494
:100EF0005507882321F00E948207789408950E9464
:100F00008807FBCF63E070E086E091E00C940E1957
:100F100063E070E086E091E00C9417190F931F9343
:100F2000CF93DF938C0190911F0180911E01D0E03F
:100F3000C0E0981759F082E090E00E94F019EC01AF
:100F4000892B21F480911E0180931F0180916502FD
:100F500090916602082B192B90E080E0012B11F094
:100F600081E090E00E94F019892B71F48091670272
:100F700080931E011092660210926502CE01DF91ED
:100F8000CF911F910F91089581E090E090936602B8
:100F900080936502F3CF8091A9039091AA03A09159
:100FA000AB03B091AC0384309105A105B105E1F12B
:100FB00028F50097A105B10571F16BEA71E0823067
:100FC0009105A105B10549F1BF93AF939F938F930D
:100FD00086EC91E09F938F931F9288E18F938AEC28
:100FE00093E09F938F930E94632D8DB79EB70A96CF
:100FF0000FB6F8949EBF0FBE8DBF13C08830910509
:10100000A105B10529F08E309105A105B105E1F6E4
:1010100068EB71E002C06FE871E08AEC93E00E9437
:101020005C2D8AEC93E008956EE971E0F6CF80E2E2
:1010300091E00895CF93C0E28C33910520F4FC0138
:10104000E851FE4FC0811F92CF939F938F93FB0176
:1010500080811F928F9381811F928F9387ED91E002
:101060009F938F931F9288E18F9389E892E09F93DB
:101070008F930E94632D8DB79EB70E960FB6F8948E
:101080009EBF0FBE8DBF80917202909173024497F4
:1010900061F41092730210927202E4E7F2E080E2CF
:1010A000819392E0E838F907D9F780917202909124
:1010B0007302FC01EC58FD4FC083019690937302BC
:1010C00080937202CF91089589E892E0089584E7B1
:1010D00092E008950C9499080F931F93CF93DF9398
:1010E000EC018B010E94F717882351F0B801CE0163
:1010F0000E940C098170DF91CF911F910F9108958B
:1011000080E0F8CFCF93DF93D62FC42F0E94B92170
:10111000882351F08D2F0E94B921882329F08C2F2C
:10112000DF91CF910C94D9218C2FDF91CF910C942A
:10113000FA218091E403869590E09093E3038093F5
:10114000E2030E94550791E089270C9490170C94B4
:10115000DD17CF93DF93EC01809162028823A1F029
:101160000E94CB07BC01CE010E940C170E946408AC
:10117000BC01CE010E940C170E946708BC01CE0181
:10118000DF91CF910C940C170E941708BC01CE017F
:10119000DF91CF910C94FA160F931F93CF93DF93A7
:1011A000EC018B0144E550E00E94362D892B59F06B
:1011B00084E5F801DE0101900D928A95E1F7CA5AA3
:1011C000DF4F81E08883DF91CF911F910F910895C8
:1011D000CF93DF93CDB7DEB7C755D1090FB6F894DB
:1011E000DEBF0FBECDBFCE0101960E941817CE0103
:1011F00001960E94A908BE016F5F7F4F8AE394E0C9
:101200000E94CC08C95ADF4F0FB6F894DEBF0FBE5C
:10121000CDBFDF91CF9108950F931F93CF93DF93AD
:101220008C01EB018A81882319F0C8010E941A08F9
:101230000A328DE5180759F150F4043C8CE5180783
:1012400009F44BC009321D45D1F0C1E036C00C3263
:101250008DE51807C1F138F10E321D45B1F7CA818D
:10126000CC2399F30E94E40C0E946E128091E40357
:10127000869590E09093E3038093E2031EC0CA81B9
:10128000CC23D9F080E00E94CB09C0E016C0CA810F
:1012900081E0CC2359F00E94D92143E062E081E053
:1012A0000E948208F2CFCA8182E0F3CF0E94FA2125
:1012B00043E062E081E00E9482088C2FDF91CF91B1
:1012C0001F910F910895CA8183E0CC2319F00E94E9
:1012D000D921DBCF0E94FA21F0CFCA81CC2369F358
:1012E0008091E2030E946B120E945B128091E403E2
:1012F000869590E09093E3038093E203C6CF81E06C
:10130000089508950C9481091F93CF93DF9300D023
:1013100000D00F92CDB7DEB749835A836B833091EB
:10132000520389819A8131111DC06623B9F02223AD
:10133000A9F00E94CC22182F682F89819A810E94DF
:10134000752269817A81812F0F900F900F900F90F5
:101350000F90DF91CF911F910C94490A0E94A32214
:10136000182FEFCF0E94CC2269817A81EDCFFC014A
:10137000262F408151816281738184810C9484097C
:10138000CF93DF93EC0160E00E94B709BE01DF91CB
:10139000CF910C948209CF93DF93C1E0D0E002C0DB
:1013A000CC0FDD1F8A95E2F78C2F0E941624BE0118
:1013B00090E080E0DF91CF910C9457210E940324AC
:1013C000811102C00E94AC240C946A080C94AF05F1
:1013D00008950E94461E0E94E8092FEF84E39CE0D6
:1013E000215080409040E1F700C000000C94C925D6
:1013F0000F931F93CF93DF93EC0161E00E94B70935
:101400008C01BE010E946C08882359F1BE01C801FD
:101410000E94CD14882329F1BE01C8010E941F1526
:101420008823F9F0BE01C8010E9442168823C9F042
:10143000BE01C8010E94A613882399F08A818823DF
:1014400039F001158CE5180751F00F3D1C4579F076
:10145000CE01DF91CF911F910F910C947F090E94D3
:10146000E90980E0DF91CF911F910F9108950E94CB
:10147000AC24F7CF08950C943A0A81E008950C94B7
:101480003D0ACF93C82F0E943B0A8C2FCF910C941A
:101490003F0A972F70E026E0929F600D711D112486
:1014A000FB0190E3899FE00DF11D1124EE0FFF1F5A
:1014B000E451FA4F859194910895CF93DF930E9460
:1014C000490A0E94300BEC01811523E5920790F543
:1014D000811532E5930708F096C081159042C8F453
:1014E000C11581E0D80788F4C53AD10548F4C43065
:1014F000D10558F4C130D10541F0D0E0C0E005C0BD
:10150000CE01805E91090897C0F7CE01DF91CF919F
:101510000895C11591E5D90708F070C0C11520E5FF
:10152000D20708F04EC0C11530E4D30730F3DF70A6
:10153000D06AEBCF811546E59407F0F4C11585E537
:10154000D80708F075C0C11594E5D90708F06BC03D
:10155000CE018370992721E030E002C0220F331FB3
:101560008A95E2F7C695C69590E2C99FE0011124DD
:10157000C22BD32BDA68C9CF81152AE5920778F4FC
:10158000811539E5930708F05EC0811548E5940799
:1015900008F4B3CFD82FCC27C06FD06AB6CF9056FF
:1015A0008115904208F0A9CF8D2F8F710E94C70B33
:1015B00090E0982F882788279F719C012C2BE901A8
:1015C00040C0CE01E4E096958795EA95E1F78370F7
:1015D0002C2F26952695237040E2249F90011124FC
:1015E000382B8C2F8370C1E0D0E002C0CC0FDD1F00
:1015F0008A95E2F7C22BD32BDC6887CFDC2FCC2770
:10160000C16FD06A82CF8370992721E030E002C099
:10161000220F331F8A95E2F7C695C69580E2C89FD0
:10162000E0011124E7CFDC2FCC27C46FD06A6DCF47
:101630008C2F0E94C70BC82FD0E0DC2FCC27CC27E3
:10164000DF71D06262CF8F700E94C70B34E0D695F5
:10165000C7953A95E1F7CF709C2FEC01D06955CF33
:1016600082389105B1F1B0F48133910509F475C068
:1016700048F48932910509F469C08A32910509F468
:1016800073C008958533910509F459C089339105D4
:1016900001F10895833E9105A9F138F4803E91054A
:1016A000F9F0823E910549F10895863E9105A9F130
:1016B000873E9105C9F1843E910519F52091A60454
:1016C00021FF1FC08091A50484FD14C087EE90E027
:1016D00008952091A5042370A1F080EE90E0089574
:1016E0002091A50420FD47C03091A60430FF09C019
:1016F00024FF44C090E080E004C02091A50422FDB6
:10170000F7CF08952091A50422FD3BC03091A60497
:1017100030FDE3CF24FFF5CFEDCF2091A50423FFCB
:10172000F0CF24FDE7CFD2CF2091A50423FD2CC01C
:101730003091A60431FFEECF84EE90E00895209121
:10174000A50425FFDECF89E290E008952091A5044D
:1017500025FFD7CF85E390E008952091A50426FFCB
:10176000D0CF8AE290E008952091A50426FFC9CF4A
:1017700081E390E0089589E390E0089583EE90E09E
:10178000089582EE90E0089586EE90E0089590919D
:10179000A50492FF06C0282F28712830F9F4877F0E
:1017A000846093FF06C0282F28712831F1F4877ECA
:1017B00084612091A60420FF06C0382F387138308C
:1017C000D9F4877F816021FF06C0282F2871283136
:1017D000D1F4877E816194FD877E0895282F24713E
:1017E0002430F9F68B7F8860DCCF282F24712431D8
:1017F00001F78B7E8861DDCF382F3171313019F7D9
:101800008E7F8860E0CF282F2171213121F78E7ED5
:101810008861E1CFEF92FF920F931F93CF93DF93F5
:10182000EB01E82FD11110C0442321F0F0E0EA577A
:10183000F74FE4916E2F7E2F8E2FDF91CF911F9166
:101840000F91FF90EF9008950D2F10E0282F30E0BA
:10185000442329F02A57374FF901249130E0F6E06C
:10186000CF9FC0011124EFEFF0E0BF010E944C2C8C
:10187000AB018C2F90E0880F991FA5E5A49FB001C4
:10188000A59F700D1124861B970B982F990F980F09
:10189000BF01601B710B629FD001639FB00D729FEF
:1018A000B00D11248B2F9D9FB0011124672F772736
:1018B000EF01C61BD70BBE01629FE001639FD00DF5
:1018C000729FD00D11247F01E91AF108E09EB0014A
:1018D000E19E700DF09E700D1124672F7727E61B97
:1018E000F70BE29F8001E39F100DF29F100D112472
:1018F000E12F722F4230510599F048F441155105FE
:1019000069F04130510581F0EB2F8D2F07C0443035
:10191000510569F080F046305105B1F76E2F8DCF3B
:10192000E22F7B2F812FFACFE22F7D2FF7CFEB2FE6
:10193000822F712FF3CF7B2F822FED2FEFCF41E03E
:101940000C940A0C08950C949F0CCF93DF93762F80
:10195000E901682F842F0E94A30C798368838A830E
:10196000DF91CF910895493708F048E70C94A50C12
:101970008091E403982F9E7F61F481708260809350
:10198000E4038091E703893718F088E78093E70341
:1019900008958635B0F381708465F1CF88E090E0DA
:1019A0000C941330CF92DF92EF92FF926B017C0187
:1019B0000E94B80CB701A60188E090E0FF90EF907C
:1019C000DF90CF900C943130E4EEF3E083E080833D
:1019D00011828FEF828388E783831482A5E3B3E0CB
:1019E00012968C911297836012968C93608171810C
:1019F000828193810C94D20C8091E40380FF02C019
:101A00008695089580E008959091E803933018F446
:101A10009F5F9093E803882351F06091E4037091F5
:101A2000E5038091E6039091E7030C94D20C0895AE
:101A300081E00C94040D9091E803992319F09150E2
:101A40009093E803882351F06091E4037091E503DB
:101A50008091E6039091E7030C94D20C089581E005
:101A60000C941B0D70E00C9416146091640180912D
:101A7000E40380FF0AC08091630123E0829FC001DC
:101A8000112487519C4F0C94320D809165019091E7
:101A9000660123E0829FF0011124E751FC4F891772
:101AA00050F71182108212828F5F3396F8CF909197
:101AB000E40390FF14C0909165012091660133E02A
:101AC000939FF0011124E751FC4F921710F00C94F2
:101AD000350D8183608342839F5F3396F6CF0895EF
:101AE000CF93DF9300D00F92CDB7DEB79091E40390
:101AF00090FF0AC09E012F5F3F4F0E94B30C4B81A5
:101B000069818A810E94570D0F900F900F90DF918D
:101B1000CF910895CF93DF93EC01EC81F0E0EF5784
:101B2000F84F4491E4EEF3E0628181810E94700DF0
:101B30008C818F5F8C83DF91CF910895CF93DF935A
:101B4000EC01E4EEF3E0438162818C810E94700D30
:101B50008C818F5F8C83DF91CF9108950F931F93BA
:101B6000CF93DF9300D00F92CDB7DEB78C01809179
:101B7000A10281110AC09E012F5F3F4F48E76FEF1E
:101B80000E94B30C8A818093A102F80164816130C4
:101B900069F08091A10240E0662361F040E062308C
:101BA00011F44091A10280E060E004C06091A102C4
:101BB00040E080E00E94570DF801848190E001969A
:101BC00063E070E00E94602C84830F900F900F9070
:101BD000DF91CF911F910F910895AF92BF92CF9255
:101BE000DF92EF92FF920F931F93CF93DF9300D07A
:101BF0000F92CDB7DEB7182FF62E042FE22E90915C
:101C0000E40390FF3AC0E92FE695AE2FB0E0AC5D5B
:101C1000BD4F8C91809335039E7F9230E1F59E01FC
:101C20002F5F3F4F812F0E94B30C4B8169818A81C6
:101C30000E94570D8091E503811308C08091E6034F
:101C40008F1104C08091E703801729F0809137033A
:101C50008260809337031093E503F092E6030093CC
:101C6000E703EE2051F06091E4037091E503809169
:101C7000E6039091E7030E94D20C0F900F900F9013
:101C8000DF91CF911F910F91FF90EF90DF90CF9058
:101C9000BF90AF900895823019F40091E703CACF46
:101CA000863019F41091E503C5CF8930D9F3893115
:101CB00009F6E9518E2F8170D82EE695F0E0EF57A6
:101CC000F74FA590B490C12CBB2460916701C61654
:101CD00018F00E94350DAECF2C2D30E0A29EC00131
:101CE000A39E900DB29E900D112470E00E944C2C8A
:101CF000812FD11013C0860F40916501420F532FE1
:101D0000511D9A01220F331F240F351F27513C4FBD
:101D1000402F6F2D0E94B30CC394D7CF861BECCFFE
:101D2000E4EEF3E09181282F438162818AE0890FFC
:101D30000C94ED0D81E00C94900EE4EEF3E09181B3
:101D4000282F4381628186EF890F0C94ED0D81E08D
:101D50000C949D0EE4EEF3E0628121E1620F08F441
:101D60006FEF282F438181810C94ED0D81E00C945D
:101D7000AA0EE4EEF3E0628121E1621B08F460E068
:101D8000282F438181810C94ED0D81E00C94B90ED4
:101D9000E4EEF3E0438121E1420F08F44FEF282FF6
:101DA000628181810C94ED0D81E00C94C80EE4EE0B
:101DB000F3E0438121E1421B08F440E0282F6281D7
:101DC00081810C94ED0D81E00C94D70E20E00C94F1
:101DD000ED0DEF92FF921F93CF93DF93EC0110E094
:101DE000EE24EA94F12C60916701161770F00E94BE
:101DF000350D9A818C8190FF27C08F5F8C83DF9196
:101E0000CF911F91FF90EF90089520916501422F8F
:101E1000410F5527551FCA019A01220F331F280F62
:101E2000391F27513C4F70E0C7010E94602C962F4C
:101E30008C814091E7036091E603199F800D112486
:101E40000E94B30C1F5FCFCF8150D8CF8F929F924B
:101E5000AF92BF92CF92DF92EF92FF920F931F93B8
:101E6000CF93DF93EC018A81BB24BA9480FD02C03A
:101E7000BB24B3948C8181110AC081E0B8122AC0BE
:101E80008091670181508093A30281E08C83A12C13
:101E90004BE1942E80916701A816F8F00E94350D51
:101EA0008091A30291E0B91261C081115AC0809162
:101EB000670181508093A3021C82DF91CF911F9113
:101EC0000F91FF90EF90DF90CF90BF90AF909F90D9
:101ED0008F9008951092A302D8CF00916501CA2C6B
:101EE000D12C0C0D1D2D111DC801880F991F080F35
:101EF000191F07511C4FF80111821082128234E021
:101F0000E32EF12C812C8091A302880D8C311CF1E1
:101F1000692D0E943E2C892F082E000C990BC816A3
:101F2000D90691F48091E7038E9DA0018F9D500DFD
:101F30001124559547955595479598016091E6036D
:101F40008091E5030E94B30C8B0CF1E0EF1AF108CD
:101F5000D1F6A3949FCF87FFDFCF90916701890FC0
:101F6000DBCF81508093A302BC82A7CF90E0019683
:101F70006091670170E00E94602C8093A3028C83C3
:101F80009CCFEF92FF920F931F93CF93DF93EC01BF
:101F90008C81811109C081E08C831092A20292E0B1
:101FA0009093620180936101809165019091660137
:101FB00023E0829FF0011124E751FC4F891768F15B
:101FC00010E003E060916701161768F10E94350D7B
:101FD000809161012091A202280F2093A20290918A
:101FE0006201980F90936201191654F4022E000CAE
:101FF000330B409167014150550B2417350734F0DE
:10200000819580936101813009F41C82DF91CF9129
:102010001F910F91FF90EF9008951182108212820C
:102020008F5F3396CBCFE12EF12C70E0C7010E9479
:10203000602C20916501820F482F50E02091A20270
:10204000022E000C330BE216F306BCF02091620165
:10205000022E000C330B2E153F057CF0809F900163
:10206000112427513C4F4091E7036091E603809192
:10207000E5030E94B30C1F5FA5CFFA01EE0FFF1F0F
:10208000E40FF51FE751FC4F118210821282F3CF4B
:102090008F929F92AF92BF92CF92DF92EF92FF9278
:1020A0000F931F93CF93DF93EC014C81042F10E02B
:1020B0009801D8010E94A42C9B01AC010E94BA2C6B
:1020C0004B015C01E0E2F0E0E01BF10BA5E5B0E0C4
:1020D000AC019B010E94BA2C6B017C019F01DF01C6
:1020E0000E949C2C9B01AC010E94C52C9B01AC0161
:1020F000280D391D4A1D5B1DC701B6010E94742CB5
:10210000F22E822F90E039E23F1560F143E0249FE8
:102110009001112435952795122F109500E085E543
:10212000E82EEF1880916701081758F10E94350DCD
:102130009C8181E0992319F0903219F48FEF8093FC
:10214000600180916001890F8C83DF91CF911F9195
:102150000F91FF90EF90DF90CF90BF90AF909F9046
:102160008F90089525E530E0B901681B790B9B013C
:10217000220F331F260F371F37FFCCCF2F5F3F4F64
:10218000C9CF8E2D01FD8F2D20916501622F600F2B
:102190007727771F9B01220F331F260F371F2751E9
:1021A0003C4F412F6091E6030E94B30C0F5FBACF02
:1021B0000F931F93CF93DF93EC0110E000E0909119
:1021C00067019017110609F06CF40E94350D8C819F
:1021D00090E00196817099278C83DF91CF911F91B8
:1021E0000F91089520916501A801420F511D9A0198
:1021F000220F331F240F351F27513C4F4C81609114
:10220000E6038091E50396959017110651F04CF086
:10221000442349F04091E7030E94B30C0F5F1F4F26
:10222000CECF4423B9F340E0F7CF8F929F92AF9285
:10223000BF92CF92DF92EF92FF920F931F93CF93B3
:10224000DF93FC01B280948081E0848300E015E09C
:102250005BE4A52E88248394EE24EA94F12C7BE49D
:10226000C72ED12C80916701081770F0DF91CF91B4
:102270001F910F91FF90EF90DF90CF90BF90AF90A4
:102280009F908F900C94350DC02FD0E01C9FF001D3
:102290001D9FF00D1124E955FD4F91101CC01382B4
:1022A000128220916501CE01820F911D9C01220FA7
:1022B000331F280F391F27513C4F1C9FF0011D9FD2
:1022C000F00D1124E955FD4F4281618180810E940A
:1022D000B30C0F5FC7CF2381222379F121502383D1
:1022E00034818A2D821B311101C0822F1C9FF00185
:1022F0001D9FF00D1124E955FD4F9091E703899F33
:10230000C0011124B6010E944C2C6283211104C02B
:10231000332311F01482A38222E02B1510F21C9FAC
:10232000F0011D9FF00D1124E955FD4F8091E5034B
:1023300080838091E6038183B4CF0E94192D82307F
:1023400091400CF0AECF82E08B1530F50E94192D34
:10235000B7010E94602C1C9FF0011D9FF00D1124FD
:10236000E955FD4F808322E02B15C8F40E94192DFA
:102370002091E6032695622F70E00E94602C280FC2
:102380001C9FF0011D9FF00D1124E955FD4F218385
:102390001282A382848285CF8091E503DCCF2091D5
:1023A000E603EECFE5E3F3E011828281846082836D
:1023B0000895E4EEF3E080818E7F808360817181F7
:1023C000828193810E94D20C0E94D211E5E3F3E056
:1023D0008281816082832FEF80E792E021508040EC
:1023E0009040E1F700C000000C94350D6091E403CB
:1023F000669570E04BE050E088E691E00E94292D60
:10240000892B19F481E0809336030E948A259093EA
:102410002F0380932E0380913703846080933703CA
:1024200008959091E40390FF3AC0917081112DC0FE
:1024300092609093E4038091370381608093370327
:10244000662351F06091E4037091E5038091E60307
:102450009091E7030E94D20C6091E403669570E0CE
:102460004BE050E088E691E00E94292D892BA1F0F5
:102470000E94D21181E0809331034091E703609183
:10248000E6038091E5030C94E60E8B3210F0946520
:10249000D0CF880F982BCDCF0E94F611EBCF0895A7
:1024A000682F9091E403969581E0890F8B3208F0B4
:1024B00081E00C94111281E00C945012682F9091DD
:1024C000E40396958FEF890F09F48AE20C941112B8
:1024D00081E00C945E1261E00C941112E4EEF3E0E2
:1024E00080818160808386950C946B128091E403D7
:1024F00080FD0C94D9110C946E1260E00C941112B2
:1025000080913403811133C00E940324811104C0DF
:102510000E94AC240E94E40C0E94CE0C6093E40361
:102520007093E5038093E6039093E703809137036C
:102530008360809337036E7F61F40E94E40C0E94F5
:10254000CE0C6093E4037093E5038093E6039093CD
:10255000E7030E94B80C0E94D2118091E40380FF2F
:1025600003C086950E947D1281E080933403089514
:10257000EF92FF920F931F93CF93DF9380913603D7
:10258000882309F468C080913503E091E403E6955F
:10259000E81BE0933003823009F064C0F0E0E358B8
:1025A000F84FE491CE2FD0E00AE81DE0809131038E
:1025B000882389F0109231030E948A259E0120957C
:1025C0003095820F931F90932F0380932E031092C8
:1025D00033031092320380912E0390912F030E94B7
:1025E00096258C179D07B8F18091A6028823B1F03B
:1025F0001092A6028091A4029091A5020E949625B5
:102600008033954758F00E948A259093A5028093C5
:10261000A40280913703886080933703E0903203EF
:10262000F0903303E0912E03F0912F03CE0FDF1FC4
:10263000D0932F03C0932E038EE293E0F801099507
:102640008091320390913303892B29F4EF2819F0FC
:1026500081E08093A602DF91CF911F910F91FF90AF
:10266000EF900895863049F4F0E0E658F84FE49191
:10267000CE2FD0E00EE91DE099CF893051F4E695D8
:10268000F0E0E958F84FE491CE2FD0E009EE1EE0DB
:102690008DCF8F3051F4E695F0E0EC58F84FE4918F
:1026A000CE2FD0E006E21FE081CF853149F4F0E083
:1026B000EF58F84FE491CE2FD0E001EC1FE076CF39
:1026C000C8E2D0E008E410E1883109F46FCF83322A
:1026D00039F4EFE6F7E0C591D4910EEA1DE066CF3C
:1026E000C4EFD1E008ED10E1843209F45FCFC0ED12
:1026F000D7E002EA1CE0853209F058CF8E2F63E064
:102700000E94322CE92FF0E0E459F84FE491CE2FEB
:10271000D0E005E111E14ACFFA01811101C0FB01CE
:102720000994CF93DF93C82FD62F0E94FC0C8C17EF
:1027300040F00E94FC0C8D1720F4DF91CF910C9497
:102740005B128C2FDF91CF910C946B120F931F9320
:10275000CF938C01FB01C281CC2309F465C00E9498
:1027600061238272F801E35CFC45E431F10538F441
:10277000E555FF4C0C94962C0E947612C0E08C2FED
:10278000CF911F910F91089548E652E16BE572E1F8
:102790000E948C13F3CF4BE552E168E672E1F8CF6B
:1027A00047EA5EE06AE97EE0F3CF4AE95EE067EA85
:1027B0007EE0EECF45EC5EE066EB7EE0E9CF46EBF7
:1027C0005EE065EC7EE0E4CF43EE5EE064ED7EE04B
:1027D000DFCF44ED5EE063EE7EE0DACF4FE25DE016
:1027E00068E17DE0D5CF48E15DE06FE27DE0D0CFEC
:1027F00081E00E946B12C2CF65E082E00E949113DB
:10280000BDCF68E086E0FACF6EE089E0F7CF64E103
:102810008FE0F4CF67E185E1F1CF88E1EACF62E2B2
:1028200089E1ECCF83E2E5CFC1E0A9CF539A4BB168
:10283000477F5BB15860EFB7F8949B01220F331FBD
:10284000260F371F280F391F2817390741F4EFBF0C
:102850008FE594E00197F1F700C000000895DC01D6
:102860006D91CD0178E05BB9000000C067FF4BB906
:10287000660F000000C000C000C04BB900C07A95D0
:1028800091F7E2CFAF92BF92CF92DF92EF92FF9299
:102890000F931F93CF93DF937C015B01C42FD22F43
:1028A000FC0182818823F9F040933A030E948A2533
:1028B000909339038093380380E28C0F883008F0BE
:1028C00061C0C77081E001C0880FCA95EAF7DF9147
:1028D000CF911F910F91FF90EF90DF90CF90BF901D
:1028E000AF900C940A1C10913A03141340C08091CD
:1028F0003803909139030E9496256C01B701C501F8
:102900000E94AA20C816D90690F5C0E2CD0F1D1767
:10291000B9F080E2810F883040F4177081E001C087
:10292000880F1A95EAF70E94111CC83048F481E01C
:102930009D2F977001C0880F9A95EAF70E940A1C94
:10294000802F0E94F71BC830E8F4D77081E001C0E7
:10295000880FDA95EAF7DF91CF911F910F91FF90E1
:10296000EF90DF90CF90BF90AF900C94111C80E25D
:102970008C0F883038F4C77081E001C0880FCA9589
:10298000EAF7E9CFDF91CF911F910F91FF90EF9080
:10299000DF90CF90BF90AF9008950F939C01CB0133
:1029A000243F4CE5340759F1A8F4293DFCE53F07E5
:1029B00001F12A3D4CE53407D1F1283D3C4591F425
:1029C00006E221EE41EE68ED7CE50E94421480E0D3
:1029D0000F910895263FFCE53F07E9F0B0F0273F4F
:1029E0003C45F9F0FC018281882339F110923A03C9
:1029F000EFCF07E225EE45EE69ED7CE5E6CF06E296
:102A000021EE40EE64EF7CE5E0CF07E225EE44EEF8
:102A100065EF7CE5DACF06E221EE42EE66EF7CE57B
:102A2000D4CF07E225EE46EE67EF7CE5CECF08E295
:102A300021E045EE6AED7CE5C8CF81E0C9CFCF93B8
:102A4000DF93EC01FB018281882309F419C1C230B4
:102A5000FCE5DF07C0F1C6319CE5D90730F09E01E7
:102A60002B5F3C452930310570F50E941B24909363
:102A7000A6048093A504C031ECE5DE0709F4CFC0BD
:102A800008F05BC0C8308CE5D80709F4B6C088F5FB
:102A9000C430ECE5DE0709F4A8C0C0F4C2308CE510
:102AA000D80709F49CC08091A5048260C330DC453E
:102AB00009F498C08091A5049091A6040E9429244D
:102AC0000E94461E80E0DF91CF9108958091A50479
:102AD0008061C630ECE5DE0709F484C08091A5046E
:102AE0008860C730DC4508F47DC08091A504806211
:102AF00079C0CC308CE5D80709F489C070F4809196
:102B0000A5048C60CA30ECE5DE0709F46BC008F45C
:102B100078C08091A5048E7F65C0CE308CE5D80743
:102B200009F479C08091A5048B7FCF30DC4508F48F
:102B300059C08091A5048F7E55C0CC3FECE5DE07DF
:102B400009F457C030F5C3318CE5D80709F46FC0DC
:102B500078F4C131ECE5DE0709F465C0C231DC452B
:102B600009F0A8CF0E94461E8091A5048F773AC035
:102B7000C5318CE5D80709F462C008F476C08091AD
:102B8000A6048160CB3FDC4509F094CF8093A60476
:102B900091CFC115FDE5DF0709F44DC088F48091A0
:102BA000A6048D7FCE3F9CE5D90781F38091A604D2
:102BB0008E7FCF3FDC4550F38091A6048360E6CF43
:102BC000C230FDE5DF0709F459C008F444C080E0D5
:102BD000C330DD4509F06ECF0E94AE246BCF8091EB
:102BE000A50481608093A50465CF8091A5048460CD
:102BF000F9CF8091A6048260C9CF8091A50480643A
:102C0000F1CF0E94461E8091A5048068EBCF809191
:102C1000A5048D7FE7CF8091A504877FE3CF8091C6
:102C2000A5048F7DDFCF8091A5048F7BDBCF8091C2
:102C3000A504837FD7CF8091A6048C7FA7CF8091F6
:102C4000A50482FB992790F921E0922790FB82F955
:102C500090FB83F9C7CF8091A604982F909591702F
:102C60008E7F892B90FB81F991CF0E94461E909117
:102C7000A504892F97FB87F98058B4CF81E0ACCFAA
:102C800081E021CFCF93DF93EB0186319C4511F595
:102C90000E9461239A81992399F08A7A91E009F43C
:102CA00090E090933B03811109C089E20E943C238C
:102CB0000E94A02380E0DF91CF91089585E3F6CFB5
:102CC00080913B03811104C089E20E944323F0CF2D
:102CD00085E3FBCF81E0EFCFCF93C82F88E70E9439
:102CE0000A18882311F0C0E00BC080E00E943D1854
:102CF0008111F9CF8C2F0E943D18C1E08111F3CFD3
:102D00000E9431188C2FCF9108951F93CF93DF939A
:102D1000C82FD92F162F180FFE0184910E946C1610
:102D2000882319F021961C13F7CFDF91CF911F91C3
:102D300008958EEA0C946C168FEA0C946C160F931F
:102D40001F93CF93DF93EC018C010C5A1F4FD801D6
:102D5000ED91FC91119760838D919C911197019653
:102D60008D939C938C1B9D0B84359105B9F4BE010A
:102D70006B5E7F4F4FE350E0CE010E94432DCE01AA
:102D8000CF96F8019183808345E150E060E270E0E6
:102D9000DF91CF911F910F910C94552DDF91CF9121
:102DA0001F910F9108951F93CF93DF93EC01FC01C6
:102DB000EA5AFF4F81E080836A30B1F43297808114
:102DC00091818C1B9D0B65E170E00E94602C182F97
:102DD000153120F0DF91CF911F91089560E2CE016F
:102DE0000E949F161F5FF4CFCE01DF91CF911F91FC
:102DF0000C949F160F931F93CF93DF938C01EB01DD
:102E00006991611105C0DF91CF911F910F910895D4
:102E1000C8010E94D316F4CFCF93DF93EC010E9438
:102E2000FA166FE472E0CE01DF91CF910C94FA169E
:102E3000CF93DF93EC0144E550E060E270E00E9444
:102E4000552DFE01EC5AFF4FD183C083CA5ADF4F84
:102E500081E08883DF91CF9108957F928F929F9236
:102E6000AF92BF92CF92DF92EF92FF920F931F9398
:102E7000CF93DF938C010E948A2590933D0380932A
:102E80003C030E949C1667E086E899E00E94851644
:102E9000882399F188E70E940A1881112EC080E4E6
:102EA0000E943D18811129C07801480184E5880EEF
:102EB000911C96E0792E5701D12CF501C1915F014B
:102EC000C79DE0011124C455DF4F86E0C82EFE01E6
:102ED00084910E943D18CA942196C110F8CFD394D2
:102EE000F5E1DF12EACF85E1E80EF11C8E149F04B4
:102EF00011F7F801EA5AFF4F1082DF91CF911F912D
:102F00000F91FF90EF90DF90CF90BF90AF909F9088
:102F10008F907F900C9431188AE394E00C942D17D5
:102F20001F93CF93DF93C82F0E9404186DE089EAA6
:102F300099E00E948516811106C0C0E08C2FDF91B8
:102F4000CF911F91089563E086EA99E0C11102C014
:102F500083EA99E00E948516882379F36FE084E97B
:102F600099E00E948516C82F882339F38AE394E0FC
:102F70000E94181767E08DE899E00E948516882363
:102F800059F088E70E940A18811106C080E40E9467
:102F90003D1814E0882361F00E9431180E948C17BC
:102FA000CDCF80E00E943D18D150D9F7115011F0DB
:102FB000D0E8F7CF10929004EFCF0E94E8088091FC
:102FC0009004811104C080917301882321F00E9434
:102FD0008C171092730180913C0390913D030E94E5
:102FE000962581369A4E10F00C949916089581E03A
:102FF00080937301089583E390E02091BC0027FD46
:1030000002C00197D1F708951092B9008CE0809327
:10301000B8000895CF93C82F84EA8093BC000E9423
:10302000FB178091B900887F883041F08091B9000A
:10303000887F803119F081E0CF910895C093BB0063
:1030400084E88093BC000E94FB178091B900887FC0
:10305000883129F08091B900887F803461F780E061
:10306000EBCF84E98093BC0083E390E02091BC0027
:1030700024FD02C00197D1F708958093BB0084E836
:103080008093BC000E94FB179091B900987F81E06B
:10309000983209F480E008951F921FB61F92112400
:1030A0008F939F93EF93FF938091B900887F80382F
:1030B000C1F038F4882309F44BC0803679F081E000
:1030C00022C0883A11F0883BD1F7E0913F03F0E04D
:1030D000EF56FB4F80818093BB0031C010923E03BE
:1030E000EECF80913E03811122C08091BB0080937E
:1030F0003F0380913F038031C0F010923F0380E096
:1031000091E090933E039091BC008295880F880FC8
:10311000807C892B85688093BC00FF91EF919F9103
:103120008F911F901FBE1F90189581E0E9CFE0910D
:103130003F03F0E08091BB00EF56FB4F808380910E
:103140003F0390E001968F70992780933F03B7CF9C
:103150001092BC00B4CF8EE14A9B02C08150E1F7CF
:103160004A9BFECF08955A9880E28A95F1F75A9AC1
:103170000895FC013BE03A95F1F720E090E080E013
:1031800031E040E14A95F1F7880F4A9B02C0816027
:10319000232742E04A95F1F7000040E14A95F1F714
:1031A0009F5F6913EECF90E19A95F1F799B132E004
:1031B0003A95F1F7000040E14A95F1F792FB992723
:1031C00090F992272081920F90830895EF92FF92B9
:1031D0000F931F93CF93DF930F92CDB7DEB7198272
:1031E0008C017C01E60EF11C0E151F0561F481E0D7
:1031F0009981911180E00F90DF91CF911F910F91F4
:10320000FF90EF9008950E94AB1868E0CE01019600
:103210000E94B918F80181938F01E6CF9093420381
:103220008093410360934003529A5A9A0895909371
:103230004203809341036093400352985A9AEA9A5A
:10324000E9E6F0E080818F7C808308956150770B00
:1032500091E001C0990F6A95EAF720E031E0911101
:1032600008C0222391F05A9A80E28A95F1F75A9881
:103270000895492F482339F05A9A232740E24A9566
:10328000F1F79695ECCF5A98F9CF5A98EDCFFF9277
:103290000F931F93CF93DF93EC018C01060F111D49
:1032A000C017D10731F4DF91CF911F910F91FF909B
:1032B0000895F9900E94B31868E08F2D0E94261996
:1032C000EFCF1F920F920FB60F9211240F931F93FF
:1032D0002F933F934F935F936F937F938F939F931E
:1032E000AF93BF93EF93FF93CF93DF930F92CDB73D
:1032F000DEB719820E94AB1867E0CE0101960E94EA
:10330000B918082F069506950695982F92959570F1
:10331000202F2570920F292F2370969596958770F0
:10332000920F891344C08981811141C0809140036B
:103330008017E8F120E12A95F1F75A9A529A82E033
:103340008A95F1F700C0A8E00A9FC00111240091FE
:10335000410310914203080F191F5A98F801658123
:10336000662321F0868197810E9447190E94B31835
:10337000F0E1FA95F1F75A9852985A9A20E12A9575
:10338000F1F7D80112966C911297662331F11396DA
:103390008D919C910E94E618D801ED91FC918823B3
:1033A00011F088E001C082E080830E94AB180F908A
:1033B000DF91CF91FF91EF91BF91AF919F918F914D
:1033C0007F916F915F914F913F912F911F910F913D
:1033D0000F900FBE0F901F901895ED91FC91E1CFCB
:1033E0000F931F93CF93DF93209140032817190663
:1033F0000CF471C08C0193E0000F111F9A95E1F756
:10340000C0914103D0914203C00FD11FF894529A4A
:103410005A9825E02A95F1F70000982F9695957017
:103420008570980F892F837096959695980F092B24
:103430000E94B31800C067E0802F0E94261980E127
:103440008A95F1F752985A9A4A9B17C087E090E004
:103450004A9915C06D81662321F18E819F810E945A
:10346000E61881111EC0529A5A9AE881F98182E0C9
:103470008083789482E090E00DC000C0E5CF019792
:1034800071F4529A5A9AE881F98181E080837894A4
:1034900081E090E0DF91CF911F910F91089500C0DE
:1034A000D7CF0E94AB1820E22A95F1F75A98529A8A
:1034B00080E18A95F1F76A81662321F08B819C81F6
:1034C0000E9447190E94B318E881F981108278940C
:1034D00090E080E0DFCF84E090E0DCCF9093480381
:1034E000809347030895E0914703F0914803309794
:1034F00021F00190F081E02D099480E00895E091A1
:103500004703F0914803309721F00280F381E02DCA
:1035100009940895209145033091460328173907EF
:1035200071F09093460380934503E0914703F09137
:103530004803309721F00680F781E02D0994089523
:1035400020914303309144032817390771F0909379
:10355000440380934303E0914703F091480330977D
:1035600021F00084F185E02D0994089585B78068E5
:1035700085BF85B7806885BF0895089508950C9428
:10358000BD1A08950C94C11A0E94B61A0E94BE1A60
:103590000C94BF1A81E008950C94CA1A08950895F6
:1035A0000E9481250E94BE050E94DA250E94801299
:1035B0000C94C21ABF92CF92DF92EF92FF920F93B8
:1035C0001F93CF93DF93CDB7DEB72A970FB6F8944A
:1035D000DEBF0FBECDBF0E94CE1A0E94CF1A0E943E
:1035E000DA060E94CC1A882309F45EC08AE4C82E49
:1035F00083E0D82E10E000E0B02E802F0E944E070E
:10360000E82EF601F1906F01F81609F447C0809199
:10361000BE0381FD0E9454079F2D9E2580E0FF245C
:10362000F394292F2F21B1F18E83BF82EF2081E007
:1036300009F480E088870E948A258160782F9A8724
:1036400089874E815F8168858A850E94751BF80194
:10365000E65BFC4F8081F826F0820E94B8120E943F
:10366000731A90914903891781F10E94731A80930C
:1036700049032A960FB6F894DEBF0FBECDBFDF9187
:10368000CF911F910F91FF90EF90DF90CF90BF905F
:103690000C94410A8F5FFF0C863019F60F5F1F4FA5
:1036A0000830110509F0A8CF8FEF89838A831B8228
:1036B0000E948A258160782F9D838C8349815A815D
:1036C0006B818D810E94751BC8CF2A960FB6F89426
:1036D000DEBF0FBECDBFDF91CF911F910F91FF9045
:1036E000EF90DF90CF90BF900895CF93DF93CDB749
:1036F000DEB72B970FB6F894DEBF0FBECDBF4F835A
:10370000588769877A878B871E821D8285E0FE0134
:103710003796DE01119601900D928A95E1F7498165
:103720005A816B817C818D819E812B960FB6F89496
:10373000DEBF0FBECDBFDF91CF910C94AD20FC0159
:10374000808191810C940E23CF93C82F882329F177
:103750008CEF8C0F813AA0F46C2F809174019091C2
:1037600075010E94C524882329F08C2F0E944323D1
:103770000E94A0238C2F0E943C23CF910C94A02365
:1037800080E28C0F883048F4C77081E001C0880F58
:10379000CA95EAF70E946423F0CFCF910895882359
:1037A00029F19CEF980F913A20F40E9443230C9446
:1037B000A02390E2980F983050F4877091E001C0F8
:1037C000990F8A95EAF7892F0E946A23F0CF9BE52B
:1037D000980F933020F490E080E00C948A1A885A75
:1037E000873120F490E080E00C94A01A0895CF93E4
:1037F000C82F0E94A41BC93349F42FEF87EE93E032
:10380000215080409040E1F700C000008C2FCF9104
:103810000C94CF1B882321F00E9464230C94A023D6
:103820000895882321F00E946A230C94A023089510
:10383000BF92CF92DF92EF92FF920F931F93CF939D
:10384000DF936C01D62FC72FFC01158112951F70D5
:10385000028101110E9481230E945A23E82E8823AD
:1038600091F00023E9F08C2F807F803421F080E2FA
:103870008D0F8830A8F082E00E94EB230E945A232B
:1038800091E0E82EE926BC2EB2949FE0B922FBE03D
:10389000FB15A8F1EB2DF0E0E154FF4C0C94962CB5
:1038A000E12CF1CF1C2F1F70C07F11F01295107FFB
:1038B0000023A9F0112359F080E28D0F883010F019
:1038C000D11109C0812F0E9464230E94A0238D2F53
:1038D0000E94A41B14C0812F0E947423F6CF8D2F49
:1038E0000E94CF1B112359F080E28D0F883010F019
:1038F000D1112CC0812F0E946A230E94A0232B2D5E
:103900002850330B2430310520F40E94731A0E9492
:10391000410AEE2009F467C10E94562380FD63C16D
:10392000F60112820E9450230E94D921C6010E94F2
:10393000141E0E945023DF91CF911F910F91FF9091
:10394000EF90DF90CF90BF900C94FA21812F0E94CE
:103950007A23D3CF2C2F2F70F22EC07FC03219F0D4
:10396000F29480EFF822DD2369F0D13049F1002391
:1039700091F1112351F1F601858180FFA8CF8F705D
:10398000858323C0002381F0111106C00E94872384
:103990008F290E940A1CB3CF1130C1F70E948723E0
:1039A0008F290E948D23ABCF111106C00E94962350
:1039B0008F2D0E94111CA3CF113009F4A0CFF6CF98
:1039C000002329F0163008F09ACF8F2DE2CF153062
:1039D00008F095CFEDCF112359F3D93349F4FFEF18
:1039E00027EE33E0F15020403040E1F700C0000006
:1039F0008D2F0E94CF1B83CF8C2F837009F041C085
:103A000001117DCF4D2F429546954770440F440FCD
:103A10000D2F0F7010E030E020E0042E04C0000FE6
:103A2000111F221F331F0A94D2F760E070E0CB0110
:103A3000D4FF0FC06FE070E080E090E004C0660F3C
:103A4000771F881F991F4A95D2F7609570958095CA
:103A50009095C695C695C370602B712B822B932BC6
:103A6000C23049F058F4C13019F00E946B2147CFA1
:103A70000E94592144CF0E947D2141CF0E945721AD
:103A80003ECF8695002311F08C2F8170882309F496
:103A900036CF4D2F429546954770440F440F0D2F5A
:103AA0000F7010E030E020E0042E04C0000F111F62
:103AB000221F331F0A94D2F760E070E0CB01D4FFDD
:103AC0000FC06FE070E080E090E004C0660F771FE9
:103AD000881F991F4A95D2F76095709580959095AB
:103AE000C695C695C370602B712B822B932BC23069
:103AF00049F058F4C13019F00E94502200CF0E94C2
:103B00003E22FDCE0E946222FACE0E949321F7CE81
:103B1000CF70002329F08C2F0E94D9218D2F39CF0F
:103B20008D2F0E94111C8C2F0E94FA21E8CED23FCB
:103B300089F160F4D03FC9F0D13F29F1002309F4A5
:103B400042C01111C4CE8C2F8F7121C0D33F39F1E7
:103B5000D43FA1F7002369F1CF718C2F0E94D921A6
:103B600063E08C2F0E94D623CACE002341F015308B
:103B700008F0C5CE8C2F8F710E941D22C0CE16304A
:103B800008F0BDCEF7CF8C2F8F71002369F20E9411
:103B9000D921B5CE8C2F8F710023C9F3C5CF002357
:103BA00029F08C2F8F710E94C421A9CE0E949F21E1
:103BB000A6CE81E00E94EB23123008F4A0CE82E072
:103BC0000E94EB239CCE112359F0D93309F010CF7A
:103BD0008FEF97EEE3E081509040E040E1F706CFB1
:103BE0008C2F8F71A1CFDF91CF911F910F91FF90FB
:103BF000EF90DF90CF90BF9008950F931F93CF93D6
:103C0000DF93EC01688179818A810E9418238C01FD
:103C10000E9474220E945621B801CE01DF91CF91FB
:103C20001F910F910C94181CCF93DF93EC018B81A3
:103C30009C81892B29F08881998189238F3F59F4B0
:103C4000DF91CF910895CE010E94FD1DCE01DF913D
:103C5000CF910C94C009CE010E94F8098111F3CFD5
:103C60000E945A23882361F38A81882349F382E0E2
:103C7000DF91CF910C94EB230E9481230E94842337
:103C80000C94A0230E944A230C943C1E0E94712392
:103C90000C94421EE92FE295EF70E250EE3070F482
:103CA000F0E0E553FF4C0C94962C803F19F020F483
:103CB000883E20F481E00895843FE1F380E0089598
:103CC000883EC0F3813FD1F7F5CF93FB882780F979
:103CD00008950E940E230C944A1ECF93DF9300D0C8
:103CE00000D00F92CDB7DEB70F900F900F900F90CE
:103CF0000F90DF91CF910895CF93DF9300D000D044
:103D000000D0CDB7DEB726960FB6F894DEBF0FBE53
:103D1000CDBFDF91CF9108951F93CF93DF93C091D3
:103D2000530316E0809154038C1304C0DF91CF91AC
:103D30001F910895D0E01C9FF0011D9FF00D1124EC
:103D4000EB5AFC4F4081518162817381848195815E
:103D50000E947C1E2196C770E5CF4091850350914B
:103D60008603609187037091880380918903909105
:103D70008A030C947C1E1F93CF93DF9380918A0358
:103D8000807FA9F480918703882389F08091530371
:103D9000C09154036091850370918603A0918803BC
:103DA000B0918903D62FD72316E0C81304C0DF9142
:103DB000CF911F91089590E0109711F0DF3F19F413
:103DC00001968770F2CF189F9001199F300D112432
:103DD000F901EB5AFC4F41814713F2CF4081461362
:103DE000EFCF42814111ECCF438154814A1B5B0BE1
:103DF0004436510528F780918A038F708061809343
:103E00008A03F901E65AFC4F80818F7080618083BC
:103E100085E893E00E94141EDF91CF911F910C94CE
:103E20008C1EAF92BF92CF92DF92EF92FF920F93D0
:103E30001F93CF93DF93CDB7DEB761970FB6F8949A
:103E4000DEBF0FBECDBF8C0185E0F801DE011D96FF
:103E500001900D928A95E1F7F80140815181E2804D
:103E600085E8C82E83E0D82E60918803709189037D
:103E70006115710509F44FC1909185032091860366
:103E8000892F82238F3F09F446C1A380B480F0902C
:103E90008703F501E61BF70BFF2009F40AC18091A7
:103EA0008A03382F307FE436F10508F0C0C03111A5
:103EB00079C0FE2C251323C0941321C0E1101FC02C
:103EC0008F70806180938A030E94AD1EC6010E949C
:103ED000141E80918A03F80185838F2D61960FB699
:103EE000F894DEBF0FBECDBFDF91CF911F910F9130
:103EF000FF90EF90DF90CF90BF90AF900895AB28E8
:103F000029F0842F85238F3F09F021C180E0F82F0D
:103F1000F170DF2E80FF3CC0809153032091540349
:103F200036E0821315C04D875E878D859E850E9481
:103F30000E23292F22952F702230F0F0243018F50F
:103F40009F70F1F0F8019581907FD1F4D12C1EC0C3
:103F500090E0389FF001399FF00D1124EB5AFC4F8F
:103F60006181651306C06081641303C062816E11B4
:103F70000FC001968770D5CF9F7011F0882331F361
:103F8000805E883018F3C8010E94141EFD2CA5CF56
:103F9000EE2009F4A2CF80918A03816080938A0386
:103FA000F12C9BCF251314C0941312C0E11010C044
:103FB000F8018583C8010E94141E86E0F801A5E877
:103FC000B3E001900D928A95E1F70E94AD1E85CF76
:103FD0004D875E878D859E850E94691E882319F115
:103FE000EE2009F180918A03803270F020918503E0
:103FF0003091860338872F831986BB86AA868C87E3
:10400000CE0107960E94141E86E0F801A5E8B3E0F1
:1040100001900D928A95E1F70E94BB1E0E94AD1E91
:10402000FF24F3945ACFC8010E94141EF9CF311116
:1040300013C07A2DB98AA88A6E2D89890E946D1EB7
:1040400085E893E00E94141E86E0F60111928A959D
:10405000E9F70E94AD1EA4CF25130FC094130DC025
:10406000E1100BC0F8018583C8010E94141E86E090
:10407000F60111928A95E9F730CF4D875E878D85DD
:104080009E850E94691E882371F2EE2061F2809164
:104090008A03803208F4B8CF2091850330918603DB
:1040A0003A8329831B82BD82AC828E83CE01019626
:1040B000A9CFE436F10510F5FE2CEE2009F4B3CFBC
:1040C00025130BC0941309C086E0F801A5E8B3E0FE
:1040D00001900D928A95E1F700CF4D875E878D851F
:1040E0009E850E94691E81118FCF80918A03816015
:1040F00080938A03C8010E94141EEFCE7A2DB98ADC
:10410000A88A6E2D89890E946D1E86E0F6011192A3
:104110008A95E9F75ACFEE2009F485CF4D875E875F
:104120008D859E850E94691EF82E882309F47BCF19
:1041300086E0F801A5E8B3E001900D928A95E1F7D9
:1041400085E893E00E949F1B0E94BB1E3ECF81E04A
:104150008E25DDCE84E690E008951F93CF93DF9304
:10416000CDB7DEB72C970FB6F894DEBF0FBECDBF2C
:104170004F83588769877A878B879C87CE010796FC
:104180000E94111F882369F08A859B85892B39F04D
:104190004F815885842F85238F3F09F071C016E029
:1041A0005FC086E0FE013796DE01119601900D9208
:1041B0008A95E1F78A859B85892B89F38F8198857C
:1041C00089238F3F61F32091540330E0C9010196A8
:1041D00087709927409153034817190671F40E947C
:1041E000461E109254031092530386E0E5E8F3E074
:1041F000DF011D928A95E9F7D2CF96E0929FD00118
:10420000939FB00D1124AB5ABC4FFE013196019023
:104210000D929A95E1F7809354030E948C1EBFCFB4
:10422000819FC00111248B5A9C4F0E94111F88232B
:10423000E9F0E09153031E9FF0011124EB5AFC4F6B
:104240004081518162817381848195810E947C1EAD
:104250008091530390E001968770992780935303D0
:1042600080915303909154038913DACF2C960FB6A3
:10427000F894DEBF0FBECDBFDF91CF911F9108959F
:1042800069857A858B859C850E947C1E88CF0895E0
:104290000C9447210E9448216093AD037093AE03B4
:1042A0008093AF039093B0030C943C1E08950C943C
:1042B0004A210F931F930091AD031091AE032091FB
:1042C000AF033091B003602B712B822B932B1F9186
:1042D0000F910C944A210F931F930091AD031091FD
:1042E000AE032091AF033091B0036023712382238A
:1042F00093231F910F910C944A210F931F930091C8
:10430000AD031091AE032091AF033091B00360274D
:104310007127822793271F910F910C944A210C94A7
:1043200047210C948F210E9491216093A9037093DF
:10433000AA038093AB039093AC030C943C1E60E003
:1043400070E0CB010C9493216115710581059105F5
:1043500029F481E0442361F080E00895DC01CB0181
:1043600004C0B695A795979587954A95D2F7817021
:104370000895482F6091A9037091AA038091AB031F
:104380009091AC030C94A4210F931F9341E050E053
:1043900060E070E08A019B0104C0000F111F221F22
:1043A000331F8A95D2F7C901B8011F910F910C9460
:1043B00093210F931F9341E050E060E070E004C050
:1043C000440F551F661F771F8A95D2F78091A90366
:1043D0009091AA03A091AB03B091AC038A019B0119
:1043E000082B192B2A2B3B2BC901B8011F910F91C8
:1043F0000C9493210F931F9341E050E060E070E034
:1044000004C0440F551F661F771F8A95D2F7CB0152
:10441000BA0160957095809590950091A9031091CF
:10442000AA032091AB033091AC0360237123822354
:1044300093231F910F910C9493210F931F9341E0AD
:1044400050E060E070E004C0440F551F661F771F06
:104450008A95D2F78091A9039091AA03A091AB030A
:10446000B091AC038A019B01082719272A273B2713
:10447000C901B8011F910F910C9493210F931F93C1
:104480000091A9031091AA032091AB033091AC03D2
:10449000602B712B822B932B1F910F910C949321E6
:1044A0000F931F930091A9031091AA032091AB03CE
:1044B0003091AC0360237123822393231F910F91CA
:1044C0000C9493210F931F930091A9031091AA03B9
:1044D0002091AB033091AC0360277127822793278B
:1044E0001F910F910C9493210895E92FEE0FE90F7E
:1044F000EE0F8E0F982F977041E001C0440F9A95F0
:10450000EAF786958695869595E0899FF0011124B6
:10451000E557FC4F30E020E070E05191DF0111974A
:10452000CB01022E02C0969587950A94E2F781701E
:1045300081958527842385278C932F5F3F4F2530D6
:10454000310559F70895E92FEE0FE90FEE0F8E0FA1
:10455000982F977086958695869525E0829FF00125
:104560001124E557FC4F50E040E080E0219130E01D
:10457000092E02C0369527950A94E2F72170332759
:10458000042E01C0220F0A94EAF7822B4F5F5F4F7F
:104590004530510559F70895BF92CF92DF92EF92BF
:1045A000FF920F931F93CF93DF938C01C090A903C9
:1045B000D090AA03E090AB03F090AC038091AD03E0
:1045C0009091AE03A091AF03B091B003C82AD92A4D
:1045D000EA2AFB2ACFE1D0E0BC2ED701C6010C2E7F
:1045E00004C0B695A795979587950A94D2F780FD54
:1045F0000EC0219788F7B12C8B2DDF91CF911F91A1
:104600000F91FF90EF90DF90CF90BF900895B80189
:104610008C2F0E945D0A019761F3EECFCF93DF9359
:10462000EC010E94CC22BE01DF91CF910C945D0A77
:104630001F93CF93DF93EB0190915203992331F0B5
:10464000CB01DF91CF911F910C940E23882379F039
:10465000CB010E94CC22182F682FCE010E94752218
:10466000BE01812FDF91CF911F910C945D0ACB0188
:104670000E94A322182FF4CF682F8091740190918B
:1046800075010C94FB24682F809174019091750141
:104690000C94FD2480917401909175010C94FF2479
:1046A0008091B10385958595859508958091B10395
:1046B000877008959091B103977081E009F480E0CC
:1046C00008958091BD0308959091BD03892B809337
:1046D000BD03089580959091BD0398239093BD03E9
:1046E00008951092BD0308959091BC03892B809387
:1046F000BC03089580959091BC0398239093BC03CC
:1047000008951092BC0308951092BB030895809100
:10471000B203089508950C948A239091B2039817D8
:1047200021F08093B2030C948B2308958091B203FF
:10473000882329F01092B20380E00C948B23089513
:10474000E0917401F09175018091BD038083E09147
:104750007401F091750180819091BC03892B808355
:10476000E0917401F091750180819091BB03892BD8
:1047700080839091B203992381F0E0917401F091CC
:1047800075018081892B80838091740190917501DE
:104790000E94B32481110E9496238091740190910C
:1047A00075010C947F1A08950C94D32398E0899F87
:1047B00090011124622B6093B1030E94D921809152
:1047C000B1038595859585950C94D4231092B103FA
:1047D00080E00C94D4239091B10380958923809339
:1047E000B103282F277071F4282F082E000C330BEB
:1047F0009217130639F08595859585950E94FA21C3
:104800000C94E623089590E080E00E94193021E0A6
:104810008C3E9E4F09F020E0822F089582E090E0C8
:104820000C940B3083E090E00C940B30682F83E005
:1048300090E00C941F30CF9384E090E00E940B3006
:10484000C82F81E290E00E940B30982F8C2FCF91DF
:104850000895CF93C92F682F84E090E00E941F3005
:104860006C2F81E290E0CF910C941F30AB01BC0122
:104870008FE090E00C943130AB01BC0183E190E01B
:104880000C94313060E070E0CB010C943C2460E08B
:1048900070E0CB010E9436240C9442246CEE7EEF33
:1048A00090E080E00E943D3060E082E090E00E9475
:1048B0001F3060E083E090E00E941F301092AD0353
:1048C0001092AE031092AF031092B00360E084E048
:1048D00090E00E941F3060E081E290E00E941F3073
:1048E00060E085E090E00E941F3060E086E090E0AC
:1048F0000E941F306FEF87E090E00E941F3040E081
:1049000050E0BA0188E090E00E94313060E08DE034
:1049100090E00E941F3040E050E0BA0188E190E052
:104920000E94313060E087E190E00E941F3040E05B
:1049300050E0BA018CE190E00E94313060E080E20A
:1049400090E00E941F3040E050E0BA0188E190E022
:104950000E9431300C9447240C944E24682F8EE032
:1049600090E00C941F309C012E5F3F4FAC01485FDC
:104970005F4F80E02417350709F40895F9019191FC
:104980009F019923B9F38F5FF5CF662349F0FC01AE
:10499000329608962191261729F0E817F907D1F7E2
:1049A00080E0089581E008959C01FC0132969FEF1C
:1049B00080E04191461751F09F3F19F4411101C029
:1049C000982F8F5F8630A9F79F3F09F40895290F2C
:1049D000311D97FD3A95F90162830895FC013296E5
:1049E00008962191261303C0DF0111971C92E81746
:1049F000F907B9F708950C94D4240C94EE24029688
:104A000026E0FC0111922A95E9F70895089508958A
:104A10000C9407250E9408258091AB04843049F14D
:104A20001092BF0388E190E020E40FB6F894A895B7
:104A3000809360000FBE2093600080E00E94410AD6
:104A40000E94082583B7817F846083BF83B781601C
:104A500083BF7894889583B78E7F83BF0FB6F89411
:104A6000A89580916000886180936000109260003A
:104A70000FBE08950895CF930E9406250E94DA067E
:104A80000E943A25C0E08C2F0E944E07811105C07C
:104A9000CF5FC830C1F7CF91089581E0FCCF089572
:104AA0000C944F250E94461E0E94731A0E94410AD0
:104AB0000C9450251F921FB61F9211248F939F9321
:104AC000AF93BF938091BF03811113C08091A10464
:104AD0009091A204A091A304B091A4044196A11DB9
:104AE000B11D8093A1049093A204A093A304B0935A
:104AF000A404BF91AF919F918F911F901FBE1F90F3
:104B0000189582E084BD93E095BD9AEF97BD8093A0
:104B10006E0008952FB7F8948091A1049091A2049B
:104B2000A091A304B091A4042FBF08959C014FB796
:104B3000F8948091A1049091A204A091A304B09153
:104B4000A4044FBF821B930B089578941F921FB645
:104B50001F9211248F939F93AF93BF938091A104D1
:104B60009091A204A091A304B091A4040196A11D68
:104B7000B11D8093A1049093A204A093A304B093C9
:104B8000A404BF91AF919F918F911F901FBE1F9062
:104B9000189587E797E7909301088093000888E1CC
:104BA0009AE00FB6F894A895809360000FBE90939A
:104BB0006000FFCF0E940324811102C00E94AC2438
:104BC0000E940E248093BE030E941B249093A6048F
:104BD0008093A5040E941224682F70E090E080E08A
:104BE0000E9457216091A9037091AA038091AB03A1
:104BF0009091AC030C9491218091C803089508957D
:104C00000895CF93DF93EC0181E08093E9008FEF6B
:104C10009091E800815095FD06C095ED9A95F1F7C9
:104C200000008111F5CF8091E80085FF14C050E0AD
:104C300040E068E070E0CE010E94A1278091E8008A
:104C40008E778093E80088E0FE01A0ECB3E001904D
:104C50000D928A95E1F7DF91CF91089508958091A3
:104C6000AA04811109C00E9431290E948E298091D5
:104C7000E20084608093E20008951092AA040895EF
:104C8000089508950C94522542E061EC81E00C9463
:104C9000AD288091AD04833009F45FC030F48130D9
:104CA000C1F1823009F49BC008958A3009F487C0AD
:104CB0008B3009F46DC0893009F04EC08091AC048E
:104CC000813209F049C08091B0049091B104892BE0
:104CD00009F042C08091E800877F8093E8008091CE
:104CE000E80082FF35C09091F3008091F2000297B6
:104CF00029F48091F1008B7F813021F48091F100C3
:104D00008093C8038091E8008B778093E8000C942F
:104D1000E1288091AC04813AF9F48091E800877F22
:104D20008093E8008091B0049091B104892B61F4E4
:104D300068E080EC93E070E00E94F0278091E8004A
:104D40008B778093E800089560E090E080E0F3CFF7
:104D50008091AB048111C3CF08958091AC04813A56
:104D6000D9F78091B0049091B104892BA9F7809173
:104D7000E800877F8093E8008091E80080FFFCCF07
:104D8000809180018093F1008091E8008E77BDCF03
:104D90008091AC04813201F78091B0049091B1040C
:104DA000892BD1F68091E800877F8093E8000E94EC
:104DB000E1288091AE04809380010C94461E80917E
:104DC000AC04813249F68091E800877F8093E80047
:104DD0000E94E1288091AF048093C90308958091D7
:104DE000AC04813A09F0B8CF8091E800877F8093C6
:104DF000E8008091E80080FFFCCF8091C903C2CF1A
:104E000084B7877F84BF0FB6F894A895809160001F
:104E1000886180936000109260000FBE80E890E08F
:104E20000FB6F89480936100909361000FBE0E94CA
:104E3000C41A0E9431290E948E298091E200846068
:104E40008093E20078940E94172C0E94D01A86E783
:104E500091E00E946E1A8091AB04853039F00E9477
:104E6000DA1A0E94CE1A0E94CF1AF5CF0E940A25A4
:104E70008091A904882379F30E943B25882359F364
:104E80000E948B27E8CF0C944527292F3327233006
:104E90003105C9F058F42130310599F1223031053E
:104EA000A9F190E080E030E020E01DC02132310522
:104EB00009F122323105A9F780E490E02AE43AE0D2
:104EC000672B79F710C099278130910581F0009701
:104ED00029F0029731F7E6EBF9E002C0E2E1FAE0EF
:104EE000849190E09F01FA01318320830895E0E0EE
:104EF000FAE0F6CF89E090E028E23AE0672B89F605
:104F0000F2CF82E190E028E33AE0EDCF82E290E058
:104F100026E13AE0E8CF80E189BD82E189BD09B4AC
:104F200000FEFDCF8091D8008F7D8093D8008091C6
:104F3000E00082608093E0008091E00081FDFCCF82
:104F40000895AF92BF92CF92DF92FF920F931F937B
:104F5000CF93DF936C01EB018A010E940029F82EA8
:104F6000811123C00115110539F0F801808191816B
:104F7000C81BD90BC80ED91EB12CA12C2097A9F0A3
:104F80008091E80085FD22C08091E8008E778093B3
:104F9000E80001151105A1F0F80180819181A80EAA
:104FA000B91EB182A08285E0F82E8F2DDF91CF91BE
:104FB0001F910F91FF90DF90CF90BF90AF90089519
:104FC0000E9400298823D1F2F82EEFCFF6018191BB
:104FD0006F018093F1002197FFEFAF1ABF0ACECF88
:104FE000FC018091B2049091B30486179707A0F05A
:104FF0006115710529F49091E8009E779093E8007F
:1050000090E06115710551F4911108C08091E8009C
:1050100082FF34C080E00895BC01F2CF8091AB04E0
:105020008823C1F18530C1F18091E80083FD30C053
:105030008091E80082FDEACF8091E80080FFE1CF17
:105040008091F3002091F200382F6115710519F05D
:105050002830310558F091E02830310509F090E012
:105060002091E8002E772093E800CBCF81918093A8
:10507000F100615071092F5F3F4FE7CF8091AB0482
:10508000882341F0853041F08091E80083FFBECF56
:1050900081E0089582E0089583E00895FC01809105
:1050A000B2049091B30486179707A0F061157105BB
:1050B00029F48091E8008E778093E80090E06115F4
:1050C000710551F4911108C08091E80082FF35C04C
:1050D00080E00895BC01F2CF8091AB048823C9F130
:1050E0008530C9F18091E80083FD31C08091E800EE
:1050F00082FDEACF8091E80080FFE1CF8091F3004C
:105100002091F200382F6115710519F02830310512
:1051100058F091E02830310509F090E08091E800E6
:105120008E778093E800CBCF84918093F100319605
:10513000615071092F5F3F4FE6CF8091AB04882308
:1051400041F0853041F08091E80083FFBDCF81E0E0
:10515000089582E0089583E00895982F973028F00D
:105160008F708093E90081E008959093E900242FE7
:10517000762F50E0981731F07091EC002091ED00FF
:105180005091F00021FD02C09F5FE8CF3091EB000D
:105190003E7F3093EB003091ED003D7F3093ED008A
:1051A0003091EB0031603093EB007093EC00209372
:1051B000ED005093F0002091EE0027FDE5CF80E058
:1051C00008958091AC0487FF13C08091E80082FFAE
:1051D00006C08091E8008B778093E80004C080913E
:1051E000AB048111F2CF08958091AB048823D9F3E9
:1051F0008091E80080FFF8CF8091E8008E77ECCFB7
:105200002091E4003091E50095E6A9012091EC00A1
:10521000822F817020FF06C08091E80080FF06C0C9
:1052200080E008952091E80022FD1AC08091AB042F
:10523000882389F0853089F08091EB0085FD0FC0CF
:105240002091E4003091E50042175307F9F29150A4
:10525000E1F684E0089582E0089583E0089581E016
:1052600008950E949F290E94A729E0EEF0E0808126
:1052700081608083E8EDF0E080818F77808319BCC6
:10528000A7EDB0E08C918E7F8C9380818F7E8083A0
:105290001092AA0408950F931F93CF93DF930E9457
:1052A0009F290E94A729C8EDD0E088818F77888345
:1052B00088818068888388818F7D888319BC10925B
:1052C000AB041092A7041092A9041092A80400EE57
:1052D00010E0F80180818B7F8083888181608883E2
:1052E00042E060E080E00E94AD28E1EEF0E08081E5
:1052F0008E7F8083E2EEF0E0808181608083808118
:1053000088608083F80180818E7F808388818061BE
:105310008883DF91CF911F910F910895E8EDF0E020
:1053200080818F7E8083E7EDF0E0808181608083E3
:1053300084E082BF81E08093AA040C944B29E8EDBD
:10534000F0E080818E7F80831092E20008951092B9
:10535000DA001092E10008951F920F920FB60F929B
:1053600011242F933F934F935F936F937F938F936A
:105370009F93AF93BF93EF93FF938091E10082FFE0
:105380000BC08091E20082FF07C08091E1008B7F1B
:105390008093E1000E94162C8091DA0080FF19C0F2
:1053A0008091D80080FF15C08091DA008E7F8093B5
:1053B000DA008091D90080FF96C080E189BD82E14A
:1053C00089BD09B400FEFDCF81E08093AB040E944B
:1053D0002F268091E10080FF19C08091E20080FFBC
:1053E00015C08091E2008E7F8093E2008091E20000
:1053F00080618093E2008091D80080628093D80021
:1054000019BC85E08093AB040E9441268091E100A5
:1054100084FF2BC08091E20084FF27C080E189BD1A
:1054200082E189BD89B5982F917080FFFBCF809173
:10543000D8008F7D8093D8008091E1008F7E80938B
:10544000E1008091E2008F7E8093E2008091E20093
:1054500081608093E2008091A704882309F449C009
:1054600084E08093AB040E9442268091E10083FF98
:1054700029C08091E20083FF25C08091E100877FF1
:105480008093E10082E08093AB041092A7048091A6
:10549000E1008E7F8093E1008091E2008E7F809317
:1054A000E2008091E20080618093E20042E060E0EF
:1054B00080E00E94AD288091F00088608093F00029
:1054C0000E944026FF91EF91BF91AF919F918F91E4
:1054D0007F916F915F914F913F912F910F900FBEF0
:1054E0000F901F90189519BC1092AB040E943D2696
:1054F00070CF8091E30087FD93E09093AB04B3CF2E
:105500001F920F920FB60F9211242F933F934F9338
:105510005F936F937F938F939F93AF93BF93CF933B
:10552000DF93EF93FF93D091E900DF708091EC005F
:10553000C82FC17080FDC0E81092E9008091F00092
:10554000877F8093F00078940E94C42A1092E9002B
:105550008091F00088608093F000CD2BCF70C093D5
:10556000E900FF91EF91DF91CF91BF91AF919F91B2
:105570008F917F916F915F914F913F912F910F90FC
:105580000FBE0F901F9018951F93CF93DF93CDB749
:10559000DEB7AA970FB6F894DEBF0FBECDBF8CEA78
:1055A00094E02091F100FC012193CF01F4E0843BD1
:1055B0009F07B9F70E9449268091E80083FF1EC12A
:1055C0008091AC049091AD049A3008F017C1E92F96
:1055D000F0E0E752FF4C0C94962C803899F082381A
:1055E00009F00CC18091B0048F70873008F006C1BB
:1055F0008093E9008091EB0085FB882780F9109269
:10560000E90006C08091A8049091A90491118260DC
:105610009091E800977F9093E8008093F1001092BA
:10562000F1008091E8008E77E5C0882309F4D3C0AB
:10563000823009F0E3C08091AE048111D6C0809120
:10564000B0048F702FEF280F263008F0D7C080935A
:10565000E9002091EB0020FFC8C0933031F4809125
:10566000EB0080628093EB00C0C09091EB009061F2
:105670009093EB0021E030E001C0220F8A95EAF719
:105680002093EA001092EA008091EB008860EACF54
:105690008111B4C01091AE041F778091E30080782F
:1056A000812B8093E3008091E800877F8093E8005E
:1056B0000E94E1288091E80080FFFCCF8091E30008
:1056C00080688093E30082E0111183E08093AB0453
:1056D00095C08058823008F091C08091AE049091BE
:1056E000AF048C3D23E09207A1F583E08A838AE230
:1056F00089834FB7F894DE01139620E03EE051E233
:10570000E32FF0E050935700E49120FF03C0E295AF
:10571000EF703F5FEF708E2F90E0EA30C0F0C796D9
:105720008D939D932F5F243159F74FBF8091E800EF
:10573000877F8093E8006AE270E0CE0101960E94C4
:10574000F0278091E8008B778093E80057C0C096DF
:10575000E7CF6091B0047091B104AE014F5F5F4F2D
:105760000E944327BC01892B09F448C09091E800AE
:10577000977F9093E80089819A810E944E28E1CF1B
:105780008038E1F58091E800877F8093E800809180
:10579000A7048093F10045CF811130C09091AE04F1
:1057A000923060F58091E800877F8093E8009093C5
:1057B000A7040E94E1288091A704882311F084E0C7
:1057C00005C08091E30087FDFACF81E08093AB04B0
:1057D0000E94442613C08091AE04813079F481E0A8
:1057E000933009F080E08093A9041092E900809141
:1057F000E800877F8093E8000E94E1288091E8001C
:1058000083FF0AC08091E800877F8093E800809141
:10581000EB0080628093EB00AA960FB6F894DEBF8F
:105820000FBECDBFDF91CF911F9108950895CF9303
:105830008091AB048823A1F0C091E900CF709091D2
:10584000EC00892F817090FD80E8C82B1092E90050
:105850008091E80083FD0E94C42ACF70C093E900C4
:10586000CF910895991B79E004C0991F961708F00D
:10587000961B881F7A95C9F78095089587FB082E97
:10588000062687FD819567FD61950E94322C0EF4F6
:10589000919507FC81950895AA1BBB1B51E107C098
:1058A000AA1FBB1FA617B70710F0A61BB70B881FB0
:1058B000991F5A95A9F780959095BC01CD0108953F
:1058C00097FB072E16F4009407D077FD09D00E94AD
:1058D0004C2C07FC05D03EF4909581959F4F089580
:1058E000709561957F4F0895A1E21A2EAA1BBB1BEC
:1058F000FD010DC0AA1FBB1FEE1FFF1FA217B3079C
:10590000E407F50720F0A21BB30BE40BF50B661FB1
:10591000771F881F991F1A9469F760957095809575
:1059200090959B01AC01BD01CF010895EE0FFF1FC3
:105930000590F491E02D09940E94A42C332312F4D5
:105940008A1B9B0B0C94B52CA29FB001B39FC00186
:10595000A39F700D811D1124911DB29F700D811D9B
:105960001124911D08950E94A42CB7FF0895821B55
:10597000930B08950E94A42CA59F900DB49F900DA9
:10598000A49F800D911D11240895B7FF0C94BA2C8B
:105990000E94BA2C821B930B08958F929F92AF9214
:1059A000BF92CF92DF92EF92FF92CF93DF93EC0101
:1059B000688179818A819B816115710581059105D5
:1059C00021F464E279ED8BE597E02DE133EF41E0DE
:1059D00050E00E94533049015A019B01AC01A7EAF3
:1059E000B1E40E94BA2C6B017C01ACEEB4EFA501CE
:1059F00094010E94C82CDC01CB018C0D9D1DAE1DB5
:105A0000BF1DB7FF03C00197A109B04888839983E0
:105A1000AA83BB839F77DF91CF91FF90EF90DF90B8
:105A2000CF90BF90AF909F908F9008950E94CD2C03
:105A3000089580E091E00E94CD2C0895B0E0A0E0B0
:105A40008093000190930101A0930201B0930301A0
:105A50000895FC014150504030F001900616D1F7F6
:105A60003197CF010895882799270895FB01DC011C
:105A700004C08D910190801921F441505040C8F725
:105A8000881B990B08956817790768F4FB01DC01FE
:105A9000E40FF51FA40FB51F02C002900E924150F3
:105AA0005040D8F708950C94692FDC0101C06D9324
:105AB00041505040E0F70895FB01DC0101900D9248
:105AC0000020E1F70895AEE0B0E0E9E6FDE20C94D5
:105AD00080300D891E898F89988D26E02C831A834A
